:020000040800F2
:10000000A80400209D0100080F100008F10E000850
:100010000D100008D50200080914000800000000B7
:100020000000000000000000000000006D1000084B
:10003000D70200080000000011100008A5100008F9
:10004000B7010008B7010008B7010008B7010008B0
:10005000B7010008B7010008B7010008B7010008A0
:10006000B7010008B7010008B7010008B701000890
:10007000B7010008B7010008B7010008B701000880
:10008000B7010008B7010008B7010008B701000870
:10009000B7010008B7010008B7010008B701000860
:1000A000B7010008B7010008B7010008B701000850
:1000B000B7010008B7010008B7010008B701000840
:1000C000B7010008B7010008B7010008B701000830
:1000D000B7010008B7010008FD130008B7010008C8
:1000E000B7010008B7010008B7010008B701000810
:1000F000B7010008B7010008B7010008B701000800
:10010000B7010008B7010008B7010008B7010008EF
:10011000B7010008B7010008B7010008B7010008DF
:10012000B7010008B7010008B7010008B7010008CF
:10013000B7010008B7010008B7010008B7010008BF
:10014000B7010008B7010008B7010008B7010008AF
:10015000B7010008B7010008B7010008B70100089F
:10016000B7010008B7010008B7010008B70100088F
:10017000B7010008B7010008B7010008000000003F
:10018000B7010008B7010008DFF80CD000F090F8C4
:1001900000480047D9150008A804002006488047F9
:1001A00006480047FEE7FEE7FEE7FEE7FEE7FEE75C
:1001B000FEE7FEE7FEE7FEE72D11000889010008D3
:1001C0002DE9F05F0546002092469B46884606468C
:1001D000814640241BE0284641464746224600F01F
:1001E00057F853465A46C01A914110D31146184643
:1001F000224600F03EF82D1A67EB01084F462246D2
:100200000120002100F035F817EB00094E41201EB7
:10021000A4F10104DFDC484631462A464346BDE8E6
:10022000F09FD2B201E000F8012B491EFBD27047CB
:100230000022F6E710B513460A4604461946FFF7B2
:10024000F0FF204610BD30B50B46014600202022AD
:10025000012409E021FA02F59D4205D303FA02F5D3
:10026000491B04FA02F52844151EA2F10102F1DC33
:1002700030BD202A04DB203A00FA02F1002070474A
:100280009140C2F1200320FA03F3194390407047D4
:10029000202A04DB203A21FA02F00021704721FADB
:1002A00002F3D040C2F12002914008431946704742
:1002B000064C074D06E0E06840F0010394E80700B3
:1002C00098471034AC42F6D3FFF762FF601600087F
:1002D00080160008FEE77047704790F83510022935
:1002E00003D08021416501207047052180F8351039
:1002F0000068016821F001010160002070470000E2
:1003000070B5044600F0F6F80546601C02D00448BB
:100310000078044400F0EEF8401BA042FAD370BD10
:10032000040000202DE9F84F00224FF001080325BA
:100330004FF00F0E0B6808FA02F42340A3426ED16F
:100340004E68012E05D0022E03D0112E01D0122EA0
:1003500012D186684FEA420C05FA0CF7BE43CF680B
:1003600007FA0CF7374387604668A6430C79C4F355
:100370000014944034434460C668570005FA07FCF3
:100380008C6826EA0C06BC403443C4604C68022CDE
:1003900001D0122C13D1D40800EB8404A346D4F866
:1003A000209054074FEAD46A0EFA0AF629EA0609A1
:1003B0000E6906FA0AF646EA0906CBF820600668D6
:1003C0000C7926EA0C0604F00304BC4034430460B4
:1003D0004C68E40065D5364C266846F480462660B5
:1003E000246822F0030604F480440094314C344421
:1003F000A446D4F808489607370F0EFA07F6B44318
:100400002D4EB04201D1002624E02C4EB04201D145
:1004100001261FE02A4EB04202D102261AE040E037
:10042000284EB04201D1032614E0274EB04201D13C
:1004300004260FE0254EB04201D105260AE0244EE5
:10044000B04201D1062605E0224EB04201D1072676
:1004500000E00826BE402643CCF808681E4E3468EB
:100460004F689C43FF0300D51C4334601A4C241D85
:1004700026684F689E43BF0300D51E432660164E74
:10048000083634684F689C43FF0200D51C43346033
:10049000114E0C3634684F689C43BF0200D51C4394
:1004A0003460521C102AFFF445AFBDE8F88F0000FD
:1004B0004438024000300140000002400004024085
:1004C00000080240000C02400010024000140240EC
:1004D00000180240001C0240003C0140426931EA21
:1004E000020200D10904816170470AB1816170473D
:1004F0000904FBE701488068704700000400002001
:10050000024881680278114481607047040000202D
:100510000B4810B5016841F400710160016841F4B5
:1005200080610160016841F480710160032000F086
:100530006FF8002000F006F800F024F8002010BD4D
:10054000003C024070B50D4D04464FF47A71287896
:10055000B1FBF0F00A490968B1FBF0F000F002FBD2
:1005600048B9102C07D200222146501E00F030F866
:1005700000206C6070BD012070BD000004000020F0
:10058000100000200A4808B5016841F4804101606C
:10059000006800F4804000900548001F016841F0A9
:1005A00080510160006800F08050009008BD00009C
:1005B00044380240002809DB00F01F02012191406D
:1005C0004009800000F1E020C0F8001170470000F1
:1005D000F0B40E4B1B680C46C3F30223C3F10705AE
:1005E000042D00D90425191D072901D2002300E09C
:1005F000DB1E012606FA05F1491E214099409E4066
:10060000761E16403143F0BC00F010BF0CED00E048
:10061000064900F0070208684FF6FF03184040EA59
:100620000220034A10430860704700000CED00E010
:100630000000FA052DE9F0470E46050065D0DFF809
:100640001481D8F80000F7B200F00F00B04207D2D2
:1006500088F80070D8F8000000F00F00B04254D1C4
:1006600028683D4C810712D5400703D5206840F427
:10067000E05020602878000703D5206840F46040EF
:1006800020602068A96820F0F000084320602878E6
:10069000C0072DD0304968680839012812D00228D7
:1006A00013D0032811D00968890700292DDA2168A1
:1006B00021F0030101432160FFF71CFF814641F255
:1006C000883A0EE009688903EFE709688901ECE7D9
:1006D000FFF710FFA0EB0901514502D90320BDE847
:1006E000F0872068696800F00C00B0EB810FEFD153
:1006F000D8F80010404601F00F01B14207D9077049
:10070000006800F00F00B04201D00120E7E7287830
:10071000400705D52068E96820F4E05008432060D0
:100720002878000706D52068296920F4604040EA4F
:10073000C100206000F038F82168084AC1F30311B5
:10074000515CC8400649086006480068FFF7FAFE99
:100750000020C4E7003C0240083802404816000868
:1007600010000020080000200448054900680968BE
:10077000044AC1F38221515CC84070471000002038
:1007800008380240581600080448054900680968FE
:10079000044AC1F34231515CC84070471000002048
:1007A0000838024058160008154810B5006810F0C7
:1007B0000C02144813D04110042A0FD0082A0ED17D
:1007C0000F4C241F2268236802F03F025B0207D50A
:1007D0002068C0F38810A0FB010106E0084610BDA8
:1007E0002168C1F38811A1FB00010023FFF7E8FC99
:1007F0002168C1F30141491C4900B0FBF1F010BD73
:10080000083802400024F4002DE9F84F04006ED0AF
:100810002078DFF83C93C007A9F104054AD009F11C
:1008200004000168C1F38101012908D00068C0F308
:10083000810002280AD1D9F80000400206D52868B4
:10084000800337D560680028E1D033E06068B0F5F8
:10085000803F10D0B0F5A02F286810D020F4803051
:100860002860286820F4802028606068A8B1FFF71D
:1008700041FE06460DE0286840F48030F4E740F47D
:1008800080202860F7E700BFFFF734FE801B642854
:1008900073D828688003F7D50CE0FFF72BFE0646D7
:1008A00005E000BFFFF726FE801B6428F0D828680B
:1008B0008003F7D42078DFF89C8280074FF0000A8D
:1008C0003ED5A348001D016811F00C0F08D0006848
:1008D000C0F3810002280BD1D9F80000400207D4F0
:1008E0002868800716D5E068012800D112E02BE1C6
:1008F000E068B8B10120C8F80000FFF7FBFD06462C
:1009000005E000BFFFF7F6FD801B0228C0D828686D
:100910008007F7D52868216920F0F80040EAC10077
:1009200028600DE0C8F800A0FFF7E4FD064604E0EB
:10093000FFF7E0FD801B02281FD828688007F7D446
:100940002078000722D5824E83486169703671B1E4
:1009500001210160FFF7CEFD074604E0FFF7CAFD65
:10096000C01B022809D830688007F7D50EE0C0F810
:1009700000A0FFF7BFFD074605E082E0FFF7BAFDE4
:10098000C01B02287DD830688007F7D42078400744
:1009900068D5DFF8BCB100270BF13C0BDBF8000099
:1009A000C0000BD4DBF8001041F08051CBF80010F0
:1009B000DBF80000012700F080500090674E30689F
:1009C000C00510D4306840F480703060FFF792FDAD
:1009D000009005E0FFF78EFD0099401A022850D8DC
:1009E0003068C005F6D55A4EA0686C3601280FD085
:1009F0000528306810D020F001003060306820F009
:100A000004003060A068B8B1FFF774FD00900FE0FB
:100A1000306840F00100F4E740F004003060F7E790
:100A2000FFF768FD0099411A41F28830814266D88B
:100A300030688007F4D50EE0FFF75CFD009007E01A
:100A4000FFF758FD0099411A41F28830814256D88B
:100A500030688007F4D42FB1DBF8001021F080510A
:100A6000CBF80010A069C8B33949091D0968C1F362
:100A7000810102294AD00228504607D0C8F86000F8
:100A800000E03CE0FFF736FD04463BE04746C8F88F
:100A90006000FFF72FFD064605E000BFFFF72AFDC7
:100AA000801B02282BD828688001F7D4D4E90701DD
:100AB0000843A16A2A4A490802EB0141626A41EAF5
:100AC0008211084394F82C1040EA0161C9F8001023
:100AD00001203866FFF70EFD044606E036E000BF51
:100AE000FFF708FD001B022809D828688001F7D508
:100AF0002CE000BFFFF7FEFC001B022802D90320F8
:100B0000BDE8F88F28688001F4D41FE00128F7D0F1
:100B1000D9F80000E26900F48001914214D1226A00
:100B200000F03F0191420FD147F6C071626A014067
:100B3000914209D1A26A00F44031914204D1E16AA4
:100B400000F07060884201D00120D9E70020D7E78B
:100B50000438024000004742800E474200700040C7
:100B60000000FFFF10B5401EB0F1807F01D30120CF
:100B700010BD4FF0E02460610F21601700F056FCBB
:100B80000020A06107202061002010BD70470000F8
:100B900070B5026804461068D168536910F00F0FF1
:100BA00052D003F0010501F490762E435FD0C207C6
:100BB00005D0CA0503D5E26B42F00102E2634207A9
:100BC00005D5DA0703D0E26B42F00202E263820746
:100BD00005D5DA0703D0E26B42F00402E2630207B4
:100BE00007D501F020022A4303D0E26B42F008024D
:100BF000E263E26B002A33D0800604D5880602D572
:100C0000204600F0B7FA20684069E16BC0F380101D
:100C1000090700D428B3204600F09EFA20684169F5
:100C200049061AD5416921F040014161606BA0B1CC
:100C30001B490165606BFFF750FB002810D0606B0B
:100C4000016DBDE870400847830610D58B060ED5B0
:100C50002046BDE8704000F08DBA2046FFF796FFB1
:100C600070BD2046FFF792FF0020E06370BD0306D1
:100C700006D50B0604D52046BDE8704000F05ABBEF
:100C80004006F3D54806F1D5D168204621F0400151
:100C9000D160202184F8391000F029F970BD0000DE
:100CA0004911000870B5040004D094F839000025FB
:100CB00010B106E0012070BD84F83850204600F0E5
:100CC00023F8242084F839002068C16821F40051F9
:100CD000C160204600F09AFA2068016921F4904131
:100CE00001612068416921F02A0141612068C168E1
:100CF00041F40051C160E563202084F8390084F894
:100D00003A00002070BD0000F0B587B00446142101
:100D10006846FFF78DFA274F2368002226490224F0
:100D2000032507262548BB421CD1234B14331F68DB
:100D300047F010071F601B6803F0100305930B6852
:100D400043F001030B60096802AB01F0010105915A
:100D50006902CDE9001483E864006946FFF7E2FA0E
:100D600007B0F0BD164FBB42FAD1134B10331F68CA
:100D700047F400371F601B6803F4003305930B68CA
:100D800043F001030B60096802AB01F0010105911A
:100D90000C21CDE9001483E864006946FFF7C2FA2C
:100DA000002211462620FFF713FC2620FFF702FC45
:100DB000D6E7000000100140303802400000024039
:100DC0000044004090F83A30202B22D1F9B1F2B122
:100DD00090F83830012B1CD081628285C2850021B9
:100DE000C163222280F83A2080F838100168CA686E
:100DF00042F48072CA6001684A6942F001024A61A5
:100E00000068C16841F02001C160002070470120E6
:100E1000704702207047000004490A4650680144A8
:100E2000401C506001220248FFF7CCBF1800002090
:100E3000640000202DE9F843044690F839001F466D
:100E400016460D46202850D1B5B1AEB194F8380001
:100E500001284AD0012084F838004FF00008C4F877
:100E60003C80212084F83900FFF744FBA6848146AA
:100E7000E68484F8388026E00120BDE8F883E08C21
:100E8000401EE084A0684B46B0F5805F4FF0000242
:100E90004FF080012046009703D000F07CFAE8B9BB
:100EA0000DE000F078FAC8B928882168C0F308007E
:100EB0004860206908B16D1C05E0AD1C03E02168A5
:100EC00015F8010B4860E08C0028D8D14B46002271
:100ED00040212046009700F05EFA08B10320CCE7DD
:100EE000202084F839000020C7E70220C5E77047BA
:100EF000FEE7000006490A68521C0A60824206DBCF
:100F0000002008604FF400510248FFF7E7BA70472D
:100F1000140000200008024070B586B01421684615
:100F2000FFF786F91A480024016841F004010160C6
:100F3000016801F004010591016841F08001016040
:100F4000016801F080010591016841F00101016033
:100F50000068104E00F001004FF40055059000228B
:100F600029463046FFF7C1FA01200095CDE901047A
:100F7000694630460394FFF7D5F9A800CDE900048F
:100F8000694605480294FFF7CDF906B070BD000030
:100F90003038024000080240000002400C4810B502
:100FA0000A4901604FF4E1314160002181600C2267
:100FB000C160C0E904128161C161FFF773FE0028BE
:100FC00003D0BDE81040FFF787B910BD0010014005
:100FD000240000200C4810B50A4901604FF4E131AB
:100FE0004160002181600C22C160C0E9041281616E
:100FF000C161FFF757FE002803D0BDE81040FFF79E
:101000006BB910BD0044004064000020FEE770474B
:10101000704700002DE9F84357208DF800004FF489
:101020007A7800244346012269460E48FFF702FF02
:101030000D4D00272E463078752801D06F6002E0F4
:101040006868032806D04346012269460548FFF731
:10105000F1FEF0E76F60B078022800D17478204686
:10106000BDE8F883640000201800002070470000ED
:1010700008B557208DF800004FF47A7301226946B5
:101080000648FFF7D7FE06490A4650680144401C4F
:10109000506001220148FFF795FE08BD6400002062
:1010A00018000020FFF72CBA30B593B03021684605
:1010B000FFF7BEF814210CA8FFF7BAF8194800256D
:1010C000016841F080510160006800F0805011908B
:1010D0001548016841F4804101600068022400F471
:1010E0008040119001200090000401908001CDE922
:1010F000064008AA0420A82182E813000B90684645
:10110000FFF782FB0CA90F2081E831004FF4A050BB
:101110000F90E002109005210CA8FFF78BFA13B096
:1011200030BD0000403802400070004005480168B2
:1011300041F47001016003494FF00060803908609C
:101140007047000088ED00E010B5806B0021C1857C
:10115000C184FFF71BFD10BD0168CA6822F49072BC
:10116000CA6001684A6922F001024A61202180F8C0
:101170003A10704710B590F83A10222901D0022099
:1011800010BD8168B1F5805F11D001690029016847
:101190001FD0496801F07F03816A4A1C82620B708C
:1011A000C18D491E0904090CC18518D02BE00269C4
:1011B000816A002A0268526805D0D2B20A80816A28
:1011C000491C8162ECE7C2F308020A80816A891C2B
:1011D000F7E74A68816A4B1C83620A70E0E701689E
:1011E000CA6822F02002CA600168CA6822F48072CC
:1011F000CA6001684A6922F001024A61202180F830
:101200003A10FFF709FE002010BD00002DE9F04163
:10121000044600680169E26821F44051114301610C
:101220002169A068E26908436169114308432168A4
:10123000CA6849F20C639A430243CA602068416954
:10124000A26921F4407111434161E06919276425C5
:101250003226B0F5004F354A354920684FF0000876
:1012600006D0884201D0904236D1FFF78DFA35E0A2
:10127000884201D0904202D1FFF786FA01E0FFF7E1
:1012800073FA61684A18A0FB070148EB0803FEF7F0
:1012900097FF0146B0FBF5F00201B1FBF5F06FF0EE
:1012A0001803584301EB800006EBC000B0FBF5F0DB
:1012B00000F0F80002EB4002B1FBF5F0584301EBFF
:1012C000800006EBC000B0FBF5F000F007002168DD
:1012D00010448860BDE8F081FFF746FA61688B0F23
:1012E0008A00A0FB0701FEF76BFF0146B0FBF5F09B
:1012F0006FF01802504301EB800006EB0010B0FBCA
:10130000F5F000F0F002B1FBF5F002EB0012B1FBDA
:10131000F5F06FF01803584301EB800006EB001066
:10132000B0FBF5F000F00F00D1E700000014014021
:101330000010014090F83910212901D00220704797
:101340008168B1F5805F016A0BD04A1C02620268B5
:1013500009785160C18C491E0904090CC1840ED062
:1013600017E009880268C1F308015160016900298A
:10137000016A02D0491C0162ECE7891CFBE70168A5
:10138000CA6822F08002CA600068C16841F040016A
:10139000C160002070472DE9F041984617460E467F
:1013A0000446069D1DE0681C1BD02DB1FFF7A2F876
:1013B000A0EB0800A84214D92068C16821F4D071BC
:1013C000C1602068416921F001014161202084F859
:1013D000390084F83A00002084F838000320BDE882
:1013E000F0812068006836EA000004D00020B8428E
:1013F000D9D00020F3E70120F9E700000148FFF70A
:10140000C7BB000064000020FEE700000FB4054BDE
:1014100010B503A9044A029800F028F810BC5DF842
:1014200014FB0000C1150008200000200907090E68
:10143000002804DB00F1E02080F80014704700F081
:101440000F0000F1E02080F8141D704702E008C88A
:10145000121F08C1002AFAD170477047002001E02E
:1014600001C1121F002AFBD1704700002DE9FF4F78
:1014700089B09B460446002506E025280BD05A4635
:101480000B999047641C6D1C20780028F5D10DB095
:101490002846BDE8F08F0027B8460122474900E002
:1014A000074314F8013F203B02FA03F00842F7D14A
:1014B00020782E2819D114F8010F47F004072A28A4
:1014C0000ED06FF02F022078A0F1300109290CD83E
:1014D00008EB880102EB410100EB0108641CF2E714
:1014E0000A98641C50F8048B0A9020780028CED00B
:1014F000642808D0692806D075281ED05A460B9952
:1015000090476D1C58E00A994FF00A0901C90A91E9
:10151000002802DA40422D2102E0390504D52B21B2
:101520008DF82010012103E0F90704D02021F7E70E
:101530008A4608AE0DE00021FAE70A994FF00A0941
:1015400001C90A91F7E74946FEF77DFE303106F8FA
:10155000011D0028F7D1ADEB060000F12009780746
:1015600001D44FF00108C84502DDA8EB090000E0F6
:1015700000208046002706E008A85A46C05D0B9967
:1015800090476D1C7F1C5745F6DB04E030205A461F
:101590000B9990476D1CB8F10001A8F10108F5DC2A
:1015A00005E016F8010B5A460B9990476D1CB9F1EE
:1015B0000001A9F10109F4DC641C65E709280100B8
:1015C00013B54FF6FF73012269460248FFF732FC5C
:1015D00000981CBD24000020FEF79AFFFFF764FD71
:1015E000FFF79AFCFFF7DAFCFFF7F4FCFFF740FD8A
:1015F000104D114C4FF4FA763046FEF781FEFFF79E
:1016000009FD286021780DA0FFF700FF61780BA08D
:10161000FFF7FCFEA17809A0FFF7F8FE07A02968F4
:10162000FFF7F4FE07A0FFF7F1FE0120FFF762FCD1
:10163000E2E70000000000201800002025640D0AE9
:10164000000000000D0A0000000000000000000083
:101650000102030406070809000000000102030458
:101660008016000800000020240000004C14000830
:10167000A416000824000020840400005C14000864
:101680000000000001000000100000000000000049
:101690000024F40000000000000000000000000032
:0416A0000000000046
:040000050800018965
:00000001FF
