:020000040800F2
:10000000D80400209D0100084F110008E30F0008EC
:100010004D110008A9020008511700080000000057
:10002000000000000000000000000000C9110008EE
:10003000AB0200080000000051110008391200084E
:10004000B7010008B7010008B7010008B7010008B0
:10005000B7010008B7010008B7010008B7010008A0
:10006000B7010008B7010008B7010008B701000890
:10007000B7010008B7010008B7010008B701000880
:10008000B7010008B7010008B7010008B701000870
:10009000B7010008B7010008B7010008B701000860
:1000A000B7010008B7010008B7010008B701000850
:1000B000B7010008B7010008B7010008B701000840
:1000C000B7010008B7010008B7010008B701000830
:1000D000B7010008B7010008B701000821170008A0
:1000E000B7010008B7010008B7010008B701000810
:1000F000B7010008B7010008B7010008B701000800
:10010000B7010008B7010008B7010008B7010008EF
:10011000B7010008B7010008B7010008B7010008DF
:10012000B7010008B7010008B7010008B7010008CF
:10013000B7010008B7010008B7010008B7010008BF
:10014000B7010008B7010008B7010008B7010008AF
:10015000B7010008B7010008B7010008B70100089F
:10016000B7010008B7010008B7010008B70100088F
:10017000B7010008B7010008B7010008000000003F
:10018000B7010008B7010008DFF80CD000F07AF8DA
:1001900000480047DD170008D804002006488047C3
:1001A00006480047FEE7FEE7FEE7FEE7FEE7FEE75C
:1001B000FEE7FEE7FEE7FEE7C1120008890100083E
:1001C0002DE9F05F0546002092469B46884606468C
:1001D000814640241BE0284641464746224600F01F
:1001E00041F853465A46C01A914110D31146184659
:1001F000224600F028F82D1A67EB01084F462246E8
:100200000120002100F01FF817EB00094E41201ECD
:10021000A4F10104DFDC484631462A464346BDE8E6
:10022000F09FD2B201E000F8012B491EFBD27047CB
:100230000022F6E710B513460A4604461946FFF7B2
:10024000F0FF204610BD202A04DB203A00FA02F11C
:10025000002070479140C2F1200320FA03F31943B4
:1002600090407047202A04DB203A21FA02F0002156
:10027000704721FA02F3D040C2F1200291400843B6
:1002800019467047064C074D06E0E06840F0010350
:1002900094E8070098471034AC42F6D3FFF778FF94
:1002A0005419000874190008FEE7704770470000F1
:1002B00070B5044600F0EAF80546601C02D0044818
:1002C0000078044400F0E2F8401BA042FAD370BD6D
:1002D000040000202DE9F84F00224FF0010803250B
:1002E0004FF00F0E0B6808FA02F42340A3426ED1C0
:1002F0004E68012E05D0022E03D0112E01D0122EF1
:1003000012D186684FEA420C05FA0CF7BE43CF685B
:1003100007FA0CF7374387604668A6430C79C4F3A5
:100320000014944034434460C668570005FA07FC43
:100330008C6826EA0C06BC403443C4604C68022C2E
:1003400001D0122C13D1D40800EB8404A346D4F8B6
:10035000209054074FEAD46A0EFA0AF629EA0609F1
:100360000E6906FA0AF646EA0906CBF82060066826
:100370000C7926EA0C0604F00304BC403443046004
:100380004C68E40065D5364C266846F48046266005
:10039000246822F0030604F480440094314C344471
:1003A000A446D4F808489607370F0EFA07F6B44368
:1003B0002D4EB04201D1002624E02C4EB04201D196
:1003C00001261FE02A4EB04202D102261AE040E088
:1003D000284EB04201D1032614E0274EB04201D18D
:1003E00004260FE0254EB04201D105260AE0244E36
:1003F000B04201D1062605E0224EB04201D10726C7
:1004000000E00826BE402643CCF808681E4E34683B
:100410004F689C43FF0300D51C4334601A4C241DD5
:1004200026684F689E43BF0300D51E432660164EC4
:10043000083634684F689C43FF0200D51C43346083
:10044000114E0C3634684F689C43BF0200D51C43E4
:100450003460521C102AFFF445AFBDE8F88F00004D
:1004600044380240003001400000024000040240D5
:1004700000080240000C024000100240001402403C
:1004800000180240001C0240003C01400148806806
:10049000704700000400002002488168027811447F
:1004A00081607047040000200B4810B5016841F4DA
:1004B00000710160016841F480610160016841F4EC
:1004C00080710160032000F061F8002000F006F860
:1004D00000F024F8002010BD003C024070B50D4D26
:1004E00004464FF47A712878B1FBF0F00A490968A4
:1004F000B1FBF0F000F0F4FA48B9102C07D200225A
:100500002146501E00F022F800206C6070BD0120D2
:1005100070BD000004000020100000200A4808B54B
:10052000016841F480410160006800F4804000905F
:100530000548001F016841F080510160006800F02B
:100540008050009008BD000044380240F0B40E4BCB
:100550001B680C46C3F30223C3F10705042D00D921
:100560000425191D072901D2002300E0DB1E012606
:1005700006FA05F1491E214099409E40761E16401C
:100580003143F0BC01F0EEB80CED00E0064900F09C
:10059000070208684FF6FF03184040EA0220034AAA
:1005A00010430860704700000CED00E00000FA0501
:1005B0002DE9F0470E46050065D0DFF81481D8F824
:1005C0000000F7B200F00F00B04207D288F80070C8
:1005D000D8F8000000F00F00B04254D128683D4C1C
:1005E000810712D5400703D5206840F4E050206011
:1005F0002878000703D5206840F460402060206818
:10060000A96820F0F000084320602878C0072DD0AA
:10061000304968680839012812D0022813D003280D
:1006200011D00968890700292DDA216821F003011A
:1006300001432160FFF72AFF814641F2883A0EE02C
:1006400009688903EFE709688901ECE7FFF71EFFF6
:10065000A0EB0901514502D90320BDE8F0872068CD
:10066000696800F00C00B0EB810FEFD1D8F80010F2
:10067000404601F00F01B14207D90770006800F051
:100680000F00B04201D00120E7E72878400705D5E8
:100690002068E96820F4E0500843206028780007CB
:1006A00006D52068296920F4604040EAC100206036
:1006B00000F038F82168084AC1F30311515CC840C2
:1006C0000649086006480068FFF708FF0020C4E7F5
:1006D000003C0240083802403C190008100000208D
:1006E000080000200448054900680968044AC1F36D
:1006F0008221515CC8407047100000200838024039
:100700004C1900080448054900680968044AC1F307
:100710004231515CC8407047100000200838024048
:100720004C190008154810B5006810F00C02144868
:1007300013D04110042A0FD0082A0ED10F4C241FC9
:100740002268236802F03F025B0207D52068C0F3ED
:100750008810A0FB010106E0084610BD2168C1F326
:100760008811A1FB00010023FFF72AFD2168C1F3D6
:100770000141491C4900B0FBF1F010BD08380240AE
:100780000024F4002DE9F84F04006ED02078DFF843
:100790003C93C007A9F104054AD009F1040001689F
:1007A000C1F38101012908D00068C0F3810002284B
:1007B0000AD1D9F80000400206D52868800337D551
:1007C00060680028E1D033E06068B0F5803F10D069
:1007D000B0F5A02F286810D020F480302860286859
:1007E00020F4802028606068A8B1FFF74FFE06461D
:1007F0000DE0286840F48030F4E740F48020286061
:10080000F7E700BFFFF742FE801B642873D8286813
:100810008003F7D50CE0FFF739FE064605E000BF80
:10082000FFF734FE801B6428F0D828688003F7D4D3
:100830002078DFF89C8280074FF0000A3ED5A3485D
:10084000001D016811F00C0F08D00068C0F3810092
:1008500002280BD1D9F80000400207D4286880078D
:1008600016D5E068012800D112E02BE1E068B8B1AC
:100870000120C8F80000FFF709FE064605E000BFAA
:10088000FFF704FE801B0228C0D828688007F7D530
:100890002868216920F0F80040EAC10028600DE0D6
:1008A000C8F800A0FFF7F2FD064604E0FFF7EEFDF2
:1008B000801B02281FD828688007F7D420780007FB
:1008C00022D5824E83486169703671B10121016081
:1008D000FFF7DCFD074604E0FFF7D8FDC01B022848
:1008E00009D830688007F7D50EE0C0F800A0FFF700
:1008F000CDFD074605E082E0FFF7C8FDC01B0228DA
:100900007DD830688007F7D42078400768D5DFF8B5
:10091000BCB100270BF13C0BDBF80000C0000BD48E
:10092000DBF8001041F08051CBF80010DBF800003C
:10093000012700F080500090674E3068C00510D449
:10094000306840F480703060FFF7A0FD009005E053
:10095000FFF79CFD0099401A022850D83068C00566
:10096000F6D55A4EA0686C3601280FD0052830689D
:1009700010D020F001003060306820F004003060BA
:10098000A068B8B1FFF782FD00900FE0306840F03A
:100990000100F4E740F004003060F7E7FFF776FD70
:1009A0000099411A41F28830814266D83068800748
:1009B000F4D50EE0FFF76AFD009007E0FFF766FD53
:1009C0000099411A41F28830814256D83068800738
:1009D000F4D42FB1DBF8001021F08051CBF80010D7
:1009E000A069C8B33949091D0968C1F38101022909
:1009F0004AD00228504607D0C8F8600000E03CE02A
:100A0000FFF744FD04463BE04746C8F86000FFF7A7
:100A10003DFD064605E000BFFFF738FD801B0228BC
:100A20002BD828688001F7D4D4E907010843A16ACC
:100A30002A4A490802EB0141626A41EA82110843ED
:100A400094F82C1040EA0161C9F8001001203866C2
:100A5000FFF71CFD044606E036E000BFFFF716FD79
:100A6000001B022809D828688001F7D52CE000BFB8
:100A7000FFF70CFD001B022802D90320BDE8F88F08
:100A800028688001F4D41FE00128F7D0D9F80000CD
:100A9000E26900F48001914214D1226A00F03F0122
:100AA00091420FD147F6C071626A0140914209D16B
:100AB000A26A00F44031914204D1E16A00F0706012
:100AC000884201D00120D9E70020D7E7043802404E
:100AD00000004742800E4742007000400000FFFFC8
:100AE00010B5401EB0F1807F01D3012010BD4FF042
:100AF000E02460610F21601700F034FE0020A06147
:100B000007202061002010BD70B590F83C20012A1C
:100B100032D0012480F83C40022280F83D20036856
:100B20005A689D6822F070060A6832435A60134B77
:100B300002689A4214D0B2F1804F11D0104B9A4201
:100B40000ED0104B9A420BD00F4B9A4208D00F4B4D
:100B50009A4205D00E4B9A4202D00E4B9A4204D1D3
:100B6000496825F080031943916080F83D400021D9
:100B700080F83C10084670BD022070BD00000140A6
:100B80000004004000080040000C00400004014048
:100B9000004001400018004010B5040003D094F854
:100BA0003D0010B107E0012010BD002084F83C009A
:100BB000204600F00DF8022084F83D00211D206839
:100BC00000F08CFB012084F83D00002010BD0000E7
:100BD00008B50068B0F1804F08D10548016841F0C0
:100BE00001010160006800F00100009008BD0000F4
:100BF0004038024070B5044690F83C00012817D0F8
:100C0000012584F83C50022084F83D002068826869
:100C100022F0770222F47F4282600868502830D0A8
:100C20000DDC20284DD005DC98B310283BD148E0DE
:100C3000022070BD302844D0402834D139E06028EB
:100C400028D0702806D0B0F5805F2CD0B0F5005FBA
:100C500029D10AE0CB68D1E90121206800F0A2FB8C
:100C60002068816841F0770109E0CB68D1E9012172
:100C7000206800F097FB2068816841F48041816022
:100C800011E0CA684968206800F060FC50212068C3
:100C900007E016E0CA684968206800F068FC602137
:100CA000206800F089FB84F83D50002084F83C0067
:100CB00070BDCA684968206800F048FC402120687F
:100CC000EFE7226801461046EBE7000010B586B05A
:100CD000044614216846FFF7ABFA2068B0F1804F54
:100CE00014D10B480021026842F001020260006842
:100CF000022200F00100059001200090CDE90121C1
:100D0000CDE9031069460348FFF7E4FA06B010BDC9
:100D1000303802400000024070B5044690F83C00B4
:100D20000D4601280DD0012684F83C60022084F88D
:100D30003D0042B1042A18D0082A2AD00C2A4DD1ED
:100D400039E0022070BD206800F03EFB2068816918
:100D500041F0080181612068816921F0040181610D
:100D6000206881692A69114311E0206800F05CFB6A
:100D70002068816941F4006181612068816921F402
:100D800080618161206881692A6941EA022181616B
:100D900024E0206800F07EFB2068C16941F0080172
:100DA000C1612068C16921F00401C1612068C16985
:100DB0002A69114311E0206800F0A0FB2068C16996
:100DC00041F40061C1612068C16921F48061C161A1
:100DD0002068C1692A6941EA0221C16184F83D6045
:100DE000002084F83C0070BD10B5040003D094F8D6
:100DF0003D0010B107E0012010BD002084F83C0048
:100E0000204600F00CF8022084F83D00211D2068E7
:100E100000F064FA012084F83D00002010BD704706
:100E200010F8391F40780843704770B5040004D0AB
:100E300094F83900002510B106E0012070BD84F857
:100E40003850204600F022F8242084F83900206829
:100E5000C16821F40051C160204600F09BFB20686E
:100E6000016921F4904101612068416921F02A0162
:100E700041612068C16841F40051C160E5632020F0
:100E800084F8390084F83A00002070BDF0B587B0CE
:100E9000044614216846FFF7CBF91F4F2368002250
:100EA0001E490224032507261D48BB4213D11B4BB4
:100EB00014331F6847F010071F601B6803F010030E
:100EC00005930B6843F001030B60096801F0010111
:100ED0000591690215E0134FBB421AD10F4B103335
:100EE0001F6847F400371F601B6803F40033059345
:100EF0000B6843F001030B60096801F001010591E3
:100F00000C21CDE9001402AB694683E86400FFF7C9
:100F1000E1F907B0F0BD0000001001403038024098
:100F200000000240004400402DE9F843044690F8D8
:100F300039001F4616460D46202850D1B5B1AEB136
:100F400094F8380001284AD0012084F838004FF086
:100F50000008C4F83C80212084F83900FFF796FA95
:100F6000A6848146E68484F8388026E00120BDE826
:100F7000F883E08C401EE084A0684B46B0F5805FAB
:100F80004FF000024FF080012046009703D000F0A0
:100F900095FBE8B90DE000F091FBC8B928882168FD
:100FA000C0F308004860206908B16D1C05E0AD1C65
:100FB00003E0216815F8010B4860E08C0028D8D1C7
:100FC0004B46002240212046009700F077FB08B1F5
:100FD0000320CCE7202084F839000020C7E7022056
:100FE000C5E7FEE700B587B014216846FFF720F992
:100FF00012480021026842F080020260026802F09A
:1010000080020592026842F001020260026802F06A
:1010100001020592026842F010020260006802912B
:1010200000F0100005904FF47C50CDE900016946B6
:101030000348FFF74FF907B000BD00003038024009
:101040000010024010B58EB0002407940894099453
:101050000A940B941C2168460C94FFF7E9F81E488B
:101060004FF080410160A721C0E9011440F2E7314F
:10107000C0E903148461FFF78FFD08B1FFF716F98B
:101080004FF48050079007A91348FFF7B3FD08B14C
:10109000FFF70CF91048FFF7A7FE08B1FFF706F9B4
:1010A0000B940BA90C480C94FFF72EFD08B1FFF729
:1010B000FDF86020CDE9000402940022694606484C
:1010C0000494FFF729FE08B1FFF7F0F80248FFF794
:1010D000FDFD0EB010BD0000180000200C4810B53A
:1010E0000A4901604FF4E1314160002181600C2226
:1010F000C160C0E904128161C161FFF796FE00285A
:1011000003D0BDE81040FFF7D1B810BD001001407A
:10111000580000200C4810B50A4901604FF4E13135
:101120004160002181600C22C160C0E9041281612C
:10113000C161FFF77AFE002803D0BDE81040FFF739
:10114000B5B810BD0044004098000020FEE770478D
:10115000704700002DE9F8430024194D57208DF801
:1011600000002868A0460168C9430906FBD40A2389
:10117000012269461248FFF7D7FE2868114D002664
:101180006F1C0168C9434906FBD43878752801D023
:101190002E7002E0287803280AD0C820FFF788F8CC
:1011A000641CE4B2052CF0D12E704046BDE8F883F3
:1011B0002E70B8780228F8D197F80180F5E7000082
:1011C00098000020000000207047000038B5194C3E
:1011D0004C208DF8000020680168C9430906FBD443
:1011E0000A23012269461348FFF79EFE2068016822
:1011F000C9434906FBD40168C9430906FBD40A2345
:10120000012269460B48FFF78FFE20680168C94339
:101210004906FBD40168C9430906FBD40A2301220D
:1012200069460448FFF780FE20680168C943490603
:10123000FBD438BD98000020FFF72EB930B593B02D
:1012400030216846FEF7F4FF14210CA8FEF7F0FFEA
:1012500019480025016841F080510160006800F0E4
:10126000805011901548016841F480410160006888
:10127000022400F4804011900120009000040190AD
:101280008001CDE9064008AA0420A82182E81300C5
:101290000B906846FFF776FA0CA90F2081E8310021
:1012A0004FF4A0500F90E002109005210CA8FFF71A
:1012B0007FF913B030BD000040380240007000409C
:1012C0000548016841F47001016003494FF0006076
:1012D000803908607047000088ED00E0F0B50268D2
:1012E000254C264D264E274F274B4FF0804CA042D1
:1012F00009D0604507D0A84205D0B04203D0B8421B
:1013000001D0984204D122F0700E4A6842EA0E02DF
:10131000A0421BD0604519D0A84217D0B04215D0CA
:10132000B84213D0984211D0184DA8420ED0184D93
:10133000A8420BD0174DA84208D0174DA84205D09F
:10134000164DA84202D0164DA84203D122F4407592
:10135000CA682A434D6922F080022A4302608A68E3
:10136000C2620A688262A04201D0984201D1096932
:10137000016301214161F0BD000001400004004013
:1013800000080040000C0040000401400040014003
:10139000004401400048014000180040001C00408B
:1013A0000020004010B5846842EA032224F47F4400
:1013B0000A432243826010BD826822F070020A4311
:1013C00042F0070181607047F0B5026A22F0010225
:1013D0000262036A42688469124E24F073050C6845
:1013E0002C4323F002058B682B430D4DA84201D0FE
:1013F000B04205D123F00807CB683B4323F0040338
:10140000A84201D0B04205D14D6922F44072154383
:101410008A692A4342608461496841630362F0BD7E
:101420000000014000040140F0B5026A22F0100201
:101430000262026A436884690D6824F4E64444EA5F
:1014400005248D6822F0200242EA05120F4D104E4D
:10145000A84201D0B04206D1CF6822F0800242EA11
:10146000071222F04002A84201D0B04207D14D69D4
:1014700023F4406343EA85038D6943EA85034360AF
:101480008461496881630262F0BD00000000014090
:1014900000040140F0B5026A22F480720262026A1E
:1014A0004368C46922F4007224F073050C68124E7C
:1014B0002C438D6842EA05220E4DA84201D0B0426D
:1014C00006D1CF6822F4006242EA072222F4806249
:1014D000A84201D0B04207D14D6923F4405343EAFA
:1014E00005138D6943EA05134360C4614968C1630C
:1014F0000262F0BD000001400004014030B5026A04
:1015000022F480520262046A4268C3690D6823F4BF
:10151000E64343EA05238D6824F4005444EA053485
:10152000084DA84202D0084DA84204D14D6922F4CA
:10153000804242EA85124260C361496801640462E4
:1015400030BD0000000001400004014010B5036AF6
:10155000046A24F001040462846924F0F00444EA7B
:10156000021423F00A020A438461026210BD10B51E
:10157000036A23F0100303628369046A23F470434F
:1015800043EA023224F0A00343EA011182610162BE
:1015900010BD00002DE9F041044600680169E268D1
:1015A00021F44051114301612169A068E2690843B7
:1015B0006169114308432168CA6849F20C639A4380
:1015C0000243CA6020684169A26921F44071114355
:1015D0004161E069192764253226B0F5004F354A8C
:1015E000354920684FF0000806D0884201D090426B
:1015F00036D1FFF787F835E0884201D0904202D11A
:10160000FFF780F801E0FFF76DF861684A18A0FB6A
:10161000070148EB0803FEF7D3FD0146B0FBF5F0E8
:101620000201B1FBF5F06FF01803584301EB8000A5
:1016300006EBC000B0FBF5F000F0F80002EB400252
:10164000B1FBF5F0584301EB800006EBC000B0FBA6
:10165000F5F000F00700216810448860BDE8F081D3
:10166000FFF740F861688B0F8A00A0FB0701FEF7C7
:10167000A7FD0146B0FBF5F06FF01802504301EBF7
:10168000800006EB0010B0FBF5F000F0F002B1FBBB
:10169000F5F002EB0012B1FBF5F06FF018035843C0
:1016A00001EB800006EB0010B0FBF5F000F00F003E
:1016B000D1E7000000140140001001402DE9F04185
:1016C000984617460E460446069D1DE0681C1BD032
:1016D0002DB1FEF7DBFEA0EB0800A84214D920686C
:1016E000C16821F4D071C1602068416921F0010115
:1016F0004161202084F8390084F83A00002084F801
:1017000038000320BDE8F0812068006836EA000058
:1017100004D00020B842D9D00020F3E70120F9E737
:1017200008B50948FFF77CFB20280BD06423012271
:1017300069460548FFF7F8FB044B5A1E11785854C8
:10174000491C117008BD0000980000200100002015
:10175000FEE70000014A024900F023B8C51700085F
:10176000140000200907090E002804DB00F1E02026
:1017700080F80014704700F00F0000F1E02080F8BE
:10178000141D704702E008C8121F08C1002AFAD1D0
:1017900070477047002001E001C1121F002AFBD1F1
:1017A00070472DE9F04116460F460446002503E038
:1017B0003946B047641C6D1C20780028F8D12846B3
:1017C000BDE8F08113B54FF6FF7301226946024868
:1017D000FFF7AAFB00981CBD580000202AA0FFF7C5
:1017E000B9FFFEF761FEFFF729FDFFF7FBFBFFF7EF
:1017F00029FCFFF773FCFFF78DFC01210846FFF77A
:10180000E5FC00BFFFF7A6FCEF282CD010DCBF28BA
:1018100031D006DC3F2830D07F2830D09F2814D12B
:1018200027E0CF2821D0DF2821D0E7280DD118E0EC
:10183000F3380C2809D2DFE800F010080808120875
:101840000C080E080A0610A01AE012A018E014A056
:1018500016E016A014E018A012E01AA010E01CA0D8
:101860000EE01EA00CE020A00AE022A008E024A0C8
:1018700006E026A004E028A002E02AA000E02CA0B8
:10188000FFF768FFBEE700003131313120313131DF
:10189000300D0A003131313120313130300D0A0044
:1018A0003131313120313130310D0A0031313131B6
:1018B00020313030310D0A003131313120313031B9
:1018C000310D0A003131313120303031310D0A0013
:1018D0003131313120303131310D0A003131313087
:1018E00020303131310D0A00313131302031313188
:1018F000310D0A003131303020313131310D0A00E3
:101900003131303120313131310D0A003130303157
:1019100020313131310D0A00313031312031313156
:10192000310D0A003030313120313131310D0A00B2
:101930003031313120313131310D0A0000000000E9
:10194000000000000102030406070809000000006F
:1019500001020304741900080000002018000000B0
:10196000841700088C19000818000020C00400002B
:1019700094170008000000000100000010000000A3
:0C198000000000000024F4000000000043
:040000050800018965
:00000001FF
