:020000040800F2
:10000000880400209D01000863120008F91100080F
:1000100061120008DD070008351400080000000028
:10002000000000000000000000000000671200084F
:10003000B9080008000000006512000869120008F5
:10004000B7010008B7010008B7010008B7010008B0
:10005000B7010008B7010008B7010008B7010008A0
:10006000B7010008B7010008B7010008B701000890
:10007000B7010008B7010008B7010008B701000880
:10008000B7010008B7010008B7010008B701000870
:10009000B7010008B7010008B7010008B701000860
:1000A000B7010008B7010008B7010008B701000850
:1000B000B7010008B7010008B7010008B701000840
:1000C000B7010008B7010008B7010008B701000830
:1000D000B7010008B7010008B7010008B701000820
:1000E000B7010008B7010008B7010008B701000810
:1000F000B7010008B7010008B7010008B701000800
:10010000B7010008B7010008B7010008B7010008EF
:10011000B7010008B7010008B7010008B7010008DF
:10012000B7010008B7010008B7010008B7010008CF
:10013000B7010008B7010008B7010008B7010008BF
:10014000B7010008B7010008B7010008B7010008AF
:10015000B7010008B7010008B7010008B70100089F
:10016000B7010008B7010008B7010008B70100088F
:10017000B7010008B7010008B7010008000000003F
:10018000B7010008B7010008DFF80CD000F068FAEA
:100190000048004755220008880400200648804790
:1001A00006480047FEE7FEE7FEE7FEE7FEE7FEE75C
:1001B000FEE7FEE7FEE7FEE7F1120008890100080E
:1001C0002DE9F05F0546002092469B46884606468C
:1001D000814640241BE0284641464746224600F01F
:1001E00089F953465A46C01A914110D31146184610
:1001F000224600F070F92D1A67EB01084F4622469F
:100200000120002100F067F917EB00094E41201E84
:10021000A4F10104DFDC484631462A464346BDE8E6
:10022000F09FD2B201E000F8012B491EFBD27047CB
:100230000022F6E710B513460A4604461946FFF7B2
:10024000F0FF204610BD2DE9FE4F804681EA0300F5
:10025000C00F0C46009021F0004123F00045B8EBA0
:100260000200A94105D24046214690461C460B4655
:10027000024623F00040104347D0270DC7F30A0081
:10028000C3F30A510290401A019040286BDAC3F37D
:10029000130040F4801B0098924620B10023D2EB5B
:1002A000030A63EB0B0B01985946C0F1400250461C
:1002B00000F011F906460D4650465946019A00F0E5
:1002C00029F910EB08006141002487EA115284EA01
:1002D000E7731A4340D0009A62B3019A012A4FEAA9
:1002E000075215DC001B61EB02014FF0004202EAED
:1002F0000752CDE90042001C41F5801132462B46E1
:1003000000F060F903B0BDE8F08F40462146F9E700
:10031000001B61EB0201001C41F5801300185B41DA
:100320002018A2F5001747EB030140EAD570B61973
:100330006D4111E06D084FEA360645EAC0754FEA97
:100340000752001B61EB0201001C41F580114908B6
:100350004FEA30000019514132462B4603B0BDE848
:10036000F04F00F020B90098012240000023D0EBAC
:10037000020263EBE073009821464FEAE074B8EBA9
:10038000000061EB0401E9E783F000435BE781F0E3
:10039000004158E72DE9FE4F81EA030404F00044D0
:1003A00021F0004100944FF0000B23F0004350EA8D
:1003B00001045ED052EA03045BD0C3F30A54C1F3D4
:1003C0000A552C44A4F2F3340194A0FB0254C1F367
:1003D000130141F48011C3F3130343F4801301FBB1
:1003E000024400FB034E840A970A44EA815447EA18
:1003F0008357A4FB076802958D0A05FB07854FEA22
:10040000932C04FB0C542705029D4FEA065847EA3B
:100410001637B5EB08056EEB070C870E920E47EA10
:10042000811742EA8312A7FB0201B6EB0B0164EBD2
:1004300000042B0D43EA0C335E1844EB1C50DA46E3
:100440005146E7FB0201C5F313044FEA0B3343EABD
:1004500014534FEA0432019C43EA0603A4F10C044E
:100460000294009CCDE900B400F0ACF803B0BDE804
:10047000F08F00200146F9E700F0004230F0004024
:100480000AD0C10D01F56071C0F3160042EA0151B6
:10049000C20840071143704700200146704701F031
:1004A000004330B421F0004150EA010206D00A0DA9
:1004B000A2F56072C1F31301002A02DC30BC0020F7
:1004C0007047440F44EAC104C100E01830BC00EB9F
:1004D000C25000F031B8202A04DB203A00FA02F1C1
:1004E000002070479140C2F1200320FA03F3194322
:1004F00090407047202A04DB203A21FA02F00021C4
:10050000704721FA02F3D040C2F120029140084323
:1005100019467047202A06DBCB17203A41FA02F031
:1005200043EAE07306E041FA02F3D040C2F1200250
:1005300091400843194670470029A8BF7047401CE6
:10054000490008BF20F00100704710B4B0FA80FCE9
:1005500000FA0CF050EA010404BF10BC704749B126
:10056000CCF1200421FA04F411FA0CF118BF012196
:1005700021430843A3EB0C01CB1D4FEA00614FEA76
:10058000102042BF002010BC704700EBC350104445
:100590000029A4BF10BC7047401C490008BF20F0D0
:1005A000010010BC704710B5141E73F1000408DA86
:1005B000401C41F1000192185B411A4301D120F027
:1005C000010010BD2DE9F04D92469B4611B1B1FAE4
:1005D00081F202E0B0FA80F220329046FFF77BFF12
:1005E00004460F4640EA0A0041EA0B0153465A46C8
:1005F000084313D0114653EA010019D0C8F1400254
:100600005046FFF777FF05460E465046594642468C
:10061000FFF761FF084305D0012004E0204639467A
:10062000BDE8F08D0020054346EAE0762C433743D1
:100630000A986305E40AA0EB08000022FD0A44EAD8
:1006400047540A3002D500200146E9E70105101998
:100650006941DDE9084500196941BDE8F04DA2E7AF
:10066000064C074D06E0E06840F0010394E80700FF
:1006700098471034AC42F6D3FFF78AFD7025000886
:10068000902500082DE9F04D81EA030404F0004BA9
:1006900021F0004514464FF0000A23F0004150EAD3
:1006A000050220D054EA01021DD0C5F30A570246C4
:1006B000C5F31303C1F31300C1F30A5640F48015C8
:1006C00043F48013A7EB0608101BD64608F2FD384A
:1006D00073EB050002D308F1010801E092185B41B9
:1006E000B8F1000F03DA00200146BDE8F08D0020CC
:1006F0004FF48011064684460EE0171B73EB050786
:1007000005D3121B63EB050306434CEA010C4908B1
:100710004FEA300092185B4150EA0107EDD152EAEE
:10072000030012D082EA040083EA0501084305D0E1
:10073000101BAB4106D20122002306E000224FF03D
:10074000004302E06FF0010253101AEB06004CEB7D
:10075000085110EB0A0041EB0B01BDE8F04DFFF72B
:1007600022BF0EB5C10F80EAE0700844CA0700211D
:1007700040F233438DE80E000A460B46FFF722FF96
:1007800003B000BD0EB540F2334102910021CDE926
:1007900000110A460B46FFF715FF03B000BD70B508
:1007A000C1F30A5201F000450024C1F3130140F2E5
:1007B000FF3341F480119A4201DA002070BD40F20B
:1007C00033439A42A2F2334203DC5242FFF792FED5
:1007D00000E090402C43F1D0404270BDFEE70000A5
:1007E0000A2839D890B31D4924220B280A7033D225
:1007F000DFE800F032060A0E12161A1E22272D001C
:100800000520487106207047092048720A20704769
:100810000D2048730E207047112048741220704735
:100820001520487516207047192048761A20704701
:100830001D2048771E207047212081F821002220AA
:100840007047252081F825002620704704E02920E4
:1008500081F829002A20F8E70020F6E75C00002054
:1008600001B50A282DED020B12D8002810D00B2854
:100870000ED2DFE800F00D06080E10121416181A3A
:100880001C00012200E005220A49684600F016F823
:100890000EBD0922F8E70D22F6E71122F4E7152232
:1008A000F2E71922F0E71D22EEE72122ECE72522EC
:1008B000EAE700005C0000207047704703788B5423
:1008C000114443784B7082788A70C078C870704742
:1008D00070B5044600F0EAF80546601C02D00448F2
:1008E0000078044400F0E2F8401BA042FAD370BD47
:1008F000080000202DE9F84F00224FF001080325E1
:100900004FF00F0E0B6808FA02F42340A3426ED199
:100910004E68012E05D0022E03D0112E01D0122ECA
:1009200012D186684FEA420C05FA0CF7BE43CF6835
:1009300007FA0CF7374387604668A6430C79C4F37F
:100940000014944034434460C668570005FA07FC1D
:100950008C6826EA0C06BC403443C4604C68022C08
:1009600001D0122C13D1D40800EB8404A346D4F890
:10097000209054074FEAD46A0EFA0AF629EA0609CB
:100980000E6906FA0AF646EA0906CBF82060066800
:100990000C7926EA0C0604F00304BC4034430460DE
:1009A0004C68E40065D5364C266846F480462660DF
:1009B000246822F0030604F480440094314C34444B
:1009C000A446D4F808489607370F0EFA07F6B44342
:1009D0002D4EB04201D1002624E02C4EB04201D170
:1009E00001261FE02A4EB04202D102261AE040E062
:1009F000284EB04201D1032614E0274EB04201D167
:100A000004260FE0254EB04201D105260AE0244E0F
:100A1000B04201D1062605E0224EB04201D10726A0
:100A200000E00826BE402643CCF808681E4E346815
:100A30004F689C43FF0300D51C4334601A4C241DAF
:100A400026684F689E43BF0300D51E432660164E9E
:100A5000083634684F689C43FF0200D51C4334605D
:100A6000114E0C3634684F689C43BF0200D51C43BE
:100A70003460521C102AFFF445AFBDE8F88F000027
:100A800044380240003001400000024000040240AF
:100A900000080240000C0240001002400014024016
:100AA00000180240001C0240003C014001488068E0
:100AB0007047000008000020024881680278114455
:100AC00081607047080000200B4810B5016841F4B0
:100AD00000710160016841F480610160016841F4C6
:100AE00080710160032000F061F8002000F006F83A
:100AF00000F024F8002010BD003C024070B50D4D00
:100B000004464FF47A712878B1FBF0F00A4909687D
:100B1000B1FBF0F000F0F4FA48B9102C07D2002233
:100B20002146501E00F022F800206C6070BD0120AC
:100B300070BD000008000020140000200A4808B51D
:100B4000016841F480410160006800F48040009039
:100B50000548001F016841F080510160006800F005
:100B60008050009008BD000044380240F0B40E4BA5
:100B70001B680C46C3F30223C3F10705042D00D9FB
:100B80000425191D072901D2002300E0DB1E0126E0
:100B900006FA05F1491E214099409E40761E1640F6
:100BA0003143F0BC00F05FBC0CED00E0064900F002
:100BB000070208684FF6FF03184040EA0220034A84
:100BC00010430860704700000CED00E00000FA05DB
:100BD0002DE9F0470E46050065D0DFF81481D8F8FE
:100BE0000000F7B200F00F00B04207D288F80070A2
:100BF000D8F8000000F00F00B04254D128683D4CF6
:100C0000810712D5400703D5206840F4E0502060EA
:100C10002878000703D5206840F4604020602068F1
:100C2000A96820F0F000084320602878C0072DD084
:100C3000304968680839012812D0022813D00328E7
:100C400011D00968890700292DDA216821F00301F4
:100C500001432160FFF72AFF814641F2883A0EE006
:100C600009688903EFE709688901ECE7FFF71EFFD0
:100C7000A0EB0901514502D90320BDE8F0872068A7
:100C8000696800F00C00B0EB810FEFD1D8F80010CC
:100C9000404601F00F01B14207D90770006800F02B
:100CA0000F00B04201D00120E7E72878400705D5C2
:100CB0002068E96820F4E0500843206028780007A5
:100CC00006D52068296920F4604040EAC100206010
:100CD00000F038F82168084AC1F30311515CC8409C
:100CE0000649086006480068FFF708FF0020C4E7CF
:100CF000003C024008380240D423000814000020C1
:100D00000C0000200448054900680968044AC1F342
:100D10008221515CC840704714000020083802400E
:100D2000E42300080448054900680968044AC1F33F
:100D30004231515CC840704714000020083802401E
:100D4000E4230008154810B5006810F00C021448A0
:100D500013D04110042A0FD0082A0ED10F4C241FA3
:100D60002268236802F03F025B0207D52068C0F3C7
:100D70008810A0FB010106E0084610BD2168C1F300
:100D80008811A1FB00010023FFF71AFA2168C1F3C3
:100D90000141491C4900B0FBF1F010BD0838024088
:100DA0000024F4002DE9F84F04006ED02078DFF81D
:100DB0003C93C007A9F104054AD009F10400016879
:100DC000C1F38101012908D00068C0F38100022825
:100DD0000AD1D9F80000400206D52868800337D52B
:100DE00060680028E1D033E06068B0F5803F10D043
:100DF000B0F5A02F286810D020F480302860286833
:100E000020F4802028606068A8B1FFF74FFE0646F6
:100E10000DE0286840F48030F4E740F4802028603A
:100E2000F7E700BFFFF742FE801B642873D82868ED
:100E30008003F7D50CE0FFF739FE064605E000BF5A
:100E4000FFF734FE801B6428F0D828688003F7D4AD
:100E50002078DFF89C8280074FF0000A3ED5A34837
:100E6000001D016811F00C0F08D00068C0F381006C
:100E700002280BD1D9F80000400207D42868800767
:100E800016D5E068012800D112E02BE1E068B8B186
:100E90000120C8F80000FFF709FE064605E000BF84
:100EA000FFF704FE801B0228C0D828688007F7D50A
:100EB0002868216920F0F80040EAC10028600DE0B0
:100EC000C8F800A0FFF7F2FD064604E0FFF7EEFDCC
:100ED000801B02281FD828688007F7D420780007D5
:100EE00022D5824E83486169703671B1012101605B
:100EF000FFF7DCFD074604E0FFF7D8FDC01B022822
:100F000009D830688007F7D50EE0C0F800A0FFF7D9
:100F1000CDFD074605E082E0FFF7C8FDC01B0228B3
:100F20007DD830688007F7D42078400768D5DFF88F
:100F3000BCB100270BF13C0BDBF80000C0000BD468
:100F4000DBF8001041F08051CBF80010DBF8000016
:100F5000012700F080500090674E3068C00510D423
:100F6000306840F480703060FFF7A0FD009005E02D
:100F7000FFF79CFD0099401A022850D83068C00540
:100F8000F6D55A4EA0686C3601280FD00528306877
:100F900010D020F001003060306820F00400306094
:100FA000A068B8B1FFF782FD00900FE0306840F014
:100FB0000100F4E740F004003060F7E7FFF776FD4A
:100FC0000099411A41F28830814266D83068800722
:100FD000F4D50EE0FFF76AFD009007E0FFF766FD2D
:100FE0000099411A41F28830814256D83068800712
:100FF000F4D42FB1DBF8001021F08051CBF80010B1
:10100000A069C8B33949091D0968C1F381010229E2
:101010004AD00228504607D0C8F8600000E03CE003
:10102000FFF744FD04463BE04746C8F86000FFF781
:101030003DFD064605E000BFFFF738FD801B022896
:101040002BD828688001F7D4D4E907010843A16AA6
:101050002A4A490802EB0141626A41EA82110843C7
:1010600094F82C1040EA0161C9F80010012038669C
:10107000FFF71CFD044606E036E000BFFFF716FD53
:10108000001B022809D828688001F7D52CE000BF92
:10109000FFF70CFD001B022802D90320BDE8F88FE2
:1010A00028688001F4D41FE00128F7D0D9F80000A7
:1010B000E26900F48001914214D1226A00F03F01FC
:1010C00091420FD147F6C071626A0140914209D145
:1010D000A26A00F44031914204D1E16A00F07060EC
:1010E000884201D00120D9E70020D7E70438024028
:1010F00000004742800E4742007000400000FFFFA2
:1011000010B5401EB0F1807F01D3012010BD4FF01B
:10111000E02460610F21601700F0A5F90020A061B4
:1011200007202061002010BD70B5040004D094F8A1
:101130003900002510B106E0012070BD84F8385058
:10114000204600F023F8242084F839002068C16884
:1011500021F40051C160204600F0D8F820680169F0
:1011600021F4904101612068416921F02A01416127
:101170002068C16841F40051C160E563202084F813
:10118000390084F83A00002070BD000010B586B028
:10119000044614216846FFF74BF81449206888423A
:1011A00021D113480021026842F010020260006859
:1011B00000F0100005900E481438026842F0010259
:1011C0000260006800F0010005904FF4C0600090DC
:1011D0000220CDE901010320039007200490694615
:1011E0000448FFF787FB06B010BD00000010014067
:1011F0004438024000000240FEE70000094808B5FC
:10120000016841F080010160016801F080010091F6
:10121000016841F001010160006800F001000090E8
:1012200008BD0000303802400C4810B50A49016082
:101230004FF4FA314160002181600C22C160C0E9A5
:1012400004128161C161FFF76FFF002803D0BDE880
:101250001040FFF732BB10BD001001401C00002001
:10126000FEE7704770477047FFF726BC30B593B074
:1012700030216846FEF7DCFF14210CA8FEF7D8FFEA
:1012800019480025016841F080510160006800F0B4
:10129000805011901548016841F480410160006858
:1012A000022400F48040119001200090000401907D
:1012B0008001CDE9064008AA0420A82182E8130095
:1012C0000B906846FFF76EFD0CA90F2081E83100F6
:1012D0004FF4A0500F90E002109005210CA8FFF7EA
:1012E00077FC13B030BD0000403802400070004071
:1012F0000548016841F47001016003494FF0006046
:10130000803908607047000088ED00E02DE9F04169
:10131000044600680169E26821F44051114301610B
:101320002169A068E26908436169114308432168A3
:10133000CA6849F20C639A430243CA602068416953
:10134000A26921F4407111434161E06919276425C4
:101350003226B0F5004F354A354920684FF0000875
:1013600006D0884201D0904236D1FFF7DBFC35E051
:10137000884201D0904202D1FFF7D4FC01E0FFF790
:10138000C1FC61684A18A0FB070148EB0803FEF79F
:1013900017FF0146B0FBF5F00201B1FBF5F06FF06D
:1013A0001803584301EB800006EBC000B0FBF5F0DA
:1013B00000F0F80002EB4002B1FBF5F0584301EBFE
:1013C000800006EBC000B0FBF5F000F007002168DC
:1013D00010448860BDE8F081FFF794FC61688B0FD2
:1013E0008A00A0FB0701FEF7EBFE0146B0FBF5F01B
:1013F0006FF01802504301EB800006EB0010B0FBC9
:10140000F5F000F0F002B1FBF5F002EB0012B1FBD9
:10141000F5F06FF01803584301EB800006EB001065
:10142000B0FBF5F000F00F00D1E700000014014020
:1014300000100140FEE703B401984100009850EA13
:10144000C12018BF04204A0D18BF40F0010040F22F
:10145000FF72B2EB515F08BF40F00200012808BFE5
:10146000052002B070470907090E002804DB00F1CF
:10147000E02080F80014704700F00F0000F1E02039
:1014800080F8141D7047000010B52F499FED2C1BEC
:101490002DED020B84B0059820F000408842D8BFA3
:1014A0009DED040B2DDD2949884209D1049840B9EE
:1014B0004FF0010000F0BCFE00F08AFE06B010BD47
:1014C00005DB9DED040B00F077FE06B010BD68460D
:1014D0009DED040B00F0E0F810F0030004BF9DED5B
:1014E000021B9DED000B0CD001280ED09DED021BC0
:1014F0009DED000B022817D0012000F01DFC06B066
:1015000010BD00F0E5FA06B010BD9DED021B9DED8B
:10151000000B012000F010FC51EC100B81F0004199
:1015200006B041EC100B10BD00F0D2FA51EC100BDC
:1015300081F0004106B041EC100B10BD000000002E
:101540000000000000000000FB21E93F0000F07FE8
:1015500010B52F499FED2C1B2DED020B84B0059883
:1015600020F000408842DCBF00209DED040B32DDFE
:101570002849884209D1049840B94FF0010000F091
:1015800057FE00F025FE06B010BD05DB9DED040BF7
:1015900000F012FE06B010BD68469DED040B00F091
:1015A0007BF810F0030011D0012818D09DED021B2C
:1015B0009DED000B02281AD000F08AFA51EC100BB6
:1015C00081F0004106B041EC100B10BD9DED021BF7
:1015D0009DED000B012000F0AFFB06B010BD9DEDAE
:1015E000021B9DED000B00F073FA06B010BD012048
:1015F00000F0A2FB51EC100B81F0004106B041EC71
:10160000100B10BD000000000000000000000000F2
:10161000FB21E93F0000F07F10B51D499FED1A1B2B
:101620002DED020B84B0059820F000408842DCBF0D
:1016300001209DED040B21DD1649884209D1049853
:1016400040B94FF0010000F0F3FD00F0C1FD06B01D
:1016500010BD05DB9DED040B00F0AEFD06B010BD26
:1016600068469DED040B00F017F800F00100012121
:10167000A1EB40009DED021B9DED000B00F0F4FB83
:1016800006B010BD000000000000000000000000D7
:10169000FB21E93F0000F07F2DE9F14F04462DEDDD
:1016A000020B2DED088B8AB09FEDE70B80ED020B4E
:1016B000139EE74826F0004585420ADC9DED120B9B
:1016C000002084ED000B0AB0BDEC088B03B0BDE830
:1016D000F08FE0489FEDE0AB9FEDE1BBA84247DD16
:1016E000E14F9FEDE39B9FEDE48B9DED120B53ECDF
:1016F0001A2B51EC100B002E1CDDFEF745FE41ECC1
:10170000100BBD4208D053EC1B2B51EC100BFEF715
:101710003BFEC4E900010BE053EC192B51EC100B1C
:10172000FEF732FE53EC182BFEF72EFEC4E9000143
:101730000120C8E7FEF787FD41EC100BBD4208D041
:1017400053EC1B2B51EC100BFEF77DFDC4E900019F
:101750000BE053EC192B51EC100BFEF774FD53EC1E
:10176000182BFEF770FDC4E900014FF0FF30AAE727
:10177000C348A84279DB9DED120B51EC100B00F031
:101780005DFD41EC180B9FEDC00B53EC102BFEF7E9
:1017900001FE9FEDBF1B53EC112BFEF754FDFEF72E
:1017A000FEFF0746FEF7DDFF41EC190B53EC1A2B49
:1017B000FEF7F0FD53EC182BFEF7E9FD41EC180B9A
:1017C00053EC1B2B51EC190BFEF7E4FDDFF8C8A21C
:1017D00041EC100B4FEA15580125FA4453EC102B3D
:1017E00051EC180BFEF7D0FD032DC4E900013DD0EC
:1017F000C1F30A5005EB4511A8EB000011398142F5
:1018000034DA0AEB051BB0EE48AA9BED000BF0EEB4
:1018100068AA53EC102B51EC190BFEF7BBFD41EC01
:101820001B0B51EC1A0B53EC1B2BFEF7ADFD41ECDF
:10183000180B51EC1A0B53EC182BFEF7A5FD53ECCB
:101840001B2BFEF7A1FD9BED020B41EC1A0B53EC99
:10185000102B51EC190BFEF79DFD53EC1A2BFEF7E4
:1018600093FD41EC100B6D1CB8E70EE0002EA8BFF5
:101870003846BFF628AF94ED000B51EC100B81F009
:101880000041C4E9000178421DE7C6F3130040F4AB
:10189000801EC6F30A50A0F2F530471100F01F0574
:1018A000C5F12000DDF848B00890002006900790B0
:1018B0000520EC467949002D07EB0002794408BF6A
:1018C00051F8221009D051F8223001EB8201AB40CF
:1018D0004A68089922FA01F11943A1FB0E26A1FBDF
:1018E0000B131A449A4234BF0123002303EB06086A
:1018F0000CEB8003D3E901A60E448E4234BF0121D4
:10190000002192448A4411B1924502D903E09245E4
:1019100001D2012100E00021C3E901A641444CF8B5
:101920002010011EA0F10100C4DC029800F100505B
:10193000850F0298DDE903678000DDF81480FEF76B
:1019400010FF41EC1A0B3046FEF71CFF9FED541BB5
:1019500053EC112BFEF71EFD41EC1B0B3846FEF736
:1019600011FF9FED511B53EC112BFEF713FD41ECC2
:10197000180B4046FEF706FF9FED4D1B53EC112B55
:10198000FEF708FD41EC190B51EC180B53EC192B29
:10199000FEF759FC53EC1B2BFEF755FC53EC1A2BAE
:1019A000FEF751FCCDE90801002008909DED080BE1
:1019B00053EC1A2B51EC100BFEF7E6FC53EC1B2BEF
:1019C000FEF7E2FC53EC182BFEF7DEFC53EC192B70
:1019D000FEF7DDFC9FED381B53EC112BFEF7DAFC14
:1019E0009FED370B41EC180B53EC102B9DED080BC2
:1019F00051EC100BFEF7CEFC53EC182BFEF723FC3A
:101A00009FED310B41EC180B53EC102B9DED080BA7
:101A100051EC100BFEF7BEFC53EC182BFEF713FC39
:101A200041EC100B139810F0004F06D06D4251ECB2
:101A3000100B81F0004141EC100B284684ED000BA7
:101A400041E600000000000000000000000000006F
:101A5000FB21E93F7CD9024000004054FB21F93FC3
:101A60003163621A61B4D03DFB21F93F00000000F0
:101A70000000601A61B4D03D7370032E8A19A33B35
:101A8000FB2139410000000083C8C96D305FE43F8D
:101A9000000000000000E03F420C0000900B00003E
:101AA000000000000000103E000000000000103C9C
:101AB000000000000000103A182D4454FB21F93DAD
:101AC0003326A611460B113C00000054FB21F93DC2
:101AD00010B52DED040B2DED088B82B0B0EE419AC0
:101AE000F0EE619A0B9820F000449FED4BABB4F1FF
:101AF000795F11DA9DED0A0B51EC100BFEF74FFEEA
:101B0000002801BFB0EE4A0AF0EE6A0A02B0BDEC4E
:101B1000088B04BF04B010BD9DED0A0B53EC102BD5
:101B200051EC100BFEF736FC41EC180B3C4806213B
:101B3000B0EE480AF0EE680A784400F081F853EC01
:101B4000182B51EC100BFEF725FC9DED0A0B41EC18
:101B50001B0B53EC192B51EC100BFEF71BFC41EC4B
:101B6000190B53EC1B2B51EC180BFEF713FC53EC29
:101B7000192BFEF709FC9FED2C0B41EC190B53ECD4
:101B8000102B51EC180BFEF705FC41EC100B28480C
:101B9000844210DA53EC192B51EC100BFEF7F4FBD6
:101BA00053EC1A2BFEF7F3FB41EC100B02B0BDEC2B
:101BB000088B04B010BD1F48A042BCBF9FED1E1B88
:101BC0008DED001B06DBA4F50010019000200090B5
:101BD0009DED001B51EC100B53EC112BFEF7D4FBC9
:101BE0009DED000B41EC180B53EC102B51EC1A0B34
:101BF000FEF7CAFB41EC1A0B53EC192B51EC180BF6
:101C0000FEF7C2FB53EC1A2BFEF7C1FB41EC100BA5
:101C1000CCE7000000000000000000000000F03FE2
:101C2000B408000000000000000000000000E03FD9
:101C30003333D33F0000E93F000000000000D23FF3
:101C400070B504462DED028B4D1E00EBC500B0EEC5
:101C5000408AF0EE608A90ED000B35F0060017D058
:101C600053EC182B51EC100BFEF794FB41EC100BCE
:101C70006D1E04EBC50090ED001B51EC100B53ECF6
:101C8000112BFEF7E0FA41EC100B35F00600E7D11E
:101C9000022D36D0042D1CD0062D1CBFBDEC028BAE
:101CA00070BD53EC182B51EC100BFEF773FB94ED49
:101CB0000A1B53EC112BFEF7C6FA53EC182BFEF758
:101CC00069FB94ED081B53EC112BFEF7BCFA41ECB9
:101CD000100B53EC182B51EC100BFEF75BFB94ED43
:101CE000061B53EC112BFEF7AEFA53EC182BFEF744
:101CF00051FB94ED040B53EC102BFEF7A4FA41ECCE
:101D0000100B53EC182B51EC100BFEF743FB94ED2A
:101D1000021B53EC112BFEF796FA53EC182BFEF72F
:101D200039FB94ED001B53EC112BFEF78CFABDEC44
:101D3000028B41EC100B70BD31B504462DED040B48
:101D40002DED0A8BB0EE41BAF0EE61BA0B989DED25
:101D50000A0B20F00040B0F1795F0DDA51EC100B66
:101D6000FFF769FB042808BF00F042FA9DED0A0B5B
:101D7000BDEC0A8B05B030BD53EC102B51EC100BB1
:101D8000FEF708FB41EC180B9DED0A0B53EC182BEA
:101D900051EC100BFEF7FEFA41EC190B2C48B0EE9B
:101DA000480AF0EE680A05217844FFF749FF9FEDE5
:101DB0002ACBB0EE40AAF0EE60AA9CB353EC1C2BE9
:101DC00051EC190BFEF7E6FA41EC1C0B53EC1A2B05
:101DD00051EC190BFEF7DEFA9FED210B41EC190BCC
:101DE00053EC102B51EC1B0BFEF7D4FA53EC192BD0
:101DF000FEF7CAFA53EC182BFEF7CCFA53EC1B2B68
:101E0000FEF7C2FA53EC1C2BFEF7BEFA9DED0A1B3F
:101E100053EC112BFEF7BBFABDEC0A8B05B041EC7D
:101E2000100B30BDFFE753EC1A2B51EC180BFEF7EB
:101E3000B1FA53EC1C2BFEF706FA53EC192BFEF704
:101E4000A9FA9DED0A1B53EC112BFEF7FCF9E3E711
:101E50003C07000000000000495555555555C5BFC9
:101E6000000000000000E03FF1B506462DED040B38
:101E7000BD482DED0C8B8AB0B0EE418AF0EE618A40
:101E8000179D25F000449FEDBABB9FEDBBCB84426C
:101E900008DA9DED160B51EC100BFEF780FC0028C4
:101EA00000F0E980B64FA74231DC002D0DDA9DED40
:101EB000160B51EC100B81F00041CDE9160151ECED
:101EC000180B81F0004141EC180B9FEDAF0B53EC68
:101ED000102B9DED160B51EC100BFEF758FA53EC3E
:101EE000182B9FEDAB0BCDE9040151EC100BFEF765
:101EF0004BFA41EC100B53EC102B9DED040B51EC05
:101F0000100BFEF7A0F99FEDA48BCDE916019DED16
:101F1000160B53EC102B51EC100BFEF73BFACDE9EE
:101F200004019DED040B53EC102B51EC100BFEF74C
:101F300031FA41EC190B9A480621B0EE490AF0EE4D
:101F4000690A7844FFF77CFE9648B0EE40DAF0EE7E
:101F500060DAB0EE490AF0EE690A06217844FFF72C
:101F60006FFE9DED041B51EC100B53EC112BFEF793
:101F700011FA9DED040B41EC1A0B53EC102B9DED67
:101F8000160B51EC100BFEF705FA41EC190B53EC54
:101F90001A2B51EC1D0BFEF756F953EC192BFEF7DB
:101FA000F9F953EC182BFEF74EF99DED041B53EC99
:101FB000112BFEF7EFF953EC182BFEF744F941EC27
:101FC000180B9FED790B51EC190B53EC102BFEF70E
:101FD000E1F953EC182BFEF736F941EC190B9DEDA6
:101FE000160B53EC192B51EC100BFEF72CF941ECAE
:101FF000180BA74269DC3046FEF7B3FB41EC1A0B25
:1020000051EC180B53EC1A2BFEF71DF941EC1B0B8E
:1020100053EC182B51EC180BFEF7BCF953EC1B2BAF
:10202000FEF730FB53EC192BFEF7AEF99DED161BB6
:1020300053EC112BFEF7ABF99FED5D1B53EC112B0D
:10204000FEF7A8F953EC1A2BFEF7A1F941EC180B97
:10205000022000EAA570C0F10100FEF782FB53ECFC
:10206000182BFEF797F900BF41EC100B0AB0BDEC3E
:102070000C8B05B0F0BD711C1698214308430CD0A1
:102080009DED160B012E1CBF53EC102B51EC1C0BBD
:1020900010D000BFFEF7F6FAE6E79DED160B51EC07
:1020A000100B00F0CBF841EC100B51EC1B0B53EC78
:1020B000102BEFE751EC100BFFF7BDF9042808BF18
:1020C00000F096F89DED160BD0E7012E04BFB0EEA0
:1020D000480AF0EE680AC9D08DED048B0024049400
:1020E0009DED040B53EC102B9DED160B51EC100BDA
:1020F000FEF74DF953EC192BFEF749F941EC190B9A
:1021000053EC182B51EC1C0BFEF7BCFA41EC180BEE
:102110008DED008B00949DED040B53EC102B9DED89
:10212000000B51EC100BFEF735F953EC1B2BFEF7AF
:102130008AF89DED000B41EC1A0B53EC192B51EC76
:10214000100BFEF727F953EC1A2BFEF77CF853EC33
:10215000182BFEF71FF99DED001B53EC112BFEF71A
:1021600072F881E7000000000000303E000000002F
:10217000000000000000F03F000000000000F0BF81
:102180002894E53F00000000182D4454FB21E93F4E
:10219000075C143326A6813C00000000000000000C
:1021A000CA050000E0050000635555555555D53F5B
:1021B000000000000000004010B553EC102B51EC63
:1021C000100BFEF740F841EC100B10BD00000000B2
:1021D0009FED050B10B553EC102B51EC100BFEF7D7
:1021E00051FA41EC100B10BD00000000000000008F
:1021F0009FED050B10B553EC102B51EC100BFEF7B7
:10220000C9F841EC100B10BD0000000000000010E8
:1022100002E008C8121F08C1002AFAD170477047AF
:10222000002001E001C1121F002AFBD1704700000D
:1022300001490860704700001800002082B0CDE915
:10224000000121F0004001909DED000B02B051EC27
:10225000100B70472DED068BFEF736FCFFF706F8E6
:10226000FEF7CCFFFEF7E0FF4F4E00279FED4F8BB0
:10227000DFED50AA9FED50AA504D514C9FED519B60
:102280006068FEF7F9F853EC192BFDF7DCFFFEF759
:1022900006F96060B04203DB9FED4C0A84ED010A51
:1022A0006068FEF7E9F841EC100BFFF751F953ECC9
:1022B000182B51EC100BFEF76DF8FEF7F0F800EE5E
:1022C000100A0120FEF7CCFA6068FEF7D5F841EC61
:1022D000100BFFF7A1F953EC182B51EC100BFEF784
:1022E00059F8FEF7DCF800EE100A0220FEF7B8FA03
:1022F0006068FEF7C1F841EC100BFFF7C5F853EC2E
:10230000182B51EC100BFEF745F8FEF7C8F800EE5D
:10231000100A0320FEF7A4FA94ED010A042020EE2F
:102320002A0AFEF79DFA0520B0EE4A0AFEF798FA4F
:102330000620B0EE4A0AFEF793FA0720B0EE4A0AEA
:10234000FEF78EFA0820B0EE4A0AFEF789FA092055
:10235000B0EE4A0AFEF784FA0A20B0EE4A0AFEF707
:102360007FFA0A20FEF73CFA60702770184A06E0F0
:102370002B685B06FCD5535C6B60491C217021788F
:102380008142F5D36068FEF777F8B0EE491AF0EEB7
:10239000691A53EC112BFDF756FFFEF780F86060C9
:1023A0006420FEF795FA6BE7C3F548400000000093
:1023B00000407F400000C8420000000000100140C3
:1023C000000000209A9999999999B93FC3F548C09E
:1023D0005C00002000000000000000000102030477
:1023E00006070809000000000102030400000000C5
:1023F0004C5555555555A53F7751C1166CC156BF23
:102400009015CB19A001FA3EAD529C804F7E92BE32
:10241000C4B1B4BD9EEE213ED43888BEE9FAA8BD51
:1024200000004054FB21F93F3163621A61B4D03D92
:102430000000601A61B4D03D7370032E8A19A33B6B
:102440000000002E8A19A33BC14920259A837B39BD
:1024500000000000000000006E83F9A22915444E20
:10246000D15727FCC0DD34F5999562DB4190433CA0
:10247000AB6351FE61C5BBDE3A6E24B7E0D24D427C
:10248000EA2E49061C92D1091CEB1DFE3EA729B17C
:10249000F53582E88444BB2E26709CE9417E5FB40A
:1024A00039D69139F43953838B5F849C3B28F9BD2D
:1024B000FF97F81F0F9805DE8B112FEF1F6D0A5A3B
:1024C000CF7E366DB709CB27663F464F2DEA5F9E1C
:1024D000C7BA27757BF1E5EBF739073DEA92528AD7
:1024E000B15FFB6B085D8D1FA6F810111111813FC4
:1024F000D561C119A0012ABF7DFEB157E31DC73EBA
:10250000EB9C2B8AE6E55ABE7CD5CF5A3AD9E53DFD
:102510007AFE10111111C13F37D60684F464963F3C
:10252000280356C9226D6D3F0165F2F2D844433F3E
:10253000A69237A0887E143F735360DBCB75F3BE41
:10254000FE41B31BBAA1AB3F93846EE9E326823F01
:102550001583E0FEC8DB573F68108D1AF726303F21
:10256000E9A7F0320FB8123FD47ABF74702AFB3E4D
:1025700090250008000000201C0000001022000828
:10258000AC2500081C0000206C040000202200087C
:10259000000000000000000001000000100000002A
:0C25A000000000000024F4000000000017
:040000050800018965
:00000001FF
