:020000040800F2
:10000000C00900209D0100085D1E00082B18000893
:100010002D1E0008A90200081D260008000000008F
:10002000000000000000000000000000A51E000805
:1000300079030008000000005F1E0008ED1F0008A3
:10004000B7010008B7010008B7010008B7010008B0
:10005000B7010008B7010008B7010008B7010008A0
:10006000B7010008B7010008B7010008B701000890
:10007000B7010008B7010008B7010008B701000880
:10008000B7010008B7010008B7010008B701000870
:10009000B7010008B7010008B7010008B701000860
:1000A000B70100089D20000891200008B701000852
:1000B000A9200008B5200008C1200008B7010008E9
:1000C000B7010008B7010008B7010008B701000830
:1000D000B70100080526000811260008B70100082E
:1000E000B7010008B7010008B7010008B701000810
:1000F000D9200008B7010008B7010008B7010008BF
:10010000B7010008B7010008CD200008B7010008BA
:10011000B7010008B7010008B7010008B7010008DF
:10012000B7010008B7010008B7010008B7010008CF
:10013000B7010008B7010008B7010008B7010008BF
:10014000B7010008B7010008B7010008B7010008AF
:10015000B7010008B7010008B7010008B70100089F
:10016000B7010008B7010008B7010008B70100088F
:10017000B7010008B7010008B7010008000000003F
:10018000B7010008B7010008DFF80CD000F07AF8DA
:1001900000480047D9260008C009002006488047CB
:1001A00006480047FEE7FEE7FEE7FEE7FEE7FEE75C
:1001B000FEE7FEE7FEE7FEE775200008890100087C
:1001C0002DE9F05F0546002092469B46884606468C
:1001D000814640241BE0284641464746224600F01F
:1001E00041F853465A46C01A914110D31146184659
:1001F000224600F028F82D1A67EB01084F462246E8
:100200000120002100F01FF817EB00094E41201ECD
:10021000A4F10104DFDC484631462A464346BDE8E6
:10022000F09FD2B201E000F8012B491EFBD27047CB
:100230000022F6E710B513460A4604461946FFF7B2
:10024000F0FF204610BD202A04DB203A00FA02F11C
:10025000002070479140C2F1200320FA03F31943B4
:1002600090407047202A04DB203A21FA02F0002156
:10027000704721FA02F3D040C2F1200291400843B6
:1002800019467047064C074D06E0E06840F0010350
:1002900094E8070098471034AC42F6D3FFF778FF94
:1002A0003829000858290008FEE70000314A10B537
:1002B0002F495378C8545B1CD8B250700C78002377
:1002C000552C53D10B2852D3487850380A284DD298
:1002D000DFE800F0050D151D252D353B414751F890
:1002E000020FC2F802004868C2F806003EE051F86A
:1002F000020FC2F80A004868C2F80E0036E051F852
:10030000020FC2F812004868C2F816002EE051F839
:10031000020FC2F81A004868C2F81E0026E051F821
:10032000020FC2F822004868C2F826001EE051F809
:10033000020FC2F82A004868C2F82E0016E051F8F1
:10034000020F50634868906310E051F8020FD063C9
:10035000486810640AE051F8020F506448689064DD
:1003600004E051F8020FD06448681065537010BD66
:10037000C4030020B00000207047000010B53C21ED
:10038000084800F09DFE3C21074800F099FE3C2102
:10039000064800F095FEBDE810403C21044800F0FE
:1003A0008FBE000064010020A4010020E4010020B1
:1003B00024020020704790F83510022903D08021D4
:1003C000416501207047052180F8351000680168FB
:1003D00021F00101016000207047000070B5044663
:1003E00000F0FCF80546601C02D004480078044484
:1003F00000F0F4F8401BA042FAD370BD5C0000206E
:100400002DE9F84F00224FF0010803254FF00F0EA1
:100410000B6808FA02F42340A3426ED14E68012E05
:1004200005D0022E03D0112E01D0122E12D18668D3
:100430004FEA420C05FA0CF7BE43CF6807FA0CF7F7
:10044000374387604668A6430C79C4F30014944090
:1004500034434460C668570005FA07FC8C6826EAF6
:100460000C06BC403443C4604C68022C01D0122CF2
:1004700013D1D40800EB8404A346D4F82090540789
:100480004FEAD46A0EFA0AF629EA06090E6906FA54
:100490000AF646EA0906CBF8206006680C7926EAD7
:1004A0000C0604F00304BC40344304604C68E400D0
:1004B00065D5364C266846F480462660246822F0CE
:1004C000030604F480440094314C3444A446D4F828
:1004D00008489607370F0EFA07F6B4432D4EB04280
:1004E00001D1002624E02C4EB04201D101261FE0AC
:1004F0002A4EB04202D102261AE040E0284EB04215
:1005000001D1032614E0274EB04201D104260FE0AA
:10051000254EB04201D105260AE0244EB04201D159
:10052000062605E0224EB04201D1072600E008264B
:10053000BE402643CCF808681E4E34684F689C4382
:10054000FF0300D51C4334601A4C241D26684F68F5
:100550009E43BF0300D51E432660164E08363468FE
:100560004F689C43FF0200D51C433460114E0C368B
:1005700034684F689C43BF0200D51C433460521C52
:10058000102AFFF445AFBDE8F88F00004438024060
:100590000030014000000240000402400008024018
:1005A000000C0240001002400014024000180240FB
:1005B000001C0240003C01400069084000D00120BE
:1005C0007047426931EA020200D109048161704733
:1005D0000AB1816170470904FBE7000001488068A7
:1005E000704700005C0000200248816802781144D6
:1005F000816070475C0000200B4810B5016841F431
:1006000000710160016841F480610160016841F49A
:1006100080710160032000F06FF8002000F006F800
:1006200000F024F8002010BD003C024070B50D4DD4
:1006300004464FF47A712878B1FBF0F00A49096852
:10064000B1FBF0F000F002FB48B9102C07D20022F9
:100650002146501E00F030F800206C6070BD012073
:1006600070BD00005C000020680000200A4808B54A
:10067000016841F480410160006800F4804000900E
:100680000548001F016841F080510160006800F0DA
:100690008050009008BD000044380240002809DB6B
:1006A00000F01F02012191404009800000F1E0208C
:1006B000C0F8001170470000F0B40E4B1B680C46E8
:1006C000C3F30223C3F10705042D00D90425191D26
:1006D000072901D2002300E0DB1E012606FA05F1FE
:1006E000491E214099409E40761E16403143F0BC81
:1006F00001F0D2BF0CED00E0064900F007020868E7
:100700004FF6FF03184040EA0220034A10430860F6
:10071000704700000CED00E00000FA052DE9F047FD
:100720000E46050065D0DFF81481D8F80000F7B256
:1007300000F00F00B04207D288F80070D8F800002F
:1007400000F00F00B04254D128683D4C810712D50B
:10075000400703D5206840F4E05020602878000767
:1007600003D5206840F4604020602068A96820F02C
:10077000F000084320602878C0072DD03049686811
:100780000839012812D0022813D0032811D0096893
:10079000890700292DDA216821F003010143216036
:1007A000FFF71CFF814641F2883A0EE00968890391
:1007B000EFE709688901ECE7FFF710FFA0EB0901FB
:1007C000514502D90320BDE8F0872068696800F030
:1007D0000C00B0EB810FEFD1D8F80010404601F0CB
:1007E0000F01B14207D90770006800F00F00B04256
:1007F00001D00120E7E72878400705D52068E9689F
:1008000020F4E050084320602878000706D52068CF
:10081000296920F4604040EAC100206000F038F807
:100820002168084AC1F30311515CC84006490860B9
:1008300006480068FFF7FAFE0020C4E7003C0240CB
:1008400008380240202900086800002060000020CD
:100850000448054900680968044AC1F38221515CD3
:10086000C84070476800002008380240302900085E
:100870000448054900680968044AC1F34231515CE3
:10088000C84070476800002008380240302900083E
:10089000154810B5006810F00C02144813D0411030
:1008A000042A0FD0082A0ED10F4C241F2268236877
:1008B00002F03F025B0207D52068C0F38810A0FB5E
:1008C000010106E0084610BD2168C1F38811A1FBB3
:1008D00000010023FFF774FC2168C1F30141491CAA
:1008E0004900B0FBF1F010BD083802400024F400CC
:1008F0002DE9F84F04006ED02078DFF83C93C00754
:10090000A9F104054AD009F104000168C1F381018D
:10091000012908D00068C0F3810002280AD1D9F863
:100920000000400206D52868800337D5606800289B
:10093000E1D033E06068B0F5803F10D0B0F5A02F73
:10094000286810D020F480302860286820F48020A7
:1009500028606068A8B1FFF741FE06460DE02868F0
:1009600040F48030F4E740F480202860F7E700BFCF
:10097000FFF734FE801B642873D828688003F7D5FE
:100980000CE0FFF72BFE064605E000BFFFF726FE52
:10099000801B6428F0D828688003F7D42078DFF81B
:1009A0009C8280074FF0000A3ED5A348001D0168D5
:1009B00011F00C0F08D00068C0F3810002280BD1A1
:1009C000D9F80000400207D42868800716D5E068EF
:1009D000012800D112E02BE1E068B8B10120C8F88D
:1009E0000000FFF7FBFD064605E000BFFFF7F6FD40
:1009F000801B0228C0D828688007F7D5286821699D
:100A000020F0F80040EAC10028600DE0C8F800A01E
:100A1000FFF7E4FD064604E0FFF7E0FD801B022837
:100A20001FD828688007F7D42078000722D5824E87
:100A300083486169703671B101210160FFF7CEFD15
:100A4000074604E0FFF7CAFDC01B022809D830683A
:100A50008007F7D50EE0C0F800A0FFF7BFFD0746FE
:100A600005E082E0FFF7BAFDC01B02287DD83068A0
:100A70008007F7D42078400768D5DFF8BCB100279D
:100A80000BF13C0BDBF80000C0000BD4DBF80010CE
:100A900041F08051CBF80010DBF80000012700F096
:100AA00080500090674E3068C00510D4306840F424
:100AB00080703060FFF792FD009005E0FFF78EFD3B
:100AC0000099401A022850D83068C005F6D55A4E11
:100AD000A0686C3601280FD00528306810D020F0AF
:100AE00001003060306820F004003060A068B8B1C8
:100AF000FFF774FD00900FE0306840F00100F4E76C
:100B000040F004003060F7E7FFF768FD0099411AF4
:100B100041F28830814266D830688007F4D50EE013
:100B2000FFF75CFD009007E0FFF758FD0099411AC0
:100B300041F28830814256D830688007F4D42FB112
:100B4000DBF8001021F08051CBF80010A069C8B389
:100B50003949091D0968C1F3810102294AD00228D7
:100B6000504607D0C8F8600000E03CE0FFF736FDD3
:100B700004463BE04746C8F86000FFF72FFD0646F5
:100B800005E000BFFFF72AFD801B02282BD828684C
:100B90008001F7D4D4E907010843A16A2A4A490829
:100BA00002EB0141626A41EA8211084394F82C1079
:100BB00040EA0161C9F8001001203866FFF70EFD18
:100BC000044606E036E000BFFFF708FD001B0228E0
:100BD00009D828688001F7D52CE000BFFFF7FEFC9C
:100BE000001B022802D90320BDE8F88F2868800185
:100BF000F4D41FE00128F7D0D9F80000E26900F42E
:100C00008001914214D1226A00F03F0191420FD13C
:100C100047F6C071626A0140914209D1A26A00F4AC
:100C20004031914204D1E16A00F07060884201D005
:100C30000120D9E70020D7E70438024000004742EE
:100C4000800E4742007000400000FFFF10B5401EBC
:100C5000B0F1807F01D3012010BD4FF0E02460612E
:100C60000F21601701F018FD0020A061072020610E
:100C7000002010BD7047704770B590F83C20012AE5
:100C800032D0012480F83C40022280F83D200368E5
:100C90005A689D6822F070060A6832435A60134B06
:100CA00002689A4214D0B2F1804F11D0104B9A4290
:100CB0000ED0104B9A420BD00F4B9A4208D00F4BDC
:100CC0009A4205D00E4B9A4202D00E4B9A4204D162
:100CD000496825F080031943916080F83D40002168
:100CE00080F83C10084670BD022070BD0000014035
:100CF0000004004000080040000C004000040140D7
:100D0000004001400018004010B5040003D094F8E2
:100D10003D0010B107E0012010BD002084F83C0028
:100D2000204600F00DF8022084F83D00211D2068C7
:100D300001F0D8F9012084F83D00002010BD00002A
:100D400008B50168B1F1804F12D01D4A1D4891428B
:100D50001FD1016841F4003101600068002200F4F5
:100D60000030009002211920FFF7A6FC192021E095
:100D70001448001F016841F0010101600068002271
:100D800000F00100009002211C20FFF795FC1C20C0
:100D900010E00D4A914211D1016841F480210160B7
:100DA0000068002200F48020009002211A20FFF742
:100DB00083FC1A20BDE80840FFF770BC08BD0000A6
:100DC0000044014044380240004801400168CA68BC
:100DD00042F00102CA600068816801F0070106293B
:100DE00003D0016841F0010101600020704770B537
:100DF000044690F83C00012817D0012584F83C50A7
:100E0000022084F83D002068826822F0770222F4F4
:100E10007F4282600868502830D00DDC20284DD0F9
:100E200005DC98B310283BD148E0022070BD302883
:100E300044D0402834D139E0602828D0702806D02A
:100E4000B0F5805F2CD0B0F5005F29D10AE0CB6807
:100E5000D1E90121206801F0B6F92068816841F0EC
:100E6000770109E0CB68D1E90121206801F0ABF9F5
:100E70002068816841F48041816011E0CA68496856
:100E8000206801F075FA5021206807E016E0CA6872
:100E90004968206801F07DFA6021206801F09DF921
:100EA00084F83D50002084F83C0070BDCA68496851
:100EB000206801F05DFA40212068EFE722680146D2
:100EC0001046EBE72DE9F0410D46040003D094F8FD
:100ED0003D0018B108E00120BDE8F081002084F851
:100EE0003C00204600F03AF8022084F83D002068DB
:100EF000816844F2070291438160211D206801F05E
:100F0000F1F8226890689169166A2B68AF6903430B
:100F100040F20330814341EA0721A868EF690843A2
:100F20004FF6FC418843E96840EA072001432869FD
:100F30002F6A000140EA0730084369686D6926F0AE
:100F4000AA0646EA05152943936022689061206845
:100F50000162012084F83D000020BDE7F0B587B0B4
:100F6000044614216846FFF763F94E494C4E256844
:100F700000224C4C1039C02702234B48B5421ED1E9
:100F8000256845F002052560246804F002040594F4
:100F90000C6844F001040C6009680097CDE9013247
:100FA00001F00101CDE9043103926946FFF728FA07
:100FB000002202211D20FFF77FFB1D2023E03B4E76
:100FC000B54224D1206840F004002060206800F081
:100FD00004000590086840F0080008600868694649
:100FE00000F0080005904FF440500090CDE9013228
:100FF0002F48CDE90323FFF703FA002202211E2028
:10100000FFF75AFB1E20FFF749FB07B0F0BDDFF8E2
:10101000A4C0032665451ED1256845F00805256056
:10102000246804F0080405940C6844F001040C6082
:1010300009680096CDE9013201F00101CDE90431E2
:1010400003926946FFF7DCF9002202213220FFF704
:1010500033FB3220D7E718488542D6D11148001D0E
:10106000046844F002040460006800F00200059087
:10107000086840F00400086008680097CDE9013274
:1010800000F00400CDE90460694603920B48FFF7C5
:10109000B7F9002202212C20FFF70EFB2C20B2E72B
:1010A00000040040403802400000024000080040B8
:1010B000000C0240000C0040000401400008024007
:1010C00010B50446006891B1042904D00122002122
:1010D00001F06CF8206801225FF0040101F066F86D
:1010E0002068016841F001010160002010BD01226B
:1010F0000021F3E7704770B50446006801694FF0BE
:101100000005C943890715D4C168C943890711D4AB
:10111000E91E016101202077206880698007204650
:1011200002D0FFF7E7FF04E000F0D4F8204600F01B
:1011300056F9257720680169C943490717D4C16862
:10114000C943490713D46FF00401016102202077DD
:101150002068806910F4407F204602D0FFF7CAFF64
:1011600004E000F0B7F8204600F039F92577206850
:101170000169C943090716D4C168C943090712D4D4
:101180006FF008010161042020772068C0698007A2
:10119000204602D0FFF7AEFF04E000F09BF82046A7
:1011A00000F01DF9257720680169C943C90617D4E5
:1011B000C168C943C90613D46FF01001016108204A
:1011C00020772068C06910F4407F204602D0FFF7E6
:1011D00091FF04E000F07EF8204600F000F925774A
:1011E00020680169C943C90708D1C168C943C90753
:1011F00004D1891E0161204600F014F920680169BC
:10120000C943090609D4C168C943090605D46FF06A
:10121000800101612046FFF72DFD20680169C94367
:10122000490609D4C168C943490605D46FF0400195
:101230000161204600F09AF920680169C9438906D6
:101240000BD4C168C943890607D46FF0200101613E
:101250002046BDE87040FFF70EBD70BD70B586B08A
:10126000044614216846FEF7E3FF2068B0F1804F82
:1012700027D115480024016841F00101016001688F
:1012800001F001010591016841F00201016000686F
:10129000022500F0020005902C200090CDE90154B9
:1012A0000126CDE9034669460848FFF7A9F808205A
:1012B0000090CDE90154CDE9034669460448FFF7A3
:1012C0009FF806B070BD00003038024000000240B8
:1012D00000040240704770B5044690F83C000D468B
:1012E00001280DD0012684F83C60022084F83D00DE
:1012F00042B1042A18D0082A2AD00C2A4DD139E04C
:10130000022070BD206800F071FF2068816941F003
:10131000080181612068816921F0040181612068F0
:1013200081692A69114311E0206800F08FFF20686D
:10133000816941F4006181612068816921F48061E3
:101340008161206881692A6941EA0221816124E082
:10135000206800F0B1FF2068C16941F00801C16157
:101360002068C16921F00401C1612068C1692A694E
:10137000114311E0206800F0D3FF2068C16941F4F7
:101380000061C1612068C16921F48061C161206888
:10139000C1692A6941EA0221C16184F83D600020E7
:1013A00084F83C0070BD10B5040003D094F83D00F3
:1013B00010B107E0012010BD002084F83C00204659
:1013C00000F00CF8022084F83D00211D206800F098
:1013D00089FE012084F83D00002010BD7047704751
:1013E00010B504460068012200F0E0FE0B492068B9
:1013F000884202D00A49884203D1416C41F400413D
:1014000041642068816801F00701062903D0016862
:1014100041F001010160002010BD0000000001400A
:101420000004014010B5474B02680021464C9A4227
:1014300033D1A26A521CA262642A2EDB434AA16203
:10144000B2F9042000EE102AB8EEC00ADFED400A1F
:10145000414B20EE200ADFED3F0A20EE200A10EE7D
:10146000102A84ED140A9A4204D810EE102A3B4B3D
:101470009A4201DDE16210E010EE102A384B9A42E8
:1014800004D810EE102A374B9A4236DDE26A521C1D
:10149000E262032A01DD6F2222610068324A904233
:1014A0004ED1606A401C6062642849DB032061629F
:1014B00000F0D6FC2063042000F0D2FC606305201D
:1014C00000F0CEFCA063082000F0CAFCE063E169F4
:1014D000206B4FF6FE720144E161914202DD216A08
:1014E000491C2162616801290AD00023BDE810402F
:1014F0001A461946184600F00FBD50222261B9E77E
:10150000A169012912D1A16800F090F92064A168B5
:10151000606B00F0B1F96064E168A06B00F0D2F993
:10152000A064E168E06B00F0F3F9E064403494E813
:101530000F0000F0F1FCBDE81040642000F024BA78
:1015400010BD00000048014000000020CA0000203B
:101550000000003800003443000070C100007041FA
:10156000000058C1000058410044014070477047D6
:1015700070B5026804461068D168536910F00F0F07
:1015800052D003F0010501F490762E435FD0C207DC
:1015900005D0CA0503D5E26B42F00102E2634207BF
:1015A00005D5DA0703D0E26B42F00202E26382075C
:1015B00005D5DA0703D0E26B42F00402E2630207CA
:1015C00007D501F020022A4303D0E26B42F0080263
:1015D000E263E26B002A33D0800604D5880602D588
:1015E000204600F0FEFE20684069E16BC0F38010E9
:1015F000090700D428B3204600F0E5FE20684169C1
:1016000049061AD5416921F040014161606BA0B1E2
:101610001B490165606BFEF7CEFE002810D0606BA1
:10162000016DBDE870400847830610D58B060ED5C6
:101630002046BDE8704000F0D4BE2046FFF797FF7B
:1016400070BD2046FFF793FF0020E06370BD0306E6
:1016500006D50B0604D52046BDE8704000F0A0BFBB
:101660004006F3D54806F1D5D168204621F0400167
:10167000D160202184F8391000F0D6F870BD000048
:10168000B723000870B5040004D094F83900002591
:1016900010B106E0012070BD84F83850204600F0FB
:1016A00023F8242084F839002068C16821F400510F
:1016B000C160204600F0E0FE2068016921F49041FD
:1016C00001612068416921F02A0141612068C168F7
:1016D00041F40051C160E563202084F8390084F8AA
:1016E0003A00002070BD000070B586B00446142199
:1016F0006846FEF79DFD2A4E2268002129480223F4
:1017000003240725B24222D1264A1432166846F035
:1017100010061660126802F010020592026842F08C
:1017200001020260006802AA00F00100059082E850
:1017300032006002CDE9000369461B48FEF760FEF7
:10174000002202212520FEF7B7FF252024E0174EB6
:10175000B24223D1134A1032166846F4003616609E
:10176000126802F400320592026842F00802026038
:10177000006802AA00F00800059082E832006020AC
:10178000CDE9000369460A48FEF73AFE00221146F9
:101790002620FEF791FF2620FEF780FF06B070BDE1
:1017A0000010014030380240000002400044004078
:1017B000000C024090F83A30202B22D1F9B1F2B15E
:1017C00090F83830012B1CD081628285C2850021BF
:1017D000C163222280F83A2080F838100168CA6874
:1017E00042F48072CA6001684A6942F001024A61AB
:1017F0000068C16841F02001C160002070470120ED
:101800007047022070470000054810B50078FEF7C9
:101810004DFDBDE81040012201490248FFF7CABF53
:1018200000000020240300207047FEE7114A091A37
:10183000B2EE080A9068DFED0E0A081A01EE100AEF
:10184000B8EEC11A21EE001A00EE101AB8EEC00A66
:1018500000EE801A92ED010AB8EEC00A31EE000ADD
:10186000BDEEC00A10EE100AC2E901017047000087
:101870009A99993E70000020114A091AB2EE080A9E
:101880005069DFED0E0A081A01EE100AB8EEC11A0F
:1018900021EE001A00EE101AB8EEC00A00EE801A0F
:1018A00092ED040AB8EEC00A31EE000ABDEEC00A9D
:1018B00010EE100AC2E90401704700009A99993E9F
:1018C00070000020114A091AB2EE080A106ADFED12
:1018D0000E0A081A01EE100AB8EEC11A21EE001A1B
:1018E00000EE101AB8EEC00A00EE801A92ED070A58
:1018F000B8EEC00A31EE000ABDEEC00A10EE100AC2
:10190000C2E90701704700009A99993E70000020D3
:10191000114A091AB2EE080AD06ADFED0E0A081A57
:1019200001EE100AB8EEC11A21EE001A00EE101AEC
:10193000B8EEC00A00EE801A92ED0A0AB8EEC00AAC
:1019400031EE000ABDEEC00A10EE100AC2E90A012B
:10195000704700009A99993E7000002010B5094C1C
:1019600002212046FEF728FE08B1002010BD052008
:10197000FEF734FD02212046FEF71EFE0028F9D0B6
:10198000012010BD0008024006490A68521C0A6086
:10199000824205DB0020086001210348FEF711BEEA
:1019A000704700006C000020000802402DE9F04361
:1019B00087B014216846FEF73BFC424800240168CA
:1019C00041F010010160016801F01001059101680A
:1019D00041F080010160016801F08001059101681A
:1019E00041F004010160016801F004010591016802
:1019F00041F001010160016801F0010105910168F8
:101A000041F002010160016801F0020105910168E5
:101A100041F00801016000682B4F00F008000590BC
:101A200000227F213846FEF7D3FDDFF8A080002298
:101A300001214046FEF7CCFDDFF894907E15002290
:101A400031464846FEF7C4FD7F2000900125CDE9D0
:101A50000154694638460394FEF7D2FC0095CDE95F
:101A60000154694640460394FEF7CAFC02208DE803
:101A7000310069464046FEF7C3FCE803CDE90004A7
:101A8000694638460294FEF7BBFC4FF47C40CDE932
:101A90000004694648460294FEF7B2FC2802CDE9EC
:101AA000000469460B480294FEF7AAFC0096CDE9B3
:101AB0000154694648460394FEF7A2FC07B0BDE80E
:101AC000F08300003038024000100240000802405D
:101AD00000040240000C02400B4810B509490160A7
:101AE000A721416000216322C0E902120161802127
:101AF0008161FFF709F9002803D0BDE81040FEF727
:101B000059BC10BD00440140640200200B4810B5D0
:101B100009490160A721416000216322C0E9021246
:101B2000016180218161FFF7EFF8002803D0BDE853
:101B30001040FEF73FBC10BD00480140A402002049
:101B400010B58EB000240794089409940A940B945D
:101B50001C2168460C94FEF76BFB2A484FF080412D
:101B600001602921C0E9011440F2E731C0E9031402
:101B700080218161FFF7C8F808B1FEF71BFC4FF424
:101B80008050079007A91F48FFF731F908B1FEF709
:101B900011FC1C48FFF707FC08B1FEF70BFC0B9487
:101BA0000BA918480C94FFF767F808B1FEF702FC80
:101BB0006020CDE900040294002269461148049493
:101BC000FFF789FB08B1FEF7F5FB042269460D48D3
:101BD000FFF781FB08B1FEF7EDFB082269460948D3
:101BE000FFF779FB08B1FEF7E5FB0C2269460548D3
:101BF000FFF771FB08B1FEF7DDFB0248FFF72EFB94
:101C00000EB010BD2401002010B58CB02421684610
:101C1000FEF70EFB00241648099414490A94C0E903
:101C200000144FF6FF71C0E9024180210461816117
:101C30000320CDE900040120CDE902040494CDE99C
:101C40000540079469460A480894FFF73BF908B134
:101C5000FEF7B0FB099409A905480A94FFF70CF8B0
:101C6000002801D0FEF7A6FB0CB010BD0004004018
:101C70006401002010B58CB024216846FEF7D8FA24
:101C800000241648099414490A94C0E900144FF638
:101C9000FF71C0E902418021046181610320CDE927
:101CA00000040120CDE902040494CDE90540079425
:101CB00069460A480894FFF705F908B1FEF77AFB70
:101CC000099409A905480A94FEF7D6FF002801D017
:101CD000FEF770FB0CB010BD00080040A40100200E
:101CE00010B58CB024216846FEF7A2FA00241648ED
:101CF000099414490A94C0E900144FF6FF71C0E931
:101D000002418021046181610320CDE900040120AA
:101D1000CDE902040494CDE90540079469460A48D8
:101D20000894FFF7CFF808B1FEF744FB099409A91E
:101D300005480A94FEF7A0FF002801D0FEF73AFB01
:101D40000CB010BD000C0040E401002010B58CB0B8
:101D500024216846FEF76CFA0024174809941549B7
:101D60000A94C0E900144FF6FF71C0E902418021D6
:101D70000461C0E905410320CDE900040120CDE95B
:101D800002040494CDE90540079469460A48089482
:101D9000FFF798F808B1FEF70DFB099409A906486A
:101DA0000A94FEF769FF002801D0FEF703FB0CB090
:101DB00010BD000000040140240200200C4810B5B2
:101DC0000A4901604FF4E1314160002181600C2239
:101DD000C160C0E904128161C161FFF753FC0028B2
:101DE00003D0BDE81040FEF7E5BA10BD0010014079
:101DF000E40200200C4810B50A4901604FF4165166
:101E00004160002181600C22C160C0E9041281613F
:101E1000C161FFF737FC002803D0BDE81040FEF792
:101E2000C9BA10BD0044004024030020FEE70000B2
:101E300010B500210848FFF7D3FA04210648FFF740
:101E4000CFFA08210448FFF7CBFABDE810400C2177
:101E50000148FFF7C5BA0000240100207047704711
:101E60000021032807D0042807D005280AD0082815
:101E70000DD000207047074A00E0074A106800B202
:101E8000404202E0054A106800B211607047044AFF
:101E9000F4E700002404004024080040240C004023
:101EA000240401407047000070B54FF4807116485B
:101EB000FEF782FB154C164E4FF400452060294674
:101EC0003046FEF779FB6060A9103046FEF774FBE0
:101ED000A060E9103046FEF76FFBE0606910304605
:101EE000FEF76AFB206129113046FEF765FB606151
:101EF00069113046FEF760FBA06129460548FEF7F0
:101F00005BFBE06170BD0000000C0240040100209A
:101F100000040240001002402DE9F041314C984687
:101F200016460F46050006D5012202212046FEF77F
:101F30004FFB002205E0002202212046FEF748FB6D
:101F4000012204212046FEF743FB284600F058FCFE
:101F50004FF08045686369152348002F04DD012296
:101F6000FEF736FB002203E00022FEF731FB0122E0
:101F700001212046FEF72CFB384600F041FCA86307
:101F8000002E06DD012220212046FEF721FB002243
:101F900005E0002220212046FEF71AFB0122402105
:101FA0002046FEF715FB304600F02AFC2864B8F105
:101FB000000F06DA012208212046FEF709FB002265
:101FC00005E0002208212046FEF702FB0122102135
:101FD0002046FEF7FDFA404600F012FCE863BDE83B
:101FE000F08100000010024000040240FEF7FCBA3D
:101FF00030B593B030216846FEF71AF914210CA8C9
:10200000FEF716F919480025016841F0805101607A
:10201000006800F0805011901548016841F480413B
:1020200001600068022400F48040119001200090BB
:10203000000401908001CDE9064008AA0420A821EF
:1020400082E813000B906846FEF752FC0CA90F20A3
:1020500081E831004FF4A0500F90E002109005216C
:102060000CA8FEF75BFB13B030BD00004038024007
:10207000007000400548016841F4700101600349A7
:102080004FF00060803908607047000088ED00E084
:102090000148FFF730B80000A40200200148FFF714
:1020A0002AB80000640200200148FFF724B80000AD
:1020B000240100200148FFF71EB800006401002041
:1020C0000148FFF718B80000A40100200148FFF7FD
:1020D00012B80000E40100200148FFF70CB800002E
:1020E00024020020F0B50268254C264D264E274FCD
:1020F000274B4FF0804CA04209D0604507D0A84242
:1021000005D0B04203D0B84201D0984204D122F0A9
:10211000700E4A6842EA0E02A0421BD0604519D0F8
:10212000A84217D0B04215D0B84213D0984211D06F
:10213000184DA8420ED0184DA8420BD0174DA842FA
:1021400008D0174DA84205D0164DA84202D0164D12
:10215000A84203D122F44075CA682A434D6922F08F
:1021600080022A4302608A68C2620A688262A042D0
:1021700001D0984201D10969016301214161F0BD9B
:10218000000001400004004000080040000C004036
:10219000000401400040014000440140004801406B
:1021A00000180040001C00400020004010B501F065
:1021B0001F030121046A99408C430462016A9A401A
:1021C0001143016210BD10B5846842EA032224F471
:1021D0007F440A432243826010BD826822F070026D
:1021E0000A4342F00701816070470000F0B5026ABF
:1021F00022F001020262036A42688469124E24F0EE
:1022000073050C682C4323F002058B682B430D4D9E
:10221000A84201D0B04205D123F00807CB683B4368
:1022200023F00403A84201D0B04205D14D6922F445
:10223000407215438A692A43426084614968416358
:102240000362F0BD0000014000040140F0B5026AE5
:1022500022F010020262026A436884690D6824F465
:10226000E64444EA05248D6822F0200242EA051281
:102270000F4D104EA84201D0B04206D1CF6822F0D7
:10228000800242EA071222F04002A84201D0B04286
:1022900007D14D6923F4406343EA85038D6943EA1E
:1022A000850343608461496881630262F0BD000078
:1022B0000000014000040140F0B5026A22F480727F
:1022C0000262026A4368C46922F4007224F0730552
:1022D0000C68124E2C438D6842EA05220E4DA8422E
:1022E00001D0B04206D1CF6822F4006242EA072250
:1022F00022F48062A84201D0B04207D14D6923F494
:10230000405343EA05138D6943EA05134360C461F2
:102310004968C1630262F0BD000001400004014051
:1023200030B5026A22F480520262046A4268C369CC
:102330000D6823F4E64343EA05238D6824F4005432
:1023400044EA0534084DA84202D0084DA84204D101
:102350004D6922F4804242EA85124260C3614968B5
:102360000164046230BD000000000140000401402F
:1023700010B5036A046A24F001040462846924F03D
:10238000F00444EA021423F00A020A438461026260
:1023900010BD10B5036A23F0100303628369046A59
:1023A00023F4704343EA023224F0A00343EA01110C
:1023B0008261016210BD10B5806B0021C185C184AE
:1023C000FFF7D5F810BD0168CA6822F49072CA60A0
:1023D00001684A6922F001024A61202180F83A101E
:1023E000704710B590F83A10222901D0022010BD94
:1023F0008168B1F5805F11D00169002901681FD0A3
:10240000496801F07F03816A4A1C82620B70C18DAA
:10241000491E0904090CC18518D02BE00269816AA4
:10242000002A0268526805D0D2B20A80816A491C2B
:102430008162ECE7C2F308020A80816A891CF7E72F
:102440004A68816A4B1C83620A70E0E70168CA68C7
:1024500022F02002CA600168CA6822F48072CA6051
:1024600001684A6922F001024A61202180F83A108D
:10247000FFF7CAF9002010BD2DE9F04104460068BD
:102480000169E26821F44051114301612169A068AA
:10249000E26908436169114308432168CA6849F247
:1024A0000C639A430243CA6020684169A26921F41F
:1024B000407111434161E069192764253226B0F566
:1024C000004F354A354920684FF0000806D0884251
:1024D00001D0904236D1FEF7CBF935E0884201D0E9
:1024E000904202D1FEF7C4F901E0FEF7B1F961684C
:1024F0004A18A0FB070148EB0803FDF761FE0146FF
:10250000B0FBF5F00201B1FBF5F06FF01803584392
:1025100001EB800006EBC000B0FBF5F000F0F80026
:1025200002EB4002B1FBF5F0584301EB800006EBF3
:10253000C000B0FBF5F000F007002168104488608F
:10254000BDE8F081FEF784F961688B0F8A00A0FB7B
:102550000701FDF735FE0146B0FBF5F06FF01802FC
:10256000504301EB800006EB0010B0FBF5F000F0EB
:10257000F002B1FBF5F002EB0012B1FBF5F06FF0E9
:102580001803584301EB800006EB0010B0FBF5F098
:1025900000F00F00D1E700000014014000100140DE
:1025A00090F83910212901D0022070478168B1F5D7
:1025B000805F016A0BD04A1C026202680978516090
:1025C000C18C491E0904090CC1840ED017E009888A
:1025D0000268C1F30801516001690029016A02D053
:1025E000491C0162ECE7891CFBE70168CA6822F01C
:1025F0008002CA600068C16841F04001C1600020EB
:10260000704700000148FEF7B3BF0000E40200205D
:102610000148FEF7ADBF000024030020FEE70000E4
:102620000E4910B54FF4FA720B680D4C50429342AC
:1026300002DD22600A6003E0834201DA2060086064
:102640000849094C0B68934202DD22600A6010BD04
:102650008342FCDA2060086010BD000040000020CA
:1026600044000020480000204C0000200021094ABE
:10267000084600BF52F8203003B9491C401C04280A
:10268000F8DB032901DB106808B100207047012046
:1026900070470000040100200907090E002804DB30
:1026A00000F1E02080F80014704700F00F0000F106
:1026B000E02080F8141D704702E008C8121F08C10E
:1026C000002AFAD170477047002001E001C1121FB3
:1026D000002AFBD170470000FDF78EFFFFF788FC52
:1026E000FFF764F9FFF76AFBFFF784FBFFF728FAAF
:1026F000FFF78AFAFFF72AFBFFF7BCFAFFF7F0FAB9
:10270000FFF7EAF9FFF702FA3348FEF75FFB3348B9
:10271000FEF75CFBFFF78CFBFDF730FE0122304932
:102720003048FFF747F82E4C2F4E00250DE0E06BA8
:1027300014280ADD60690121401C60613046FDF704
:1027400040FF6069012800DD6561FFF707F9002897
:10275000EDD02648DFED260A274DB0F9000000EE47
:10276000100A0120B8EEC00A20EE200ADFED210A8F
:1027700020EE200A84ED150AC4F80400FFF794FB4C
:102780000220FDF72BFE606900B3FFF76FFFE8B191
:10279000C82060642064E064A0640A20FDF71EFE87
:1027A000164E77420220FDF719FE6664E764A764BF
:1027B0002664FFF779FBE86840B1286930B16869A1
:1027C00020B1A86910B1E8690028EBD100F01CF82D
:1027D000FFF726FFD2E7000064020020A4020020D9
:1027E000000000202403002000080240CA0000204E
:1027F000000000380000344304010020D4FEFFFF35
:10280000002800DC40427047F0B53D4A3E4B104680
:10281000D2F80CC00169DFED390A3A483B4C3C4D17
:102820003C4E3D4F1B68B3EE040ABCF1000F4ED086
:10283000E9B39168E1B3D2E900E14FF0050CBEF1D4
:10284000000F4CD0A9B35169A1B31146D2F818C0FA
:10285000C969BCF1000F48D069B323602B603360B5
:102860003B60DFF8B8C0002152F821E04CF821E0CD
:10287000491C0829F8DBD0F808C00168A1EB0C025C
:1028800001EE102AB8EEC11A21EE001A00EE101A5D
:10289000B8EEC00A00EE801A90ED010AB8EEC00A48
:1028A00031EE000ABDEEC00A10EE102A04E011E07D
:1028B00013E01CE016E01DE0C0F80CC0C0E90121E7
:1028C000981A20602860981830603860F0BD99B17F
:1028D000012111E04FF0FF310EE003210CE031B196
:1028E000062109E06FF0020106E06FF0040CC0F869
:1028F00000C0B6E76FF005010160B2E7000000001C
:1029000004010020A0000020580000204400002006
:10291000400000204C00002048000020A4030020BC
:10292000000000000000000001020304060708097F
:1029300000000000010203045829000800000020E4
:1029400004010000B82600085C2A000804010020E9
:10295000BC080000C82600080000000000000000BD
:102960005000000050000000320000000000000095
:102970000000000000000000000000000000000057
:102980000000000000000000000000000000000047
:102990000000000000000000000000000000000037
:1029A0000000000000000000000000000000000027
:1029B0002C010000010000001000000000000000D9
:1029C0000024F400000000000000000000000000EF
:1029D00000000000000000000000000000000000F7
:1029E00000000000000000000000000000000000E7
:1029F00000000000000000000000000000000000D7
:102A000000000000000000000000000000000000C6
:102A100000000000000000000000000000000000B6
:102A200000000000000000000000000000000000A6
:102A30000000000000000000000000000000000096
:102A40000000000000000000000000000000000086
:0C2A50000000000000000000000000007A
:040000050800018965
:00000001FF
