:020000040800F2
:10000000B80900209D010008F11F0008DB19000855
:10001000C11F0008A9020008B12700080000000065
:10002000000000000000000000000000392000086F
:100030007903000800000000F31F00088121000878
:10004000B7010008B7010008B7010008B7010008B0
:10005000B7010008B7010008B7010008B7010008A0
:10006000B7010008B7010008B7010008B701000890
:10007000B7010008B7010008B7010008B701000880
:10008000B7010008B7010008B7010008B701000870
:10009000B7010008B7010008B7010008B701000860
:1000A000B70100083122000825220008B701000826
:1000B0003D2200084922000855220008B701000827
:1000C000B7010008B7010008B7010008B701000830
:1000D000B701000899270008A5270008B701000804
:1000E000B7010008B7010008B7010008B701000810
:1000F0006D220008B7010008B7010008B701000829
:10010000B7010008B701000861220008B701000824
:10011000B7010008B7010008B7010008B7010008DF
:10012000B7010008B7010008B7010008B7010008CF
:10013000B7010008B7010008B7010008B7010008BF
:10014000B7010008B7010008B7010008B7010008AF
:10015000B7010008B7010008B7010008B70100089F
:10016000B7010008B7010008B7010008B70100088F
:10017000B7010008B7010008B7010008000000003F
:10018000B7010008B7010008DFF80CD000F07AF8DA
:100190000048004755280008B80900200648804755
:1001A00006480047FEE7FEE7FEE7FEE7FEE7FEE75C
:1001B000FEE7FEE7FEE7FEE70922000889010008E6
:1001C0002DE9F05F0546002092469B46884606468C
:1001D000814640241BE0284641464746224600F01F
:1001E00041F853465A46C01A914110D31146184659
:1001F000224600F028F82D1A67EB01084F462246E8
:100200000120002100F01FF817EB00094E41201ECD
:10021000A4F10104DFDC484631462A464346BDE8E6
:10022000F09FD2B201E000F8012B491EFBD27047CB
:100230000022F6E710B513460A4604461946FFF7B2
:10024000F0FF204610BD202A04DB203A00FA02F11C
:10025000002070479140C2F1200320FA03F31943B4
:1002600090407047202A04DB203A21FA02F0002156
:10027000704721FA02F3D040C2F1200291400843B6
:1002800019467047064C074D06E0E06840F0010350
:1002900094E8070098471034AC42F6D3FFF778FF94
:1002A000602A0008802A0008FEE70000314A10B5E5
:1002B0002F495378C8545B1CD8B250700C78002377
:1002C000552C53D10B2852D3487850380A284DD298
:1002D000DFE800F0050D151D252D353B414751F890
:1002E000020FC2F802004868C2F806003EE051F86A
:1002F000020FC2F80A004868C2F80E0036E051F852
:10030000020FC2F812004868C2F816002EE051F839
:10031000020FC2F81A004868C2F81E0026E051F821
:10032000020FC2F822004868C2F826001EE051F809
:10033000020FC2F82A004868C2F82E0016E051F8F1
:10034000020F50634868906310E051F8020FD063C9
:10035000486810640AE051F8020F506448689064DD
:1003600004E051F8020FD06448681065537010BD66
:10037000BC030020C80000207047000010B53C21DD
:10038000084800F09DFE3C21074800F099FE3C2102
:10039000064800F095FEBDE810403C21044800F0FE
:1003A0008FBE00007C010020BC010020FC01002069
:1003B0003C020020704790F83510022903D08021BC
:1003C000416501207047052180F8351000680168FB
:1003D00021F00101016000207047000070B5044663
:1003E00000F0FCF80546601C02D004480078044484
:1003F00000F0F4F8401BA042FAD370BD6400002066
:100400002DE9F84F00224FF0010803254FF00F0EA1
:100410000B6808FA02F42340A3426ED14E68012E05
:1004200005D0022E03D0112E01D0122E12D18668D3
:100430004FEA420C05FA0CF7BE43CF6807FA0CF7F7
:10044000374387604668A6430C79C4F30014944090
:1004500034434460C668570005FA07FC8C6826EAF6
:100460000C06BC403443C4604C68022C01D0122CF2
:1004700013D1D40800EB8404A346D4F82090540789
:100480004FEAD46A0EFA0AF629EA06090E6906FA54
:100490000AF646EA0906CBF8206006680C7926EAD7
:1004A0000C0604F00304BC40344304604C68E400D0
:1004B00065D5364C266846F480462660246822F0CE
:1004C000030604F480440094314C3444A446D4F828
:1004D00008489607370F0EFA07F6B4432D4EB04280
:1004E00001D1002624E02C4EB04201D101261FE0AC
:1004F0002A4EB04202D102261AE040E0284EB04215
:1005000001D1032614E0274EB04201D104260FE0AA
:10051000254EB04201D105260AE0244EB04201D159
:10052000062605E0224EB04201D1072600E008264B
:10053000BE402643CCF808681E4E34684F689C4382
:10054000FF0300D51C4334601A4C241D26684F68F5
:100550009E43BF0300D51E432660164E08363468FE
:100560004F689C43FF0200D51C433460114E0C368B
:1005700034684F689C43BF0200D51C433460521C52
:10058000102AFFF445AFBDE8F88F00004438024060
:100590000030014000000240000402400008024018
:1005A000000C0240001002400014024000180240FB
:1005B000001C0240003C01400069084000D00120BE
:1005C0007047426931EA020200D109048161704733
:1005D0000AB1816170470904FBE7000001488068A7
:1005E00070470000640000200248816802781144CE
:1005F00081607047640000200B4810B5016841F429
:1006000000710160016841F480610160016841F49A
:1006100080710160032000F06FF8002000F006F800
:1006200000F024F8002010BD003C024070B50D4DD4
:1006300004464FF47A712878B1FBF0F00A49096852
:10064000B1FBF0F000F002FB48B9102C07D20022F9
:100650002146501E00F030F800206C6070BD012073
:1006600070BD000064000020700000200A4808B53A
:10067000016841F480410160006800F4804000900E
:100680000548001F016841F080510160006800F0DA
:100690008050009008BD000044380240002809DB6B
:1006A00000F01F02012191404009800000F1E0208C
:1006B000C0F8001170470000F0B40E4B1B680C46E8
:1006C000C3F30223C3F10705042D00D90425191D26
:1006D000072901D2002300E0DB1E012606FA05F1FE
:1006E000491E214099409E40761E16403143F0BC81
:1006F00002F090B80CED00E0064900F0070208682F
:100700004FF6FF03184040EA0220034A10430860F6
:10071000704700000CED00E00000FA052DE9F047FD
:100720000E46050065D0DFF81481D8F80000F7B256
:1007300000F00F00B04207D288F80070D8F800002F
:1007400000F00F00B04254D128683D4C810712D50B
:10075000400703D5206840F4E05020602878000767
:1007600003D5206840F4604020602068A96820F02C
:10077000F000084320602878C0072DD03049686811
:100780000839012812D0022813D0032811D0096893
:10079000890700292DDA216821F003010143216036
:1007A000FFF71CFF814641F2883A0EE00968890391
:1007B000EFE709688901ECE7FFF710FFA0EB0901FB
:1007C000514502D90320BDE8F0872068696800F030
:1007D0000C00B0EB810FEFD1D8F80010404601F0CB
:1007E0000F01B14207D90770006800F00F00B04256
:1007F00001D00120E7E72878400705D52068E9689F
:1008000020F4E050084320602878000706D52068CF
:10081000296920F4604040EAC100206000F038F807
:100820002168084AC1F30311515CC84006490860B9
:1008300006480068FFF7FAFE0020C4E7003C0240CB
:1008400008380240482A0008700000206800002094
:100850000448054900680968044AC1F38221515CD3
:10086000C84070477000002008380240582A00082D
:100870000448054900680968044AC1F34231515CE3
:10088000C84070477000002008380240582A00080D
:10089000154810B5006810F00C02144813D0411030
:1008A000042A0FD0082A0ED10F4C241F2268236877
:1008B00002F03F025B0207D52068C0F38810A0FB5E
:1008C000010106E0084610BD2168C1F38811A1FBB3
:1008D00000010023FFF774FC2168C1F30141491CAA
:1008E0004900B0FBF1F010BD083802400024F400CC
:1008F0002DE9F84F04006ED02078DFF83C93C00754
:10090000A9F104054AD009F104000168C1F381018D
:10091000012908D00068C0F3810002280AD1D9F863
:100920000000400206D52868800337D5606800289B
:10093000E1D033E06068B0F5803F10D0B0F5A02F73
:10094000286810D020F480302860286820F48020A7
:1009500028606068A8B1FFF741FE06460DE02868F0
:1009600040F48030F4E740F480202860F7E700BFCF
:10097000FFF734FE801B642873D828688003F7D5FE
:100980000CE0FFF72BFE064605E000BFFFF726FE52
:10099000801B6428F0D828688003F7D42078DFF81B
:1009A0009C8280074FF0000A3ED5A348001D0168D5
:1009B00011F00C0F08D00068C0F3810002280BD1A1
:1009C000D9F80000400207D42868800716D5E068EF
:1009D000012800D112E02BE1E068B8B10120C8F88D
:1009E0000000FFF7FBFD064605E000BFFFF7F6FD40
:1009F000801B0228C0D828688007F7D5286821699D
:100A000020F0F80040EAC10028600DE0C8F800A01E
:100A1000FFF7E4FD064604E0FFF7E0FD801B022837
:100A20001FD828688007F7D42078000722D5824E87
:100A300083486169703671B101210160FFF7CEFD15
:100A4000074604E0FFF7CAFDC01B022809D830683A
:100A50008007F7D50EE0C0F800A0FFF7BFFD0746FE
:100A600005E082E0FFF7BAFDC01B02287DD83068A0
:100A70008007F7D42078400768D5DFF8BCB100279D
:100A80000BF13C0BDBF80000C0000BD4DBF80010CE
:100A900041F08051CBF80010DBF80000012700F096
:100AA00080500090674E3068C00510D4306840F424
:100AB00080703060FFF792FD009005E0FFF78EFD3B
:100AC0000099401A022850D83068C005F6D55A4E11
:100AD000A0686C3601280FD00528306810D020F0AF
:100AE00001003060306820F004003060A068B8B1C8
:100AF000FFF774FD00900FE0306840F00100F4E76C
:100B000040F004003060F7E7FFF768FD0099411AF4
:100B100041F28830814266D830688007F4D50EE013
:100B2000FFF75CFD009007E0FFF758FD0099411AC0
:100B300041F28830814256D830688007F4D42FB112
:100B4000DBF8001021F08051CBF80010A069C8B389
:100B50003949091D0968C1F3810102294AD00228D7
:100B6000504607D0C8F8600000E03CE0FFF736FDD3
:100B700004463BE04746C8F86000FFF72FFD0646F5
:100B800005E000BFFFF72AFD801B02282BD828684C
:100B90008001F7D4D4E907010843A16A2A4A490829
:100BA00002EB0141626A41EA8211084394F82C1079
:100BB00040EA0161C9F8001001203866FFF70EFD18
:100BC000044606E036E000BFFFF708FD001B0228E0
:100BD00009D828688001F7D52CE000BFFFF7FEFC9C
:100BE000001B022802D90320BDE8F88F2868800185
:100BF000F4D41FE00128F7D0D9F80000E26900F42E
:100C00008001914214D1226A00F03F0191420FD13C
:100C100047F6C071626A0140914209D1A26A00F4AC
:100C20004031914204D1E16A00F07060884201D005
:100C30000120D9E70020D7E70438024000004742EE
:100C4000800E4742007000400000FFFF10B5401EBC
:100C5000B0F1807F01D3012010BD4FF0E02460612E
:100C60000F21601701F0D6FD0020A0610720206150
:100C7000002010BD7047704770B590F83C20012AE5
:100C800032D0012480F83C40022280F83D200368E5
:100C90005A689D6822F070060A6832435A60134B06
:100CA00002689A4214D0B2F1804F11D0104B9A4290
:100CB0000ED0104B9A420BD00F4B9A4208D00F4BDC
:100CC0009A4205D00E4B9A4202D00E4B9A4204D162
:100CD000496825F080031943916080F83D40002168
:100CE00080F83C10084670BD022070BD0000014035
:100CF0000004004000080040000C004000040140D7
:100D0000004001400018004010B5040003D094F8E2
:100D10003D0010B107E0012010BD002084F83C0028
:100D2000204600F00DF8022084F83D00211D2068C7
:100D300001F0A2FA012084F83D00002010BD00005F
:100D400008B50168B1F1804F12D01D4A1D4891428B
:100D50001FD1016841F4003101600068002200F4F5
:100D60000030009002211920FFF7A6FC192021E095
:100D70001448001F016841F0010101600068002271
:100D800000F00100009002211C20FFF795FC1C20C0
:100D900010E00D4A914211D1016841F480210160B7
:100DA0000068002200F48020009002211A20FFF742
:100DB00083FC1A20BDE80840FFF770BC08BD0000A6
:100DC0000044014044380240004801400168CA68BC
:100DD00042F00102CA600068816801F0070106293B
:100DE00003D0016841F0010101600020704770B537
:100DF000044690F83C00012817D0012584F83C50A7
:100E0000022084F83D002068826822F0770222F4F4
:100E10007F4282600868502830D00DDC20284DD0F9
:100E200005DC98B310283BD148E0022070BD302883
:100E300044D0402834D139E0602828D0702806D02A
:100E4000B0F5805F2CD0B0F5005F29D10AE0CB6807
:100E5000D1E90121206801F080FA2068816841F021
:100E6000770109E0CB68D1E90121206801F075FA2A
:100E70002068816841F48041816011E0CA68496856
:100E8000206801F03FFB5021206807E016E0CA68A7
:100E90004968206801F047FB6021206801F067FA8B
:100EA00084F83D50002084F83C0070BDCA68496851
:100EB000206801F027FB40212068EFE72268014607
:100EC0001046EBE72DE9F0410D46040003D094F8FD
:100ED0003D0018B108E00120BDE8F081002084F851
:100EE0003C00204600F03AF8022084F83D002068DB
:100EF000816844F2070291438160211D206801F05E
:100F0000BBF9226890689169166A2B68AF69034340
:100F100040F20330814341EA0721A868EF690843A2
:100F20004FF6FC418843E96840EA072001432869FD
:100F30002F6A000140EA0730084369686D6926F0AE
:100F4000AA0646EA05152943936022689061206845
:100F50000162012084F83D000020BDE7F0B587B0B4
:100F6000044614216846FFF763F94E494C4E256844
:100F700000224C4C1039C02702234B48B5421ED1E9
:100F8000256845F002052560246804F002040594F4
:100F90000C6844F001040C6009680097CDE9013247
:100FA00001F00101CDE9043103926946FFF728FA07
:100FB000002202211D20FFF77FFB1D2023E03B4E76
:100FC000B54224D1206840F004002060206800F081
:100FD00004000590086840F0080008600868694649
:100FE00000F0080005904FF440500090CDE9013228
:100FF0002F48CDE90323FFF703FA002202211E2028
:10100000FFF75AFB1E20FFF749FB07B0F0BDDFF8E2
:10101000A4C0032665451ED1256845F00805256056
:10102000246804F0080405940C6844F001040C6082
:1010300009680096CDE9013201F00101CDE90431E2
:1010400003926946FFF7DCF9002202213220FFF704
:1010500033FB3220D7E718488542D6D11148001D0E
:10106000046844F002040460006800F00200059087
:10107000086840F00400086008680097CDE9013274
:1010800000F00400CDE90460694603920B48FFF7C5
:10109000B7F9002202212C20FFF70EFB2C20B2E72B
:1010A00000040040403802400000024000080040B8
:1010B000000C0240000C0040000401400008024007
:1010C00010B50446006891B1042904D00122002122
:1010D00001F036F9206801225FF0040101F030F9D7
:1010E0002068016841F001010160002010BD01226B
:1010F0000021F3E7704770B50446006801694FF0BE
:101100000005C943890715D4C168C943890711D4AB
:10111000E91E016101202077206880698007204650
:1011200002D0FFF7E7FF04E000F0D4F8204600F01B
:1011300056F9257720680169C943490717D4C16862
:10114000C943490713D46FF00401016102202077DD
:101150002068806910F4407F204602D0FFF7CAFF64
:1011600004E000F0B7F8204600F039F92577206850
:101170000169C943090716D4C168C943090712D4D4
:101180006FF008010161042020772068C0698007A2
:10119000204602D0FFF7AEFF04E000F09BF82046A7
:1011A00000F01DF9257720680169C943C90617D4E5
:1011B000C168C943C90613D46FF01001016108204A
:1011C00020772068C06910F4407F204602D0FFF7E6
:1011D00091FF04E000F07EF8204600F000F925774A
:1011E00020680169C943C90708D1C168C943C90753
:1011F00004D1891E0161204600F014F920680169BC
:10120000C943090609D4C168C943090605D46FF06A
:10121000800101612046FFF72DFD20680169C94367
:10122000490609D4C168C943490605D46FF0400195
:101230000161204600F072FA20680169C9438906FD
:101240000BD4C168C943890607D46FF0200101613E
:101250002046BDE87040FFF70EBD70BD70B586B08A
:10126000044614216846FEF7E3FF2068B0F1804F82
:1012700027D115480024016841F00101016001688F
:1012800001F001010591016841F00201016000686F
:10129000022500F0020005902C200090CDE90154B9
:1012A0000126CDE9034669460848FFF7A9F808205A
:1012B0000090CDE90154CDE9034669460448FFF7A3
:1012C0009FF806B070BD00003038024000000240B8
:1012D00000040240704770B5044690F83C000D468B
:1012E00001280DD0012684F83C60022084F83D00DE
:1012F00042B1042A18D0082A2AD00C2A4DD139E04C
:10130000022070BD206801F03BF82068816941F03F
:10131000080181612068816921F0040181612068F0
:1013200081692A69114311E0206801F059F82068A9
:10133000816941F4006181612068816921F48061E3
:101340008161206881692A6941EA0221816124E082
:10135000206801F07BF82068C16941F00801C16193
:101360002068C16921F00401C1612068C1692A694E
:10137000114311E0206801F09DF82068C16941F433
:101380000061C1612068C16921F48061C161206888
:10139000C1692A6941EA0221C16184F83D600020E7
:1013A00084F83C0070BD10B5040003D094F83D00F3
:1013B00010B107E0012010BD002084F83C00204659
:1013C00000F00CF8022084F83D00211D206800F098
:1013D00053FF012084F83D00002010BD7047704786
:1013E00010B504460068012200F0AAFF0B492068EE
:1013F000884202D00A49884203D1416C41F400413D
:1014000041642068816801F00701062903D0016862
:1014100041F001010160002010BD0000000001400A
:10142000000401402DE9F14F82B0AB4A029800213F
:10143000006890427DD1A948826A521C8262642A67
:1014400077DBA74A8162B2F9003000EE103AB8EEBD
:10145000C00ADFEDA40A20EE200A9FEDA31AA34BD9
:1014600020EE010A80ED160AB2F9042001EE902A5E
:1014700010EE102AF8EEE11A9A4261EEA00A60EE30
:10148000810AC0ED180A04D810EE102A984B9A422F
:1014900003DDD0ED0C0AC0ED180A90485024024636
:1014A00090ED181A80ED0C1AD0F814809148536B07
:1014B000D0E900E50095D0E90676D0E9049CD0E9B2
:1014C00002BAD2ED170AD06A956970EEC10A401CC3
:1014D0005B1CB8F1010F10EE902ADFF81C8217D0C8
:1014E000424505D810EE902ADFF8108242457DDD96
:1014F00010EE100ADFF80882784A404505D810EE51
:10150000100ADFF80082404559DD012D53D015E067
:10151000424505D810EE902ADFF8E08142453CDDD7
:1015200010EE100A6D4A10F17B5F07D810EE100A1A
:1015300000E072E0DFF8D081404501DD32203BE081
:1015400010EE100ADFF8C481404524D210EE100AD4
:10155000DFF8BC8140451EDA5363BEF1010F12D1A2
:10156000009801280FD1BBF1010F0CD1BAF1010F86
:1015700009D1B9F1010F06D1BCF1010F03D1012F3F
:1015800001D1012E02D0012D02D05CE0012090613A
:10159000142B57DC57E0516354E010EE103A534DD2
:1015A0004E4AED431D445B4B91619D4240D3D16255
:1015B0001461D16147E019205163106143E010EEDE
:1015C000100ADFF848814045E5D210EE100ADFF836
:1015D00040814045DFDA5363BEF1010F14D100981A
:1015E000012811D1BBF1010F0ED100E016E0BAF1D4
:1015F000010F09D1B9F1010F06D1BCF1010F03D1DF
:10160000012F01D1012E02D0012D02D01BE00120BB
:1016100090610A2B17DD3C20106114E010EE103AA7
:10162000324D2E4AED431D443A4B91619D4207D203
:10163000D062032807DD642010610120D06102E040
:10164000D162D16114610298334A0068904241D15D
:10165000224C606A401C606264283BDB03206162AC
:1016600000F0C8FCA063042000F0C4FCE063052087
:1016700000F0C0FC2064082000F0BCFC60646068DE
:10168000012808D003B00023BDE8F04F1A461946E0
:10169000184600F00BBDA168A06B00F09FF9A06494
:1016A000A168E06B00F0C0F9E064E168206C00F034
:1016B000E1F92065E168606C00F002FA6065483489
:1016C000034694E8070000F0F1FCBDE8FE4F6420FB
:1016D00000F01CBABDE8FE8F004801400000002069
:1016E000E20000200000003800003443000020C168
:1016F000000020411C0100200000F0C20000F04268
:10170000000050C100005041000040410000A0C056
:101710000000A040FFFF7F00004401407047704779
:1017200070B5026804461068D168536910F00F0F55
:1017300052D003F0010501F490762E435FD0C2072A
:1017400005D0CA0503D5E26B42F00102E26342070D
:1017500005D5DA0703D0E26B42F00202E2638207AA
:1017600005D5DA0703D0E26B42F00402E263020718
:1017700007D501F020022A4303D0E26B42F00802B1
:10178000E263E26B002A33D0800604D5880602D5D6
:10179000204600F0F0FE20684069E16BC0F3801045
:1017A000090700D428B3204600F0D7FE206841691D
:1017B00049061AD5416921F040014161606BA0B131
:1017C0001B490165606BFEF7F6FD002810D0606BC9
:1017D000016DBDE870400847830610D58B060ED515
:1017E0002046BDE8704000F0C6BE2046FFF797FFD8
:1017F00070BD2046FFF793FF0020E06370BD030635
:1018000006D50B0604D52046BDE8704000F092BF17
:101810004006F3D54806F1D5D168204621F04001B5
:10182000D160202184F8391000F0D6F870BD000096
:101830004B25000870B5040004D094F83900002549
:1018400010B106E0012070BD84F83850204600F049
:1018500023F8242084F839002068C16821F400515D
:10186000C160204600F0D2FE2068016921F4904159
:1018700001612068416921F02A0141612068C16845
:1018800041F40051C160E563202084F8390084F8F8
:101890003A00002070BD000070B586B004461421E7
:1018A0006846FEF7C5FC2A4E22680021294802231B
:1018B00003240725B24222D1264A1432166846F084
:1018C00010061660126802F010020592026842F0DB
:1018D00001020260006802AA00F00100059082E89F
:1018E00032006002CDE9000369461B48FEF788FD1F
:1018F000002202212520FEF7DFFE252024E0174EDE
:10190000B24223D1134A1032166846F400361660EC
:10191000126802F400320592026842F00802026086
:10192000006802AA00F00800059082E832006020FA
:10193000CDE9000369460A48FEF762FD0022114620
:101940002620FEF7B9FE2620FEF7A8FE06B070BDE1
:1019500000100140303802400000024000440040C6
:10196000000C024090F83A30202B22D1F9B1F2B1AC
:1019700090F83830012B1CD081628285C28500210D
:10198000C163222280F83A2080F838100168CA68C2
:1019900042F48072CA6001684A6942F001024A61F9
:1019A0000068C16841F02001C1600020704701203B
:1019B0007047022070470000054810B50078FEF718
:1019C00075FCBDE81040012201490248FFF7CABF7B
:1019D000000000203C0300207047FEE7114A091A6E
:1019E000B2EE080A9068DFED0E0A081A01EE100A3E
:1019F000B8EEC11A21EE001A00EE101AB8EEC00AB5
:101A000000EE801A92ED010AB8EEC00A31EE000A2B
:101A1000BDEEC00A10EE100AC2E9010170470000D5
:101A20009A99993E78000020114A091AB2EE080AE4
:101A30005069DFED0E0A081A01EE100AB8EEC11A5D
:101A400021EE001A00EE101AB8EEC00A00EE801A5D
:101A500092ED040AB8EEC00A31EE000ABDEEC00AEB
:101A600010EE100AC2E90401704700009A99993EED
:101A700078000020114A091AB2EE080A106ADFED58
:101A80000E0A081A01EE100AB8EEC11A21EE001A69
:101A900000EE101AB8EEC00A00EE801A92ED070AA6
:101AA000B8EEC00A31EE000ABDEEC00A10EE100A10
:101AB000C2E90701704700009A99993E780000201A
:101AC000114A091AB2EE080AD06ADFED0E0A081AA6
:101AD00001EE100AB8EEC11A21EE001A00EE101A3B
:101AE000B8EEC00A00EE801A92ED0A0AB8EEC00AFB
:101AF00031EE000ABDEEC00A10EE100AC2E90A017A
:101B0000704700009A99993E7800002006490A68BB
:101B1000521C0A60824205DB002008600121034854
:101B2000FEF74FBD7047000074000020000802401F
:101B30002DE9F04387B014216846FEF779FB46484B
:101B40000024016841F010010160016801F01001FA
:101B50000591016841F080010160016801F0800198
:101B60000591016841F004010160016801F0040180
:101B70000591016841F001010160016801F0010176
:101B80000591016841F002010160016801F0020164
:101B90000591016841F00801016000682F4F00F0D5
:101BA0000800059000227F213846FEF711FDDFF87E
:101BB000B080002201214046FEF70AFDDFF8A49024
:101BC0007E15002231464846FEF702FD7F20009038
:101BD0000125CDE90154694638460394FEF710FC0F
:101BE0000095CDE90154694640460394FEF708FC90
:101BF00002208DE8310069464046FEF701FC0420D2
:101C0000CDE90004694640460294FEF7F9FBE8037B
:101C1000CDE90004694638460294FEF7F1FB4FF423
:101C20007C40CDE90004694648460294FEF7E8FB93
:101C30002802CDE9000469460B480294FEF7E0FB58
:101C40000096CDE90154694648460394FEF7D8FB57
:101C500007B0BDE8F08300003038024000100240B9
:101C60000008024000040240000C02400B4810B57E
:101C700009490160A721416000216322C0E90212E5
:101C8000016180218161FFF73FF8002803D0BDE8A2
:101C90001040FEF78FBB10BD004401407C020020C5
:101CA0000B4810B509490160A7214160002163225A
:101CB000C0E90212016180218161FFF725F8002847
:101CC00003D0BDE81040FEF775BB10BD00480140D1
:101CD000BC02002010B58EB000240794089409942B
:101CE0000A940B941C2168460C94FEF7A1FA2A482A
:101CF0004FF0804101602921C0E9011440F2E73131
:101D0000C0E9031480218161FEF7FEFF08B1FEF7F0
:101D100051FB4FF48050079007A91F48FFF767F861
:101D200008B1FEF747FB1C48FFF73DFB08B1FEF783
:101D300041FB0B940BA918480C94FEF79DFF08B1CA
:101D4000FEF738FB6020CDE90004029400226946CA
:101D500011480494FFF7BFFA08B1FEF72BFB0422E9
:101D600069460D48FFF7B7FA08B1FEF723FB0822D2
:101D700069460948FFF7AFFA08B1FEF71BFB0C22D2
:101D800069460548FFF7A7FA08B1FEF713FB0248BA
:101D9000FFF764FA0EB010BD3C01002010B58CB006
:101DA00024216846FEF744FA002416480994144991
:101DB0000A94C0E900144FF6FF71C0E90241802186
:101DC000046181610320CDE900040120CDE9020412
:101DD0000494CDE90540079469460A480894FFF742
:101DE00071F808B1FEF7E6FA099409A905480A94C2
:101DF000FEF742FF002801D0FEF7DCFA0CB010BD60
:101E0000000400407C01002010B58CB024216846FD
:101E1000FEF70EFA00241648099414490A94C0E902
:101E200000144FF6FF71C0E9024180210461816115
:101E30000320CDE900040120CDE902040494CDE99A
:101E40000540079469460A480894FFF73BF808B133
:101E5000FEF7B0FA099409A905480A94FEF70CFFA9
:101E6000002801D0FEF7A6FA0CB010BD0008004013
:101E7000BC01002010B58CB024216846FEF7D8F9CB
:101E800000241648099414490A94C0E900144FF636
:101E9000FF71C0E902418021046181610320CDE925
:101EA00000040120CDE902040494CDE90540079423
:101EB00069460A480894FFF705F808B1FEF77AFA70
:101EC000099409A905480A94FEF7D6FE002801D016
:101ED000FEF770FA0CB010BD000C0040FC010020B1
:101EE00010B58CB024216846FEF7A2F900241748EB
:101EF000099415490A94C0E900144FF6FF71C0E92E
:101F0000024180210461C0E905410320CDE90004BC
:101F10000120CDE902040494CDE905400794694607
:101F20000A480894FEF7CEFF08B1FEF743FA099479
:101F300009A906480A94FEF79FFE002801D0FEF783
:101F400039FA0CB010BD0000000401403C02002032
:101F50000C4810B50A4901604FF4E131416000219D
:101F600081600C22C160C0E904128161C161FFF788
:101F700061FC002803D0BDE81040FEF71BBA10BD7D
:101F800000100140FC0200200C4810B50A49016015
:101F90004FF416514160002181600C22C160C0E9FC
:101FA00004128161C161FFF745FC002803D0BDE840
:101FB0001040FEF7FFB910BD004400403C03002074
:101FC000FEE7000010B500210848FFF709FA0421D8
:101FD0000648FFF705FA08210448FFF701FABDE8B3
:101FE00010400C210148FFF7FBB900003C01002024
:101FF000704770470021032807D0042807D0052820
:102000000AD008280DD000207047074A00E0074A90
:10201000106800B2404202E0054A106800B2116048
:102020007047044AF4E700002404004024080040FC
:10203000240C0040240401407047000070B54FF4A8
:1020400080711648FEF7B8FA154C164E4FF400454D
:10205000206029463046FEF7AFFA6060A91030468E
:10206000FEF7AAFAA060E9103046FEF7A5FAE06094
:1020700069103046FEF7A0FA206129113046FEF7BC
:102080009BFA606169113046FEF796FAA061294615
:102090000548FEF791FAE06170BD0000000C0240B7
:1020A0001C01002000040240001002402DE9F04114
:1020B00080460D1E3048314C1E4617464FF40071C5
:1020C00004DD0122FEF784FA002203E00022FEF77D
:1020D0007FFA012201212046FEF77AFA284600F015
:1020E00039FC4FF080456863B8F1000F06DA012231
:1020F00002212046FEF76CFA002205E000220221B0
:102100002046FEF765FA012204212046FEF760FA18
:10211000404600F01FFCA863002F06DD01222021AD
:102120002046FEF755FA002205E000222021204635
:10213000FEF74EFA012240212046FEF749FA3846C2
:1021400000F008FCE863002E06DD0122082120468D
:10215000FEF73EFA002205E0002208212046FEF7A5
:1021600037FA012210212046FEF732FA304600F0FD
:10217000F1FB2864BDE8F081000402400010024039
:10218000FEF732BA30B593B030216846FEF750F80A
:1021900014210CA8FEF74CF819480025016841F0FD
:1021A00080510160006800F080501190154801686E
:1021B00041F4804101600068022400F480401190E5
:1021C00001200090000401908001CDE9064008AA9A
:1021D0000420A82182E813000B906846FEF788FBD4
:1021E0000CA90F2081E831004FF4A0500F90E002BD
:1021F000109005210CA8FEF791FA13B030BD000035
:1022000040380240007000400548016841F4700108
:10221000016003494FF0006080390860704700009A
:1022200088ED00E00148FEF766BF0000BC02002018
:102230000148FEF760BF00007C0200200148FEF765
:102240005ABF00003C0100200148FEF754BF0000C7
:102250007C0100200148FEF74EBF0000BC010020B9
:102260000148FEF748BF0000FC0100200148FEF7CE
:1022700042BF00003C020020F0B50268254C264D0C
:10228000264E274F274B4FF0804CA04209D0604587
:1022900007D0A84205D0B04203D0B84201D098423E
:1022A00004D122F0700E4A6842EA0E02A0421BD00E
:1022B000604519D0A84217D0B04215D0B84213D00B
:1022C000984211D0184DA8420ED0184DA8420BD0FC
:1022D000174DA84208D0174DA84205D0164DA84268
:1022E00002D0164DA84203D122F44075CA682A4391
:1022F0004D6922F080022A4302608A68C2620A683D
:102300008262A04201D0984201D109690163012192
:102310004161F0BD000001400004004000080040A1
:10232000000C004000040140004001400044014016
:102330000048014000180040001C00400020004000
:1023400010B501F01F030121046A99408C43046217
:10235000016A9A401143016210BD10B5846842EAD7
:10236000032224F47F440A432243826010BD826822
:1023700022F070020A4342F00701816070470000BA
:10238000F0B5026A22F001020262036A42688469BF
:10239000124E24F073050C682C4323F002058B6861
:1023A0002B430D4DA84201D0B04205D123F00807C0
:1023B000CB683B4323F00403A84201D0B04205D1CF
:1023C0004D6922F4407215438A692A434260846150
:1023D000496841630362F0BD000001400004014010
:1023E000F0B5026A22F010020262026A4368846950
:1023F0000D6824F4E64444EA05248D6822F02002A6
:1024000042EA05120F4D104EA84201D0B04206D14B
:10241000CF6822F0800242EA071222F04002A8426E
:1024200001D0B04207D14D6923F4406343EA8503EC
:102430008D6943EA85034360846149688163026270
:10244000F0BD00000000014000040140F0B5026A48
:1024500022F480720262026A4368C46922F4007244
:1024600024F073050C68124E2C438D6842EA052255
:102470000E4DA84201D0B04206D1CF6822F40062CE
:1024800042EA072222F48062A84201D0B04207D17A
:102490004D6923F4405343EA05138D6943EA05135C
:1024A0004360C4614968C1630262F0BD000001403D
:1024B0000004014030B5026A22F480520262046ACC
:1024C0004268C3690D6823F4E64343EA05238D6837
:1024D00024F4005444EA0534084DA84202D0084DC3
:1024E000A84204D14D6922F4804242EA851242603A
:1024F000C36149680164046230BD0000000001400E
:102500000004014010B5036A046A24F00104046267
:10251000846924F0F00444EA021423F00A020A4316
:102520008461026210BD10B5036A23F010030362D8
:102530008369046A23F4704343EA023224F0A0035F
:1025400043EA01118261016210BD10B5806B002168
:10255000C185C184FFF7E3F810BD0168CA6822F4A1
:102560009072CA6001684A6922F001024A61202122
:1025700080F83A10704710B590F83A10222901D02F
:10258000022010BD8168B1F5805F11D0016900297A
:1025900001681FD0496801F07F03816A4A1C82628A
:1025A0000B70C18D491E0904090CC18518D02BE0A0
:1025B0000269816A002A0268526805D0D2B20A8094
:1025C000816A491C8162ECE7C2F308020A80816AD1
:1025D000891CF7E74A68816A4B1C83620A70E0E74E
:1025E0000168CA6822F02002CA600168CA6822F441
:1025F0008072CA6001684A6922F001024A612021A2
:1026000080F83A10FFF7D8F9002010BD2DE9F0410D
:10261000044600680169E26821F4405111430161F8
:102620002169A068E2690843616911430843216890
:10263000CA6849F20C639A430243CA602068416940
:10264000A26921F4407111434161E06919276425B1
:102650003226B0F5004F354A354920684FF0000862
:1026600006D0884201D0904236D1FEF701F935E01C
:10267000884201D0904202D1FEF7FAF801E0FEF75D
:10268000E7F861684A18A0FB070148EB0803FDF76B
:1026900097FD0146B0FBF5F00201B1FBF5F06FF0DC
:1026A0001803584301EB800006EBC000B0FBF5F0C7
:1026B00000F0F80002EB4002B1FBF5F0584301EBEB
:1026C000800006EBC000B0FBF5F000F007002168C9
:1026D00010448860BDE8F081FEF7BAF861688B0F9E
:1026E0008A00A0FB0701FDF76BFD0146B0FBF5F08A
:1026F0006FF01802504301EB800006EB0010B0FBB6
:10270000F5F000F0F002B1FBF5F002EB0012B1FBC6
:10271000F5F06FF01803584301EB800006EB001052
:10272000B0FBF5F000F00F00D1E70000001401400D
:102730000010014090F83910212901D00220704783
:102740008168B1F5805F016A0BD04A1C02620268A1
:1027500009785160C18C491E0904090CC1840ED04E
:1027600017E009880268C1F3080151600169002976
:10277000016A02D0491C0162ECE7891CFBE7016891
:10278000CA6822F08002CA600068C16841F0400156
:10279000C1600020704700000148FEF7C1BF000083
:1027A000FC0200200148FEF7BBBF00003C030020F4
:1027B000FEE700000A49B42250420B68B42B01DD49
:1027C0000A6002E0834200DA086006490B68B42B15
:1027D00001DD0A6070478342FCDA08607047000040
:1027E000080000200C0000200021094A084600BF14
:1027F00052F8203003B9491C401C0528F8DB032996
:1028000001DB106808B1002070470120704700000C
:102810001C0100200907090E002804DB00F1E0205C
:1028200080F80014704700F00F0000F1E02080F8FD
:10283000141D704702E008C8121F08C1002AFAD10F
:1028400070477047002001E001C1121F002AFBD130
:1028500070470000FDF7D0FEFFF794FCFFF768F922
:10286000FFF776FBFFF790FBFFF734FAFFF796FAD6
:10287000FFF736FBFFF7C8FAFFF7FCFAFFF7F6F9A8
:10288000FFF70EFA2B48FEF7A1FA2B48FEF79EFA47
:10289000FFF798FBFDF772FD012228492848FFF752
:1028A00061F82848DFED280A244CB0F90400284DCF
:1028B00000EE100A0120B8EEC00A20EE200ADFED7B
:1028C000230A20EE200A84ED170A6060FFF7B6FBAA
:1028D0000220FDF783FD606918B3FFF785FFD0B1D3
:1028E0003220E060A0600A20FDF778FD6FF03B0623
:1028F0003C270220FDF772FDC4E90267FFF79EFB4B
:10290000E86840B1286930B1686920B1A86910B1A0
:10291000E8690028EDD100F021F800BFFFF74AFF79
:10292000D4E700F01BF8E0690128F7D1206A401CC9
:102930002062F3E77C020020BC020020000000209F
:102940003C030020E2000020000000380000344377
:102950001C010020002800DC40427047F0B53449DB
:10296000354B08469FED310A0269CE683148334C39
:10297000334D1B68F1EE040AF6B3F2B38A68EAB38A
:10298000D1E900720A26D7B3CAB34A69C2B30A466C
:102990008F69D269764297B38AB323602B60294E40
:1029A000002200BF51F8227046F82270521C082AFB
:1029B000F8DB86690169F0EE401A8A1B01EE102AE5
:1029C000B8EEC11A21EE201A00EE901AF8EEE00AD5
:1029D00001EEA01AD0ED070AF8EEE00A00EE201A88
:1029E00090ED050AC661B8EEC00A31EE000ABDEEF0
:1029F000C00A10EE102A04E00AE00CE00EE013E03A
:102A00000EE0C0E90521981A206098182860F0BDF2
:102A100042B1022206E06FF0010203E0062201E06B
:102A20006FF005020261BAE70661B8E70000000036
:102A30001C010020A8000020100000200800002039
:102A40000C0000209C03002000000000000000009B
:102A50000102030406070809000000000102030444
:102A6000802A0008000000201C0100003428000813
:102A70009C2B00081C0100209C0800004428000832
:102A800000000000000000003200000032000000E2
:102A90003200000000000000000000000000000004
:102AA0000000000000000000000000000000000026
:102AB0000000000000000000000000000000000016
:102AC0000000000000000000000000000000000006
:102AD00000000000000000000000000000000000F6
:102AE00000000000010000001000000000000000D5
:102AF0000024F400000000000000000000000000BE
:102B000000000000000000000000000000000000C5
:102B100000000000000000000000000000000000B5
:102B200000000000000000000000000000000000A5
:102B30000000000000000000000000000000000095
:102B40000000000000000000000000000000000085
:102B50000000000000000000000000000000000075
:102B60000000000000000000000000000000000065
:102B70000000000000000000000000000000000055
:102B80000000000000000000000000000000000045
:0C2B900000000000000000000000000039
:040000050800018965
:00000001FF
