:020000040800F2
:10000000600500209D01000841180008391500080E
:1000100011180008A9020008D51E00080000000001
:10002000000000000000000000000000451800086B
:10003000AB02000800000000431800087D1800080B
:10004000B7010008B7010008B7010008B7010008B0
:10005000B7010008B7010008B7010008B7010008A0
:10006000B7010008B7010008B7010008B701000890
:10007000B7010008B7010008B7010008B701000880
:10008000B7010008B7010008B7010008B701000870
:10009000B7010008B7010008B7010008B701000860
:1000A000B7010008B7010008B7010008B701000850
:1000B000211900082D190008B7010008B701000830
:1000C000B7010008B7010008B7010008B701000830
:1000D000B7010008B7010008BD1E0008C91E0008CE
:1000E000B7010008B7010008B7010008B701000810
:1000F000B7010008B7010008B7010008B701000800
:10010000B7010008B7010008B7010008B7010008EF
:10011000B7010008B7010008B7010008B7010008DF
:10012000B7010008B7010008B7010008B7010008CF
:10013000B7010008B7010008B7010008B7010008BF
:10014000B7010008B7010008B7010008B7010008AF
:10015000B7010008B7010008B7010008B70100089F
:10016000B7010008B7010008B7010008B70100088F
:10017000B7010008B7010008B7010008000000003F
:10018000B7010008B7010008DFF80CD000F07AF8DA
:1001900000480047151F00086005002006488047FA
:1001A00006480047FEE7FEE7FEE7FEE7FEE7FEE75C
:1001B000FEE7FEE7FEE7FEE70519000889010008F3
:1001C0002DE9F05F0546002092469B46884606468C
:1001D000814640241BE0284641464746224600F01F
:1001E00041F853465A46C01A914110D31146184659
:1001F000224600F028F82D1A67EB01084F462246E8
:100200000120002100F01FF817EB00094E41201ECD
:10021000A4F10104DFDC484631462A464346BDE8E6
:10022000F09FD2B201E000F8012B491EFBD27047CB
:100230000022F6E710B513460A4604461946FFF7B2
:10024000F0FF204610BD202A04DB203A00FA02F11C
:10025000002070479140C2F1200320FA03F31943B4
:1002600090407047202A04DB203A21FA02F0002156
:10027000704721FA02F3D040C2F1200291400843B6
:1002800019467047064C074D06E0E06840F0010350
:1002900094E8070098471034AC42F6D3FFF778FF94
:1002A0009C1F0008BC1F0008FEE77047704790F8CD
:1002B0003510022903D080214165012070470521B6
:1002C00080F835100068016821F00101016000200C
:1002D0007047000070B5044600F0F0F80546601C59
:1002E00002D004480078044400F0E8F8401BA04223
:1002F000FAD370BD040000202DE9F84F00224FF022
:10030000010803254FF00F0E0B6808FA02F4234092
:10031000A3426ED14E68012E05D0022E03D0112EBD
:1003200001D0122E12D186684FEA420C05FA0CF762
:10033000BE43CF6807FA0CF7374387604668A64389
:100340000C79C4F30014944034434460C6685700E9
:1003500005FA07FC8C6826EA0C06BC403443C460EE
:100360004C68022C01D0122C13D1D40800EB840469
:10037000A346D4F8209054074FEAD46A0EFA0AF63E
:1003800029EA06090E6906FA0AF646EA0906CBF8D2
:10039000206006680C7926EA0C0604F00304BC40D1
:1003A000344304604C68E40065D5364C266846F456
:1003B00080462660246822F0030604F480440094FA
:1003C000314C3444A446D4F808489607370F0EFA47
:1003D00007F6B4432D4EB04201D1002624E02C4E46
:1003E000B04201D101261FE02A4EB04202D10226BE
:1003F0001AE040E0284EB04201D1032614E0274E17
:10040000B04201D104260FE0254EB04201D10526AD
:100410000AE0244EB04201D1062605E0224EB04249
:1004200001D1072600E00826BE402643CCF8086824
:100430001E4E34684F689C43FF0300D51C43346054
:100440001A4C241D26684F689E43BF0300D51E43E7
:100450002660164E083634684F689C43FF0200D56C
:100460001C433460114E0C3634684F689C43BF0205
:1004700000D51C433460521C102AFFF445AFBDE880
:10048000F88F000044380240003001400000024074
:100490000004024000080240000C0240001002402C
:1004A0000014024000180240001C0240003C0140C1
:1004B0000AB1816170470904FBE7000001488068C8
:1004C000704700000400002002488168027811444F
:1004D00081607047040000200B4810B5016841F4AA
:1004E00000710160016841F480610160016841F4BC
:1004F00080710160032000F06FF8002000F006F822
:1005000000F024F8002010BD003C024070B50D4DF5
:1005100004464FF47A712878B1FBF0F00A49096873
:10052000B1FBF0F000F002FB48B9102C07D200221A
:100530002146501E00F030F800206C6070BD012094
:1005400070BD000004000020100000200A4808B51B
:10055000016841F480410160006800F4804000902F
:100560000548001F016841F080510160006800F0FB
:100570008050009008BD000044380240002809DB8C
:1005800000F01F02012191404009800000F1E020AD
:10059000C0F8001170470000F0B40E4B1B680C4609
:1005A000C3F30223C3F10705042D00D90425191D47
:1005B000072901D2002300E0DB1E012606FA05F11F
:1005C000491E214099409E40761E16403143F0BCA2
:1005D00001F081BC0CED00E0064900F0070208685C
:1005E0004FF6FF03184040EA0220034A1043086018
:1005F000704700000CED00E00000FA052DE9F0471F
:100600000E46050065D0DFF81481D8F80000F7B277
:1006100000F00F00B04207D288F80070D8F8000050
:1006200000F00F00B04254D128683D4C810712D52C
:10063000400703D5206840F4E05020602878000788
:1006400003D5206840F4604020602068A96820F04D
:10065000F000084320602878C0072DD03049686832
:100660000839012812D0022813D0032811D00968B4
:10067000890700292DDA216821F003010143216057
:10068000FFF71CFF814641F2883A0EE009688903B2
:10069000EFE709688901ECE7FFF710FFA0EB09011C
:1006A000514502D90320BDE8F0872068696800F051
:1006B0000C00B0EB810FEFD1D8F80010404601F0EC
:1006C0000F01B14207D90770006800F00F00B04277
:1006D00001D00120E7E72878400705D52068E968C0
:1006E00020F4E050084320602878000706D52068F1
:1006F000296920F4604040EAC100206000F038F829
:100700002168084AC1F30311515CC84006490860DA
:1007100006480068FFF7FAFE0020C4E7003C0240EC
:1007200008380240841F0008100000200800002044
:100730000448054900680968044AC1F38221515CF4
:10074000C84070471000002008380240941F00087D
:100750000448054900680968044AC1F34231515C04
:10076000C84070471000002008380240941F00085D
:10077000154810B5006810F00C02144813D0411051
:10078000042A0FD0082A0ED10F4C241F2268236898
:1007900002F03F025B0207D52068C0F38810A0FB7F
:1007A000010106E0084610BD2168C1F38811A1FBD4
:1007B00000010023FFF704FD2168C1F30141491C3A
:1007C0004900B0FBF1F010BD083802400024F400ED
:1007D0002DE9F84F04006ED02078DFF83C93C00775
:1007E000A9F104054AD009F104000168C1F38101AF
:1007F000012908D00068C0F3810002280AD1D9F885
:100800000000400206D52868800337D560680028BC
:10081000E1D033E06068B0F5803F10D0B0F5A02F94
:10082000286810D020F480302860286820F48020C8
:1008300028606068A8B1FFF741FE06460DE0286811
:1008400040F48030F4E740F480202860F7E700BFF0
:10085000FFF734FE801B642873D828688003F7D51F
:100860000CE0FFF72BFE064605E000BFFFF726FE73
:10087000801B6428F0D828688003F7D42078DFF83C
:100880009C8280074FF0000A3ED5A348001D0168F6
:1008900011F00C0F08D00068C0F3810002280BD1C2
:1008A000D9F80000400207D42868800716D5E06810
:1008B000012800D112E02BE1E068B8B10120C8F8AE
:1008C0000000FFF7FBFD064605E000BFFFF7F6FD61
:1008D000801B0228C0D828688007F7D528682169BE
:1008E00020F0F80040EAC10028600DE0C8F800A040
:1008F000FFF7E4FD064604E0FFF7E0FD801B022859
:100900001FD828688007F7D42078000722D5824EA8
:1009100083486169703671B101210160FFF7CEFD36
:10092000074604E0FFF7CAFDC01B022809D830685B
:100930008007F7D50EE0C0F800A0FFF7BFFD07461F
:1009400005E082E0FFF7BAFDC01B02287DD83068C1
:100950008007F7D42078400768D5DFF8BCB10027BE
:100960000BF13C0BDBF80000C0000BD4DBF80010EF
:1009700041F08051CBF80010DBF80000012700F0B7
:1009800080500090674E3068C00510D4306840F445
:1009900080703060FFF792FD009005E0FFF78EFD5C
:1009A0000099401A022850D83068C005F6D55A4E32
:1009B000A0686C3601280FD00528306810D020F0D0
:1009C00001003060306820F004003060A068B8B1E9
:1009D000FFF774FD00900FE0306840F00100F4E78D
:1009E00040F004003060F7E7FFF768FD0099411A16
:1009F00041F28830814266D830688007F4D50EE035
:100A0000FFF75CFD009007E0FFF758FD0099411AE1
:100A100041F28830814256D830688007F4D42FB133
:100A2000DBF8001021F08051CBF80010A069C8B3AA
:100A30003949091D0968C1F3810102294AD00228F8
:100A4000504607D0C8F8600000E03CE0FFF736FDF4
:100A500004463BE04746C8F86000FFF72FFD064616
:100A600005E000BFFFF72AFD801B02282BD828686D
:100A70008001F7D4D4E907010843A16A2A4A49084A
:100A800002EB0141626A41EA8211084394F82C109A
:100A900040EA0161C9F8001001203866FFF70EFD39
:100AA000044606E036E000BFFFF708FD001B022801
:100AB00009D828688001F7D52CE000BFFFF7FEFCBD
:100AC000001B022802D90320BDE8F88F28688001A6
:100AD000F4D41FE00128F7D0D9F80000E26900F44F
:100AE0008001914214D1226A00F03F0191420FD15E
:100AF00047F6C071626A0140914209D1A26A00F4CE
:100B00004031914204D1E16A00F07060884201D026
:100B10000120D9E70020D7E704380240000047420F
:100B2000800E4742007000400000FFFF10B5401EDD
:100B3000B0F1807F01D3012010BD4FF0E02460614F
:100B40000F21601701F0C7F90020A0610720206184
:100B5000002010BD7047704770B590F83C20012A06
:100B600032D0012480F83C40022280F83D20036806
:100B70005A689D6822F070060A6832435A60134B27
:100B800002689A4214D0B2F1804F11D0104B9A42B1
:100B90000ED0104B9A420BD00F4B9A4208D00F4BFD
:100BA0009A4205D00E4B9A4202D00E4B9A4204D183
:100BB000496825F080031943916080F83D40002189
:100BC00080F83C10084670BD022070BD0000014056
:100BD0000004004000080040000C004000040140F8
:100BE000004001400018004010B5040003D094F804
:100BF0003D0010B107E0012010BD002084F83C004A
:100C0000204600F00DF8022084F83D00211D2068E8
:100C100000F092FE012084F83D00002010BD00008D
:100C200008B50068B0F1804F12D10A48016841F060
:100C3000010101600068002200F0010000901146EF
:100C40001C20FFF7A9FCBDE808401C20FFF796BC5C
:100C500008BD00004038024070B5044690F83C00E2
:100C6000012817D0012584F83C50022084F83D006B
:100C70002068826822F0770222F47F42826008684E
:100C8000502830D00DDC20284DD005DC98B310283A
:100C90003BD148E0022070BD302844D0402834D1F8
:100CA00039E0602828D0702806D0B0F5805F2CD0BD
:100CB000B0F5005F29D10AE0CB68D1E901212068B5
:100CC00000F0ABFE2068816841F0770109E0CB6855
:100CD000D1E90121206800F0A0FE2068816841F47C
:100CE0008041816011E0CA684968206800F06AFFAD
:100CF0005021206807E016E0CA684968206800F0C3
:100D000072FF6021206800F092FE84F83D500020C0
:100D100084F83C0070BDCA684968206800F052FF42
:100D200040212068EFE7226801461046EBE72DE9F5
:100D3000F0410D46040003D094F83D0018B108E0DE
:100D40000120BDE8F081002084F83C00204600F03E
:100D50003BF8022084F83D002068816844F20702D5
:100D600091438160211D206800F0E6FD22689068B3
:100D70009169166A2B68AF69034340F203308143DF
:100D800041EA0721A868EF6908434FF6FC41884310
:100D9000E96840EA0720014328692F6A000140EA18
:100DA0000730084369686D6926F0AA0646EA05150A
:100DB000294393602268906120680162012084F8D1
:100DC0003D000020BDE7000010B586B004461421A8
:100DD0006846FFF72DFA16492068884226D1154843
:100DE0000021026842F002020260006800F0020086
:100DF000059010481038026842F001020260006855
:100E000000F001000590C02000900220CDE9010112
:100E1000CDE9031069460848FFF76EFA0022114633
:100E20001D20FFF7B9FB1D20FFF7A8FB06B010BD82
:100E300000040040403802400000024010B5044663
:100E4000006891B1042904D00122002100F0D8FDEE
:100E5000206801225FF0040100F0D2FD20680168E3
:100E600041F001010160002010BD01220021F3E7E3
:100E7000704770B50446006801694FF00005C9432A
:100E8000890715D4C168C943890711D4E91E0161D6
:100E900001202077206880698007204602D0FFF774
:100EA000E7FF04E000F0C0F8204600F042F92577A3
:100EB00020680169C943490717D4C168C943490774
:100EC00013D46FF00401016102202077206880694B
:100ED00010F4407F204602D0FFF7CAFF04E000F084
:100EE000A3F8204600F025F9257720680169C94359
:100EF000090716D4C168C943090712D46FF0080165
:100F00000161042020772068C0698007204602D054
:100F1000FFF7AEFF04E000F087F8204600F009F983
:100F2000257720680169C943C90617D4C168C94338
:100F3000C90613D46FF010010161082020772068E2
:100F4000C06910F4407F204602D0FFF791FF04E013
:100F500000F06AF8204600F0ECF825772068016977
:100F6000C943C90708D1C168C943C90704D1891E4B
:100F70000161204600F000F920680169C9430906B3
:100F800009D4C168C943090605D46FF08001016125
:100F90002046FFF7DFFD20680169C943490609D4EF
:100FA000C168C943490605D46FF04001016120467C
:100FB00000F0E3F820680169C94389060BD4C168D1
:100FC000C943890607D46FF0200101612046BDE8BE
:100FD0007040FFF7C0BD70BD10B586B00446142147
:100FE0006846FFF725F92068B0F1804F15D10C480D
:100FF0000021026842F001020260006800F0010076
:1010000005900F2000900220CDE901010120CDE9DB
:10101000031069460348FFF76FF906B010BD0000E2
:101020003038024000000240704770B5044690F826
:101030003C000D4601280DD0012684F83C600220BA
:1010400084F83D0042B1042A18D0082A2AD00C2A7C
:101050004DD139E0022070BD206800F0F1FC20681D
:10106000816941F0080181612068816921F00401F2
:101070008161206881692A69114311E0206800F0CC
:101080000FFD2068816941F40061816120688169F8
:1010900021F480618161206881692A6941EA022125
:1010A000816124E0206800F031FD2068C16941F0D1
:1010B0000801C1612068C16921F00401C161206893
:1010C000C1692A69114311E0206800F053FD2068CE
:1010D000C16941F40061C1612068C16921F4806186
:1010E000C1612068C1692A6941EA0221C16184F8AD
:1010F0003D60002084F83C0070BD10B5040003D0B2
:1011000094F83D0010B107E0012010BD002084F8E4
:101110003C00204600F00CF8022084F83D00211D20
:10112000206800F009FC012084F83D00002010BD7B
:101130007047704710B504460068012200F060FC5B
:101140000B492068884202D00A49884203D1416C89
:1011500041F4004141642068816801F007010629DB
:1011600003D0016841F001010160002010BD0000C2
:1011700000000140000401407047704770470000C4
:1011800070B5026804461068D168536910F00F0FFB
:1011900052D003F0010501F490762E435FD0C207D0
:1011A00005D0CA0503D5E26B42F00102E2634207B3
:1011B00005D5DA0703D0E26B42F00202E263820750
:1011C00005D5DA0703D0E26B42F00402E2630207BE
:1011D00007D501F020022A4303D0E26B42F0080257
:1011E000E263E26B002A33D0800604D5880602D57C
:1011F000204600F020FD20684069E16BC0F38010BC
:10120000090700D428B3204600F007FD2068416993
:1012100049061AD5416921F040014161606BA0B1D6
:101220001B490165606BFFF742F8002810D0606B26
:10123000016DBDE870400847830610D58B060ED5BA
:101240002046BDE8704000F0F6BC2046FFF796FF50
:1012500070BD2046FFF792FF0020E06370BD0306DB
:1012600006D50B0604D52046BDE8704000F0C2BD8F
:101270004006F3D54806F1D5D168204621F040015B
:10128000D160202184F8391000F055F970BD0000BC
:101290000B1C000870B5040004D094F83900002538
:1012A00010B106E0012070BD84F83850204600F0EF
:1012B00023F8242084F839002068C16821F4005103
:1012C000C160204600F002FD2068016921F49041D0
:1012D00001612068416921F02A0141612068C168EB
:1012E00041F40051C160E563202084F8390084F89E
:1012F0003A00002070BD0000F0B587B0044614210C
:101300006846FEF795FF3A4A2668002139480223CD
:101310000324072596421DD1364A1432166846F03A
:1013200010061660126802F010020592026842F080
:1013300001020260006802AA00F00100059082E844
:1013400032006002CDE9000369462B48FEF7D4FF66
:1013500007B0F0BD274A294F1032BE4220D116688F
:1013600046F400361660126802F4003205920268F4
:1013700042F008020260006802AE00F0080005902A
:1013800086E832006020CDE9000369461C48FEF77C
:10139000B3FF002211462620FFF7FEF8262023E0A7
:1013A000184FBE42D4D1166846F4802616601268E3
:1013B00002F480220592026842F002020260006894
:1013C00002AE00F00200059086E832004FF4406063
:1013D000CDE9000369460C48FEF78EFF0022114656
:1013E0002720FFF7D9F82720FFF7C8F8B0E700005B
:1013F000001001403038024000000240004400402C
:10140000000C0240004800400004024090F83A30CE
:10141000202B22D1F9B1F2B190F83830012B1CD039
:1014200081628285C2850021C163222280F83A2030
:1014300080F838100168CA6842F48072CA60016896
:101440004A6942F001024A610068C16841F0200126
:10145000C1600020704701207047022070470000E3
:1014600004490A4650680144401C50600122024869
:10147000FFF7CCBF140000201C0100202DE9F84329
:10148000044690F839001F4616460D46202850D1D4
:10149000B5B1AEB194F8380001284AD0012084F8E3
:1014A00038004FF00008C4F83C80212084F839004F
:1014B000FFF704F8A6848146E68484F8388026E0A5
:1014C0000120BDE8F883E08C401EE084A0684B4614
:1014D000B0F5805F4FF000024FF08001204600978A
:1014E00003D000F0B8FCE8B90DE000F0B4FCC8B9D6
:1014F00028882168C0F308004860206908B16D1C85
:1015000005E0AD1C03E0216815F8010B4860E08C94
:101510000028D8D14B46002240212046009700F0F9
:101520009AFC08B10320CCE7202084F83900002081
:10153000C7E70220C5E77047FEE700002DE9F0434A
:1015400087B014216846FEF773FE36480024016810
:1015500041F010010160016801F01001059101687E
:1015600041F080010160016801F08001059101688E
:1015700041F004010160016801F004010591016876
:1015800041F001010160016801F00101059101686C
:1015900041F002010160016801F00201059101685A
:1015A00041F00801016000681F4F00F0080005903D
:1015B00000227F213846FEF77BFFDFF87080002293
:1015C00001214046FEF774FFDFF864907E1500228B
:1015D00031464846FEF76CFF7F2000900125CDE99B
:1015E0000154694638460394FEF786FE0095CDE91E
:1015F0000154694640460394FEF77EFE0220CDE981
:101600000004694640460294FEF776FE0096CDE956
:101610000154694648460394FEF76EFE07B0BDE8E4
:10162000F083000030380240001002400008024001
:101630000004024010B58EB0002407940894099469
:101640000A940B941C2168460C94FEF7F1FD2A487D
:101650004FF08041C0E9001442F2CF01C0E90241DD
:10166000802104618161FFF7BFFA08B1FEF71EFE19
:101670004FF48050079007A91F48FFF7EDFA08B113
:10168000FEF714FE1C48FFF738FD08B1FEF70EFE0A
:101690000B940BA918480C94FFF75EFA08B1FEF7FB
:1016A00005FE6020CDE9000402940022694612483C
:1016B0000494FFF7BAFC08B1FEF7F8FD042269466E
:1016C0000D48FFF7B2FC08B1FEF7F0FD08226946AD
:1016D0000948FFF7AAFC08B1FEF7E8FD0C226946AD
:1016E0000548FFF7A2FC08B1FEF7E0FD0248FFF74E
:1016F00073FC0EB010BD00001C00002010B58CB0B3
:1017000024216846FEF794FD0024164809941449E4
:101710000A94C0E900144FF6FF71C0E9024180212C
:10172000046181610320CDE900040120CDE90204B8
:101730000494CDE90540079469460A480894FFF7E8
:10174000F6FA08B1FEF7B2FD099409A905480A9412
:10175000FFF702FA002801D0FEF7A8FD0CB010BD7B
:10176000000400405C0000200C4810B50A490160EC
:101770004FF4E1314160002181600C22C160C0E979
:1017800004128161C161FFF785FD002803D0BDE827
:101790001040FEF78BBD10BD001001409C000020E2
:1017A0000C4810B50A4901604FF4E1314160002155
:1017B00081600C22C160C0E904128161C161FFF740
:1017C00069FD002803D0BDE81040FEF76FBD10BDD5
:1017D00000440040DC0000200C4810B50A490160BC
:1017E0004FF416514160002181600C22C160C0E9B4
:1017F00004128161C161FFF74DFD002803D0BDE8EF
:101800001040FEF753BD10BD004800401C010020F1
:10181000FEE7000010B500210848FFF78BFC04210B
:101820000648FFF787FC08210448FFF783FCBDE862
:1018300010400C210148FFF77DBC00001C00002077
:10184000704770477047000008B557208DF80000BA
:101850004FF47A73012269460648FFF70FFE0649E6
:101860000A4650680144401C506001220148FFF7BD
:10187000CDFD08BD1C01002014000020FEF724BE91
:1018800030B593B030216846FEF7D2FC14210CA885
:10189000FEF7CEFC19480025016841F08051016037
:1018A000006800F0805011901548016841F48041B3
:1018B00001600068022400F4804011900120009033
:1018C000000401908001CDE9064008AA0420A82167
:1018D00082E813000B906846FEF77AFF0CA90F20F0
:1018E00081E831004FF4A0500F90E00210900521E4
:1018F0000CA8FEF783FE13B030BD00004038024054
:10190000007000400548016841F47001016003491E
:101910004FF00060803908607047000088ED00E0FB
:101920000148FFF7A6BA00001C0000200148FFF79D
:10193000A0BA00005C000020F0B50268254C264DDE
:10194000264E274F274B4FF0804CA04209D06045D0
:1019500007D0A84205D0B04203D0B84201D0984287
:1019600004D122F0700E4A6842EA0E02A0421BD057
:10197000604519D0A84217D0B04215D0B84213D054
:10198000984211D0184DA8420ED0184DA8420BD045
:10199000174DA84208D0174DA84205D0164DA842B1
:1019A00002D0164DA84203D122F44075CA682A43DA
:1019B0004D6922F080022A4302608A68C2620A6886
:1019C0008262A04201D0984201D1096901630121DC
:1019D0004161F0BD000001400004004000080040EB
:1019E000000C004000040140004001400044014060
:1019F0000048014000180040001C0040002000404A
:101A000010B501F01F030121046A99408C43046260
:101A1000016A9A401143016210BD10B5846842EA20
:101A2000032224F47F440A432243826010BD82686B
:101A300022F070020A4342F0070181607047000003
:101A4000F0B5026A22F001020262036A4268846908
:101A5000124E24F073050C682C4323F002058B68AA
:101A60002B430D4DA84201D0B04205D123F0080709
:101A7000CB683B4323F00403A84201D0B04205D118
:101A80004D6922F4407215438A692A434260846199
:101A9000496841630362F0BD000001400004014059
:101AA000F0B5026A22F010020262026A4368846999
:101AB0000D6824F4E64444EA05248D6822F02002EF
:101AC00042EA05120F4D104EA84201D0B04206D195
:101AD000CF6822F0800242EA071222F04002A842B8
:101AE00001D0B04207D14D6923F4406343EA850336
:101AF0008D6943EA850343608461496881630262BA
:101B0000F0BD00000000014000040140F0B5026A91
:101B100022F480720262026A4368C46922F400728D
:101B200024F073050C68124E2C438D6842EA05229E
:101B30000E4DA84201D0B04206D1CF6822F4006217
:101B400042EA072222F48062A84201D0B04207D1C3
:101B50004D6923F4405343EA05138D6943EA0513A5
:101B60004360C4614968C1630262F0BD0000014086
:101B70000004014030B5026A22F480520262046A15
:101B80004268C3690D6823F4E64343EA05238D6880
:101B900024F4005444EA0534084DA84202D0084D0C
:101BA000A84204D14D6922F4804242EA8512426083
:101BB000C36149680164046230BD00000000014057
:101BC0000004014010B5036A046A24F001040462B1
:101BD000846924F0F00444EA021423F00A020A4360
:101BE0008461026210BD10B5036A23F01003036222
:101BF0008369046A23F4704343EA023224F0A003A9
:101C000043EA01118261016210BD10B5806B0021B1
:101C1000C185C184FFF7B2FA10BD0168CA6822F419
:101C20009072CA6001684A6922F001024A6120216B
:101C300080F83A10704710B590F83A10222901D078
:101C4000022010BD8168B1F5805F11D001690029C3
:101C500001681FD0496801F07F03816A4A1C8262D3
:101C60000B70C18D491E0904090CC18518D02BE0E9
:101C70000269816A002A0268526805D0D2B20A80DD
:101C8000816A491C8162ECE7C2F308020A80816A1A
:101C9000891CF7E74A68816A4B1C83620A70E0E797
:101CA0000168CA6822F02002CA600168CA6822F48A
:101CB0008072CA6001684A6922F001024A612021EB
:101CC00080F83A10FFF7CCFB002010BD2DE9F04161
:101CD000044600680169E26821F440511143016142
:101CE0002169A068E26908436169114308432168DA
:101CF000CA6849F20C639A430243CA60206841698A
:101D0000A26921F4407111434161E06919276425FA
:101D10003226B0F5004F354A354920684FF00008AB
:101D200006D0884201D0904236D1FEF711FD35E051
:101D3000884201D0904202D1FEF70AFD01E0FEF791
:101D4000F7FC61684A18A0FB070148EB0803FEF79F
:101D500037FA0146B0FBF5F00201B1FBF5F06FF088
:101D60001803584301EB800006EBC000B0FBF5F010
:101D700000F0F80002EB4002B1FBF5F0584301EB34
:101D8000800006EBC000B0FBF5F000F00700216812
:101D900010448860BDE8F081FEF7CAFC61688B0FD3
:101DA0008A00A0FB0701FEF70BFA0146B0FBF5F035
:101DB0006FF01802504301EB800006EB0010B0FBFF
:101DC000F5F000F0F002B1FBF5F002EB0012B1FB10
:101DD000F5F06FF01803584301EB800006EB00109C
:101DE000B0FBF5F000F00F00D1E700000014014057
:101DF0000010014090F83910212901D002207047CD
:101E00008168B1F5805F016A0BD04A1C02620268EA
:101E100009785160C18C491E0904090CC1840ED097
:101E200017E009880268C1F30801516001690029BF
:101E3000016A02D0491C0162ECE7891CFBE70168DA
:101E4000CA6822F08002CA600068C16841F040019F
:101E5000C160002070472DE9F041984617460E46B4
:101E60000446069D1DE0681C1BD02DB1FEF726FB25
:101E7000A0EB0800A84214D92068C16821F4D071F1
:101E8000C1602068416921F001014161202084F88E
:101E9000390084F83A00002084F838000320BDE8B7
:101EA000F0812068006836EA000004D00020B842C3
:101EB000D9D00020F3E70120F9E700000148FFF73F
:101EC0005FB90000DC0000200148FFF759B90000AD
:101ED0001C010020FEE70907090E002804DB00F1C1
:101EE000E02080F80014704700F00F0000F1E020BF
:101EF00080F8141D704702E008C8121F08C1002AAC
:101F0000FAD170477047002001E001C1121F002A7A
:101F1000FBD17047FEF7E0FAFFF7B2FCFFF70EFBCC
:101F2000FFF722FCFFF73CFCFFF756FCFFF782FBB4
:101F3000FFF7E4FBFFF788FCFFF76CFC3C210D4842
:101F4000FEF77CFF4FF08041002088630A4C01229D
:101F500002212046FEF7ACFA002204212046FEF7BB
:101F6000A7FA064C064D206800B228600A20FEF74A
:101F7000B1F9F8E75C0000200010024024040040A2
:101F80000000002000000000000000000102030427
:101F9000060708090000000001020304BC1F000836
:101FA000000000201C000000F61E0008D81F0008DA
:101FB0001C00002044050000061F0008000000006F
:101FC0000100000010000000000000000024F400E8
:081FD000000000000000000009
:040000050800018965
:00000001FF
