:020000040800F2
:10000000680600209D010008931A00081D160008CC
:10001000911A0008A90200088D21000800000000C4
:10002000000000000000000000000000DD1A0008D1
:10003000AB02000800000000951A0008151B00081C
:10004000B7010008B7010008B7010008B7010008B0
:10005000B7010008B7010008B7010008B7010008A0
:10006000B7010008B7010008B7010008B701000890
:10007000B7010008B7010008B7010008B701000880
:10008000B7010008B7010008B7010008B701000870
:10009000B7010008B7010008B7010008B701000860
:1000A000B7010008B91B0008B7010008B701000834
:1000B000C51B0008D11B0008DD1B0008B7010008A4
:1000C000B7010008B7010008B7010008B701000830
:1000D000B701000869210008752100088121000886
:1000E000B7010008B7010008B7010008B701000810
:1000F000F51B0008B7010008B7010008B7010008A8
:10010000B7010008B7010008E91B0008B7010008A3
:10011000B7010008B7010008B7010008B7010008DF
:10012000B7010008B7010008B7010008B7010008CF
:10013000B7010008B7010008B7010008B7010008BF
:10014000B7010008B7010008B7010008B7010008AF
:10015000B7010008B7010008B7010008B70100089F
:10016000B7010008B7010008B7010008B70100088F
:10017000B7010008B7010008B7010008000000003F
:10018000B7010008B7010008DFF80CD000F07AF8DA
:1001900000480047CD210008680600200648804737
:1001A00006480047FEE7FEE7FEE7FEE7FEE7FEE75C
:1001B000FEE7FEE7FEE7FEE79D1B00088901000859
:1001C0002DE9F05F0546002092469B46884606468C
:1001D000814640241BE0284641464746224600F01F
:1001E00041F853465A46C01A914110D31146184659
:1001F000224600F028F82D1A67EB01084F462246E8
:100200000120002100F01FF817EB00094E41201ECD
:10021000A4F10104DFDC484631462A464346BDE8E6
:10022000F09FD2B201E000F8012B491EFBD27047CB
:100230000022F6E710B513460A4604461946FFF7B2
:10024000F0FF204610BD202A04DB203A00FA02F11C
:10025000002070479140C2F1200320FA03F31943B4
:1002600090407047202A04DB203A21FA02F0002156
:10027000704721FA02F3D040C2F1200291400843B6
:1002800019467047064C074D06E0E06840F0010350
:1002900094E8070098471034AC42F6D3FFF778FF94
:1002A0003022000850220008FEE77047704790F89F
:1002B0003510022903D080214165012070470521B6
:1002C00080F835100068016821F00101016000200C
:1002D0007047000070B5044600F0F6F80546601C53
:1002E00002D004480078044400F0EEF8401BA0421D
:1002F000FAD370BD000000202DE9F84F00224FF026
:10030000010803254FF00F0E0B6808FA02F4234092
:10031000A3426ED14E68012E05D0022E03D0112EBD
:1003200001D0122E12D186684FEA420C05FA0CF762
:10033000BE43CF6807FA0CF7374387604668A64389
:100340000C79C4F30014944034434460C6685700E9
:1003500005FA07FC8C6826EA0C06BC403443C460EE
:100360004C68022C01D0122C13D1D40800EB840469
:10037000A346D4F8209054074FEAD46A0EFA0AF63E
:1003800029EA06090E6906FA0AF646EA0906CBF8D2
:10039000206006680C7926EA0C0604F00304BC40D1
:1003A000344304604C68E40065D5364C266846F456
:1003B00080462660246822F0030604F480440094FA
:1003C000314C3444A446D4F808489607370F0EFA47
:1003D00007F6B4432D4EB04201D1002624E02C4E46
:1003E000B04201D101261FE02A4EB04202D10226BE
:1003F0001AE040E0284EB04201D1032614E0274E17
:10040000B04201D104260FE0254EB04201D10526AD
:100410000AE0244EB04201D1062605E0224EB04249
:1004200001D1072600E00826BE402643CCF8086824
:100430001E4E34684F689C43FF0300D51C43346054
:100440001A4C241D26684F689E43BF0300D51E43E7
:100450002660164E083634684F689C43FF0200D56C
:100460001C433460114E0C3634684F689C43BF0205
:1004700000D51C433460521C102AFFF445AFBDE880
:10048000F88F000044380240003001400000024074
:100490000004024000080240000C0240001002402C
:1004A0000014024000180240001C0240003C0140C1
:1004B000426931EA020200D10904816170470AB140
:1004C000816170470904FBE70148806870470000BC
:1004D0000000002002488168027811448160704762
:1004E000000000200B4810B5016841F40071016064
:1004F000016841F480610160016841F4807101602C
:10050000032000F06FF8002000F006F800F024F857
:10051000002010BD003C024070B50D4D04464FF464
:100520007A712878B1FBF0F00A490968B1FBF0F064
:1005300000F002FB48B9102C07D200222146501EC1
:1005400000F030F800206C6070BD012070BD00002C
:10055000000000200C0000200A4808B5016841F4A2
:1005600080410160006800F4804000900548001F51
:10057000016841F080510160006800F080500090F7
:1005800008BD000044380240002809DB00F01F02CB
:10059000012191404009800000F1E020C0F80011E5
:1005A00070470000F0B40E4B1B680C46C3F30223E7
:1005B000C3F10705042D00D90425191D072901D20F
:1005C000002300E0DB1E012606FA05F1491E21404A
:1005D00099409E40761E16403143F0BC01F0D7BDD5
:1005E0000CED00E0064900F0070208684FF6FF0333
:1005F000184040EA0220034A104308607047000098
:100600000CED00E00000FA052DE9F0470E4605006C
:1006100065D0DFF81481D8F80000F7B200F00F00C1
:10062000B04207D288F80070D8F8000000F00F0040
:10063000B04254D128683D4C810712D5400703D5FC
:10064000206840F4E05020602878000703D5206837
:1006500040F4604020602068A96820F0F000084362
:1006600020602878C0072DD03049686808390128F3
:1006700012D0022813D0032811D009688907002955
:100680002DDA216821F0030101432160FFF71CFFEF
:10069000814641F2883A0EE009688903EFE709686C
:1006A0008901ECE7FFF710FFA0EB0901514502D9E2
:1006B0000320BDE8F0872068696800F00C00B0EB0B
:1006C000810FEFD1D8F80010404601F00F01B14280
:1006D00007D90770006800F00F00B04201D0012078
:1006E000E7E72878400705D52068E96820F4E0505E
:1006F000084320602878000706D52068296920F47F
:10070000604040EAC100206000F038F82168084AE3
:10071000C1F30311515CC8400649086006480068EF
:10072000FFF7FAFE0020C4E7003C02400838024010
:10073000182200080C00002004000020044805498D
:1007400000680968044AC1F38221515CC8407047BF
:100750000C000020083802402822000804480549FF
:1007600000680968044AC1F34231515CC8407047CF
:100770000C0000200838024028220008154810B557
:10078000006810F00C02144813D04110042A0FD056
:10079000082A0ED10F4C241F2268236802F03F0262
:1007A0005B0207D52068C0F38810A0FB010106E0BA
:1007B000084610BD2168C1F38811A1FB0001002388
:1007C000FFF7FEFC2168C1F30141491C4900B0FB61
:1007D000F1F010BD083802400024F4002DE9F84F74
:1007E00004006ED02078DFF83C93C007A9F104051F
:1007F0004AD009F104000168C1F38101012908D040
:100800000068C0F3810002280AD1D9F80000400234
:1008100006D52868800337D560680028E1D033E02A
:100820006068B0F5803F10D0B0F5A02F286810D0D8
:1008300020F480302860286820F4802028606068D8
:10084000A8B1FFF741FE06460DE0286840F480306D
:10085000F4E740F480202860F7E700BFFFF734FE9C
:10086000801B642873D828688003F7D50CE0FFF755
:100870002BFE064605E000BFFFF726FE801B64281E
:10088000F0D828688003F7D42078DFF89C828007AE
:100890004FF0000A3ED5A348001D016811F00C0F6F
:1008A00008D00068C0F3810002280BD1D9F80000FD
:1008B000400207D42868800716D5E068012800D1D7
:1008C00012E02BE1E068B8B10120C8F80000FFF7A2
:1008D000FBFD064605E000BFFFF7F6FD801B022882
:1008E000C0D828688007F7D52868216920F0F8006B
:1008F00040EAC10028600DE0C8F800A0FFF7E4FD61
:10090000064604E0FFF7E0FD801B02281FD8286898
:100910008007F7D42078000722D5824E834861698A
:10092000703671B101210160FFF7CEFD074604E08A
:10093000FFF7CAFDC01B022809D830688007F7D529
:100940000EE0C0F800A0FFF7BFFD074605E082E01B
:10095000FFF7BAFDC01B02287DD830688007F7D4A6
:100960002078400768D5DFF8BCB100270BF13C0BBD
:10097000DBF80000C0000BD4DBF8001041F0805120
:10098000CBF80010DBF80000012700F08050009049
:10099000674E3068C00510D4306840F48070306015
:1009A000FFF792FD009005E0FFF78EFD0099401AD9
:1009B000022850D83068C005F6D55A4EA0686C366B
:1009C00001280FD00528306810D020F001003060D9
:1009D000306820F004003060A068B8B1FFF774FD03
:1009E00000900FE0306840F00100F4E740F00400B0
:1009F0003060F7E7FFF768FD0099411A41F288304F
:100A0000814266D830688007F4D50EE0FFF75CFDC0
:100A1000009007E0FFF758FD0099411A41F2883035
:100A2000814256D830688007F4D42FB1DBF800102B
:100A300021F08051CBF80010A069C8B33949091DD5
:100A40000968C1F3810102294AD00228504607D023
:100A5000C8F8600000E03CE0FFF736FD04463BE0EC
:100A60004746C8F86000FFF72FFD064605E000BFC7
:100A7000FFF72AFD801B02282BD828688001F7D4B5
:100A8000D4E907010843A16A2A4A490802EB014157
:100A9000626A41EA8211084394F82C1040EA01612D
:100AA000C9F8001001203866FFF70EFD044606E085
:100AB00036E000BFFFF708FD001B022809D82868B0
:100AC0008001F7D52CE000BFFFF7FEFC001B0228D9
:100AD00002D90320BDE8F88F28688001F4D41FE014
:100AE0000128F7D0D9F80000E26900F480019142B2
:100AF00014D1226A00F03F0191420FD147F6C07134
:100B0000626A0140914209D1A26A00F440319142E7
:100B100004D1E16A00F07060884201D00120D9E779
:100B20000020D7E70438024000004742800E4742C9
:100B3000007000400000FFFF10B5401EB0F1807F44
:100B400001D3012010BD4FF0E02460610F21601738
:100B500001F01DFB0020A06107202061002010BDD6
:100B60007047704770B590F83C20012A32D00124BC
:100B700080F83C40022280F83D2003685A689D6856
:100B800022F070060A6832435A60134B02689A4298
:100B900014D0B2F1804F11D0104B9A420ED0104BAE
:100BA0009A420BD00F4B9A4208D00F4B9A4205D075
:100BB0000E4B9A4202D00E4B9A4204D1496825F05E
:100BC00080031943916080F83D40002180F83C107B
:100BD000084670BD022070BD0000014000040040C6
:100BE00000080040000C00400004014000400140AB
:100BF0000018004010B5040003D094F83D0010B177
:100C000007E0012010BD002084F83C00204600F0E1
:100C10000DF8022084F83D00211D206800F0F0FF4F
:100C2000012084F83D00002010BD000008B50068D8
:100C3000B0F1804F15D01449884223D11348016880
:100C400041F4003101600068002200F4003000909F
:100C500011461920FFF7A6FC1920BDE80840FFF750
:100C600093BC0A48001F016841F00101016000685F
:100C7000002200F00100009011461C20FFF792FCBA
:100C80001C20EAE708BD000000440140443802404F
:100C900070B5044690F83C00012817D0012584F86F
:100CA0003C50022084F83D002068826822F07702E0
:100CB00022F47F4282600868502830D00DDC202862
:100CC0004DD005DC98B310283BD148E0022070BD20
:100CD000302844D0402834D139E0602828D070280A
:100CE00006D0B0F5805F2CD0B0F5005F29D10AE0C6
:100CF000CB68D1E90121206800F0E6FF2068816817
:100D000041F0770109E0CB68D1E90121206800F0CA
:100D1000DBFF2068816841F48041816011E0CA688E
:100D20004968206801F0A4F85021206807E016E027
:100D3000CA684968206801F0ACF86021206800F0BA
:100D4000CDFF84F83D50002084F83C0070BDCA6897
:100D50004968206801F08CF840212068EFE722689C
:100D600001461046EBE72DE9F0410D46040003D0A3
:100D700094F83D0018B108E00120BDE8F0810020A2
:100D800084F83C00204600F03BF8022084F83D0047
:100D90002068816844F2070291438160211D206828
:100DA00000F02EFF226890689169166A2B68AF697F
:100DB000034340F20330814341EA0721A868EF6909
:100DC00008434FF6FC418843E96840EA07200143A5
:100DD00028692F6A000140EA0730084369686D6995
:100DE00026F0AA0646EA0515294393602268906119
:100DF00020680162012084F83D000020BDE700006A
:100E0000F0B587B0044614216846FFF711FA4E4941
:100E10004C4E256800224C4C1039C02702234B4809
:100E2000B5421ED1256845F002052560246804F00E
:100E3000020405940C6844F001040C6009680097F2
:100E4000CDE9013201F00101CDE904310392694697
:100E5000FFF752FA002211461D20FFF7A3FB1D20C9
:100E600023E03B4EB54224D1206840F004002060CE
:100E7000206800F004000590086840F00800086051
:100E80000868694600F0080005904FF44050009053
:100E9000CDE901322F48CDE90323FFF72DFA0022D7
:100EA00011461E20FFF77EFB1E20FFF76DFB07B0EB
:100EB000F0BDDFF8A4C0032665451ED1256845F0C6
:100EC00008052560246804F0080405940C6844F0C3
:100ED00001040C6009680096CDE9013201F00101BE
:100EE000CDE9043103926946FFF706FA0022114664
:100EF0003220FFF757FB3220D7E718488542D6D17A
:100F00001148001D046844F002040460006800F009
:100F100002000590086840F0040008600868009727
:100F2000CDE9013200F00400CDE904606946039286
:100F30000B48FFF7E1F9002211462C20FFF732FBA6
:100F40002C20B2E70004004040380240000002407C
:100F500000080040000C0240000C0040000401406A
:100F600000080240704770B50446006801694FF000
:100F70000005C943890715D4C168C943890711D43D
:100F8000E91E0161012020772068806980072046E2
:100F900002D0FFF7E7FF04E000F0D4F8204600F0AD
:100FA00056F9257720680169C943490717D4C168F4
:100FB000C943490713D46FF004010161022020776F
:100FC0002068806910F4407F204602D0FFF7CAFFF6
:100FD00004E000F0B7F8204600F039F925772068E2
:100FE0000169C943090716D4C168C943090712D466
:100FF0006FF008010161042020772068C069800734
:10100000204602D0FFF7AEFF04E000F09BF8204638
:1010100000F01DF9257720680169C943C90617D476
:10102000C168C943C90613D46FF0100101610820DB
:1010300020772068C06910F4407F204602D0FFF777
:1010400091FF04E000F07EF8204600F000F92577DB
:1010500020680169C943C90708D1C168C943C907E4
:1010600004D1891E0161204600F0F2F82068016970
:10107000C943090609D4C168C943090605D46FF0FC
:10108000800101612046FFF76BFD20680169C943BB
:10109000490609D4C168C943490605D46FF0400127
:1010A0000161204600F0D5F820680169C94389062E
:1010B0000BD4C168C943890607D46FF020010161D0
:1010C0002046BDE87040FFF74CBD70BD70B586B0DE
:1010D000044614216846FFF7ABF82068B0F1804F52
:1010E00027D115480024016841F001010160016821
:1010F00001F001010591016841F002010160006801
:10110000022500F0020005902C200090CDE901544A
:101110000126CDE9034669460848FFF7EDF80820A7
:101120000090CDE90154CDE9034669460448FFF734
:10113000E3F806B070BD0000303802400000024005
:1011400000040240704770B5044690F83C000D461C
:1011500001280DD0012684F83C60022084F83D006F
:1011600042B1042A18D0082A2AD00C2A4DD139E0DD
:10117000022070BD206800F0B9FD2068816941F04F
:10118000080181612068816921F004018161206882
:1011900081692A69114311E0206800F0D7FD2068B9
:1011A000816941F4006181612068816921F4806175
:1011B0008161206881692A6941EA0221816124E014
:1011C000206800F0F9FD2068C16941F00801C161A3
:1011D0002068C16921F00401C1612068C1692A69E0
:1011E000114311E0206800F01BFE2068C16941F442
:1011F0000061C1612068C16921F48061C16120681A
:10120000C1692A6941EA0221C16184F83D60002078
:1012100084F83C0070BD10B5040003D094F83D0084
:1012200010B107E0012010BD002084F83C002046EA
:1012300000F00CF8022084F83D00211D206800F029
:10124000DFFC012084F83D00002010BD704770478E
:10125000704770477047000070B502680446106818
:10126000D168536910F00F0F52D003F0010501F45B
:1012700090762E435FD0C20705D0CA0503D5E26B36
:1012800042F00102E263420705D5DA0703D0E26BC0
:1012900042F00202E263820705D5DA0703D0E26B6F
:1012A00042F00402E263020707D501F020022A435C
:1012B00003D0E26B42F00802E263E26B002A33D013
:1012C000800604D5880602D5204600F00AFE206874
:1012D0004069E16BC0F38010090700D428B32046B1
:1012E00000F0F1FD2068416949061AD5416921F0F5
:1012F00040014161606BA0B11B490165606BFEF765
:10130000D6FF002810D0606B016DBDE87040084723
:10131000830610D58B060ED52046BDE8704000F040
:10132000E0BD2046FFF796FF70BD2046FFF792FF15
:101330000020E06370BD030606D50B0604D52046E9
:10134000BDE8704000F0ACBE4006F3D54806F1D5CC
:10135000D168204621F04001D160202184F8391065
:1013600000F05BF970BD0000B71E000870B5040006
:1013700004D094F83900002510B106E0012070BDBA
:1013800084F83850204600F023F8242084F83900EF
:101390002068C16821F40051C160204600F0ECFDD6
:1013A0002068016921F4904101612068416921F0C0
:1013B0002A0141612068C16841F40051C160E563C0
:1013C000202084F8390084F83A00002070BD000025
:1013D000F0B587B0044614216846FEF729FF3D4A60
:1013E000266800213C48022303240725964222D187
:1013F000394A1432166846F010061660126802F078
:1014000010020592026842F001020260006802AA1E
:1014100000F00100059082E832006002CDE900038F
:1014200069462E48FEF768FF002211462520FFF787
:10143000B9F8252024E0284A294F1032BE4223D192
:10144000166846F400361660126802F400320592FF
:10145000026842F008020260006802AE00F0080074
:10146000059086E832006020CDE9000369461D48FA
:10147000FEF742FF002211462620FFF793F82620B0
:10148000FFF782F807B0F0BD174FBE42FAD11668D9
:1014900046F480261660126802F4802205920268E3
:1014A00042F002020260006802AE00F00200059005
:1014B00086E832004FF44060CDE9000369460B48EE
:1014C000FEF71AFF002211462720FFF76BF82720AE
:1014D000D6E7000000100140303802400000024012
:1014E00000440040000C024000480040000402405C
:1014F00090F83A30202B22D1F9B1F2B190F838307F
:10150000012B1CD081628285C2850021C163222209
:1015100080F83A2080F838100168CA6842F4807276
:10152000CA6001684A6942F001024A610068C16804
:1015300041F02001C1600020704701207047022067
:101540007047000004490A4650680144401C50603E
:1015500001220248FFF7CCBF14000020280200201F
:101560002DE9F843044690F839001F4616460D460B
:10157000202850D1B5B1AEB194F8380001284AD036
:10158000012084F838004FF00008C4F83C80212086
:1015900084F83900FEF798FFA6848146E68484F833
:1015A000388026E00120BDE8F883E08C401EE0840E
:1015B000A0684B46B0F5805F4FF000024FF080010D
:1015C0002046009703D000F09CFDE8B90DE000F044
:1015D00098FDC8B928882168C0F3080048602069D0
:1015E00008B16D1C05E0AD1C03E0216815F8010B86
:1015F0004860E08C0028D8D14B460022402120468C
:10160000009700F07EFD08B10320CCE7202084F88D
:1016100039000020C7E70220C5E77047FEE7000059
:1016200006490A68521C0A60824205DB00200860F5
:1016300001210348FEF73CBF704700001000002066
:10164000000802402DE9F04387B014216846FEF7F8
:10165000EFFD35480024016841F010010160016888
:1016600001F010010591016841F0800101600168FD
:1016700001F080010591016841F0040101600168F9
:1016800001F004010591016841F001010160016868
:1016900001F001010591016841F00201016001685A
:1016A00001F002010591016841F008010160006844
:1016B0001E4F00F00800059000227F213846FEF7FB
:1016C000FEFEDFF86C80002201214046FEF7F7FEA7
:1016D000DFF860907E15002231464846FEF7EFFEA7
:1016E0007F2000900125CDE90154694638460394D6
:1016F000FEF702FE0095CDE9015469464046039489
:10170000FEF7FAFD02208DE8310069464046FEF7FB
:10171000F3FD0096CDE90154694648460394FEF76F
:10172000EBFD07B0BDE8F083303802400010024006
:1017300000080240000402400B4810B5094901604E
:10174000A721416000216322C0E9021201618021CA
:101750008161FFF74FFA002803D0BDE81040FEF783
:10176000A5BD10BD004401406801002010B58EB039
:1017700000240794089409940A940B941C21684649
:101780000C94FEF755FD2A484FF080410160292155
:10179000C0E9011440F2E731C0E9031480218161FE
:1017A000FFF728FA08B1FEF781FD4FF4805007904B
:1017B00007A91F48FFF76CFA08B1FEF777FD1C4830
:1017C000FFF729FD08B1FEF771FD0B940BA918482E
:1017D0000C94FFF7C7F908B1FEF768FD6020CDE96A
:1017E000000402940022694611480494FFF7ABFC00
:1017F00008B1FEF75BFD042269460D48FFF7A3FC24
:1018000008B1FEF753FD082269460948FFF79BFC23
:1018100008B1FEF74BFD0C2269460548FFF793FC23
:1018200008B1FEF743FD0248FFF750FC0EB010BDB3
:101830002800002010B58CB024216846FEF7F8FC83
:1018400000241648099414490A94C0E900144FF67C
:10185000FF71C0E902418021046181610320CDE96B
:1018600000040120CDE902040494CDE90540079469
:1018700069460A480894FFF776FA08B1FEF716FDA4
:10188000099409A905480A94FFF76CF9002801D0CA
:10189000FEF70CFD0CB010BD0004004068000020F5
:1018A00010B58CB024216846FEF7C2FC002416480F
:1018B000099414490A94C0E900144FF6FF71C0E975
:1018C00002418021046181610320CDE900040120EF
:1018D000CDE902040494CDE90540079469460A481D
:1018E0000894FFF740FA08B1FEF7E0FC099409A953
:1018F00005480A94FFF736F9002801D0FEF7D6FC18
:101900000CB010BD00080040A800002010B58CB03D
:1019100024216846FEF78CFC0024164809941449DB
:101920000A94C0E900144FF6FF71C0E9024180211A
:10193000046181610320CDE900040120CDE90204A6
:101940000494CDE90540079469460A480894FFF7D6
:101950000AFA08B1FEF7AAFC099409A905480A94F5
:10196000FFF700F9002801D0FEF7A0FC0CB010BD75
:10197000000C0040E800002010B58CB0242168461F
:10198000FEF756FC00241748099415490A94C0E94B
:1019900000144FF6FF71C0E9024180210461C0E9E3
:1019A00005410320CDE900040120CDE9020404949F
:1019B000CDE90540079469460A480894FFF7D3F932
:1019C00008B1FEF773FC099409A906480A94FFF7C9
:1019D000C9F8002801D0FEF769FC0CB010BD00006A
:1019E00000040140280100200C4810B50A4901609C
:1019F0004FF4E1314160002181600C22C160C0E9F7
:101A000004128161C161FFF7B1FC002803D0BDE879
:101A10001040FEF74BBC10BD00100140A801002093
:101A20000C4810B50A4901604FF4E13141600021D2
:101A300081600C22C160C0E904128161C161FFF7BD
:101A400095FC002803D0BDE81040FEF72FBC10BD68
:101A500000440040E80100200C4810B50A4901602C
:101A60004FF416514160002181600C22C160C0E931
:101A700004128161C161FFF779FC002803D0BDE841
:101A80001040FEF713BC10BD0048004028020020A3
:101A9000FEE770477047000038B5044657208DF8C0
:101AA00000004FF47A73012269460A48FFF758FD97
:101AB000094D6868032802D00120FEF70BFC064898
:101AC00041780A02817800781143C4E900010020BE
:101AD000686038BD28020020140000207047000014
:101AE00008B557208DF800004FF47A73012269463B
:101AF0000648FFF735FD06490A4650680144401C78
:101B0000506001220148FFF7F3FC08BD28020020C5
:101B100014000020FEF7DEBC30B593B030216846DB
:101B2000FEF786FB14210CA8FEF782FB194800255E
:101B3000016841F080510160006800F08050119010
:101B40001548016841F4804101600068022400F4F6
:101B50008040119001200090000401908001CDE9A7
:101B6000064008AA0420A82182E813000B906846CA
:101B7000FEF734FE0CA90F2081E831004FF4A0508D
:101B80000F90E002109005210CA8FEF73DFD13B068
:101B900030BD000040380240007000400548016838
:101BA00041F47001016003494FF000608039086022
:101BB0007047000088ED00E00148FFF7D4B900004D
:101BC000680100200148FFF7CEB90000280000207E
:101BD0000148FFF7C8B90000680000200148FFF77E
:101BE000C2B90000A80000200148FFF7BCB90000FE
:101BF000E80000200148FFF7B6B9000028010020E6
:101C0000F0B50268254C264D264E274F274B4FF046
:101C1000804CA04209D0604507D0A84205D0B04210
:101C200003D0B84201D0984204D122F0700E4A6825
:101C300042EA0E02A0421BD0604519D0A84217D03C
:101C4000B04215D0B84213D0984211D0184DA842D6
:101C50000ED0184DA8420BD0174DA84208D0174DF2
:101C6000A84205D0164DA84202D0164DA84203D175
:101C700022F44075CA682A434D6922F080022A4343
:101C800002608A68C2620A688262A04201D09842F9
:101C900001D10969016301214161F0BD00000140EA
:101CA0000004004000080040000C00400004014017
:101CB000004001400044014000480140001800403D
:101CC000001C00400020004010B5846842EA032256
:101CD00024F47F440A432243826010BD826822F0CC
:101CE00070020A4342F0070181607047F0B5026A52
:101CF00022F001020262036A42688469124E24F0F3
:101D000073050C682C4323F002058B682B430D4DA3
:101D1000A84201D0B04205D123F00807CB683B436D
:101D200023F00403A84201D0B04205D14D6922F44A
:101D3000407215438A692A4342608461496841635D
:101D40000362F0BD0000014000040140F0B5026AEA
:101D500022F010020262026A436884690D6824F46A
:101D6000E64444EA05248D6822F0200242EA051286
:101D70000F4D104EA84201D0B04206D1CF6822F0DC
:101D8000800242EA071222F04002A84201D0B0428B
:101D900007D14D6923F4406343EA85038D6943EA23
:101DA000850343608461496881630262F0BD00007D
:101DB0000000014000040140F0B5026A22F4807284
:101DC0000262026A4368C46922F4007224F0730557
:101DD0000C68124E2C438D6842EA05220E4DA84233
:101DE00001D0B04206D1CF6822F4006242EA072255
:101DF00022F48062A84201D0B04207D14D6923F499
:101E0000405343EA05138D6943EA05134360C461F7
:101E10004968C1630262F0BD000001400004014056
:101E200030B5026A22F480520262046A4268C369D1
:101E30000D6823F4E64343EA05238D6824F4005437
:101E400044EA0534084DA84202D0084DA84204D106
:101E50004D6922F4804242EA85124260C3614968BA
:101E60000164046230BD0000000001400004014034
:101E700010B5036A046A24F001040462846924F042
:101E8000F00444EA021423F00A020A438461026265
:101E900010BD10B5036A23F0100303628369046A5E
:101EA00023F4704343EA023224F0A00343EA011111
:101EB0008261016210BD10B5806B0021C185C184B3
:101EC000FFF7C8F910BD0168CA6822F49072CA60B1
:101ED00001684A6922F001024A61202180F83A1023
:101EE000704710B590F83A10222901D0022010BD99
:101EF0008168B1F5805F11D00169002901681FD0A8
:101F0000496801F07F03816A4A1C82620B70C18DAF
:101F1000491E0904090CC18518D02BE00269816AA9
:101F2000002A0268526805D0D2B20A80816A491C30
:101F30008162ECE7C2F308020A80816A891CF7E734
:101F40004A68816A4B1C83620A70E0E70168CA68CC
:101F500022F02002CA600168CA6822F48072CA6056
:101F600001684A6922F001024A61202180F83A1092
:101F7000FFF7E8FA002010BD2DE9F04104460068A3
:101F80000169E26821F44051114301612169A068AF
:101F9000E26908436169114308432168CA6849F24C
:101FA0000C639A430243CA6020684169A26921F424
:101FB000407111434161E069192764253226B0F56B
:101FC000004F354A354920684FF0000806D0884256
:101FD00001D0904236D1FEF7C1FB35E0884201D0F6
:101FE000904202D1FEF7BAFB01E0FEF7A7FB616861
:101FF0004A18A0FB070148EB0803FEF7E1F8014689
:10200000B0FBF5F00201B1FBF5F06FF01803584397
:1020100001EB800006EBC000B0FBF5F000F0F8002B
:1020200002EB4002B1FBF5F0584301EB800006EBF8
:10203000C000B0FBF5F000F0070021681044886094
:10204000BDE8F081FEF77AFB61688B0F8A00A0FB88
:102050000701FEF7B5F80146B0FBF5F06FF0180286
:10206000504301EB800006EB0010B0FBF5F000F0F0
:10207000F002B1FBF5F002EB0012B1FBF5F06FF0EE
:102080001803584301EB800006EB0010B0FBF5F09D
:1020900000F00F00D1E700000014014000100140E3
:1020A00090F83910212901D0022070478168B1F5DC
:1020B000805F016A0BD04A1C026202680978516095
:1020C000C18C491E0904090CC1840ED017E009888F
:1020D0000268C1F30801516001690029016A02D058
:1020E000491C0162ECE7891CFBE70168CA6822F021
:1020F0008002CA600068C16841F04001C1600020F0
:1021000070472DE9F041984617460E460446069D55
:102110001DE0681C1BD02DB1FEF7D6F9A0EB08001E
:10212000A84214D92068C16821F4D071C160206828
:10213000416921F001014161202084F8390084F8CF
:102140003A00002084F838000320BDE8F0812068C0
:10215000006836EA000004D00020B842D9D0002040
:10216000F3E70120F9E700000148FFF775B8000028
:10217000A80100200148FFF76FB80000E801002027
:102180000148FFF769B8000028020020FEE70907B0
:10219000090E002804DB00F1E02080F800147047ED
:1021A00000F00F0000F1E02080F8141D704702E0FD
:1021B00008C8121F08C1002AFAD1704770470020D2
:1021C00001E001C1121F002AFBD17047FEF78AF916
:1021D000FFF7A2FCFFF736FAFFF706FCFFF720FC3B
:1021E000FFF73AFCFFF7C2FAFFF724FBFFF7C4FB47
:1021F000FFF756FBFFF78AFBFFF79EFAFFF770FC2D
:102200003220FEF767F80A20FFF70AFA0148FFF7C5
:1022100043FCF5E71C000020000000000000000067
:10222000010203040607080900000000010203047C
:1022300050220008000000201C000000AE21000811
:102240006C2200081C0000204C060000BE21000883
:102250000100000010000000000000000024F40055
:0C22600000000000000000000000000072
:040000050800018965
:00000001FF
