:020000040800F2
:10000000580400209D0100083F0F0008D90B00088C
:100010003D0F0008A90200084D1100080000000073
:100020000000000000000000000000007D0F00083C
:10003000AB02000800000000410F00087F0F00081D
:10004000B7010008B7010008B7010008B7010008B0
:10005000B7010008B7010008B7010008B7010008A0
:10006000B7010008B7010008B7010008B701000890
:10007000B7010008B7010008B7010008B701000880
:10008000B7010008B7010008B7010008B701000870
:10009000B7010008B7010008B7010008B701000860
:1000A000B7010008B7010008B7010008B701000850
:1000B000B7010008B7010008B7010008B701000840
:1000C000B7010008B7010008B7010008B701000830
:1000D000B7010008B7010008B7010008B701000820
:1000E000B7010008B7010008B7010008B701000810
:1000F000B7010008B7010008B7010008B701000800
:10010000B7010008B7010008B7010008B7010008EF
:10011000B7010008B7010008B7010008B7010008DF
:10012000B7010008B7010008B7010008B7010008CF
:10013000B7010008B7010008B7010008B7010008BF
:10014000B7010008B7010008B7010008B7010008AF
:10015000B7010008B7010008B7010008B70100089F
:10016000B7010008B7010008B7010008B70100088F
:10017000B7010008B7010008B7010008000000003F
:10018000B7010008B7010008DFF80CD000F07AF8DA
:10019000004800478D110008580400200648804799
:1001A00006480047FEE7FEE7FEE7FEE7FEE7FEE75C
:1001B000FEE7FEE7FEE7FEE70910000889010008F8
:1001C0002DE9F05F0546002092469B46884606468C
:1001D000814640241BE0284641464746224600F01F
:1001E00041F853465A46C01A914110D31146184659
:1001F000224600F028F82D1A67EB01084F462246E8
:100200000120002100F01FF817EB00094E41201ECD
:10021000A4F10104DFDC484631462A464346BDE8E6
:10022000F09FD2B201E000F8012B491EFBD27047CB
:100230000022F6E710B513460A4604461946FFF7B2
:10024000F0FF204610BD202A04DB203A00FA02F11C
:10025000002070479140C2F1200320FA03F31943B4
:1002600090407047202A04DB203A21FA02F0002156
:10027000704721FA02F3D040C2F1200291400843B6
:1002800019467047064C074D06E0E06840F0010350
:1002900094E8070098471034AC42F6D3FFF778FF94
:1002A000C4110008E4110008FEE7704703E00921CB
:1002B000491E89B2FCD2401E80B2F8D27047704706
:1002C0002DE9F84F00224FF0010803254FF00F0EE3
:1002D0000B6808FA02F42340A3426ED14E68012E47
:1002E00005D0022E03D0112E01D0122E12D1866815
:1002F0004FEA420C05FA0CF7BE43CF6807FA0CF739
:10030000374387604668A6430C79C4F300149440D1
:1003100034434460C668570005FA07FC8C6826EA37
:100320000C06BC403443C4604C68022C01D0122C33
:1003300013D1D40800EB8404A346D4F820905407CA
:100340004FEAD46A0EFA0AF629EA06090E6906FA95
:100350000AF646EA0906CBF8206006680C7926EA18
:100360000C0604F00304BC40344304604C68E40011
:1003700065D5364C266846F480462660246822F00F
:10038000030604F480440094314C3444A446D4F869
:1003900008489607370F0EFA07F6B4432D4EB042C1
:1003A00001D1002624E02C4EB04201D101261FE0ED
:1003B0002A4EB04202D102261AE040E0284EB04256
:1003C00001D1032614E0274EB04201D104260FE0EC
:1003D000254EB04201D105260AE0244EB04201D19B
:1003E000062605E0224EB04201D1072600E008268D
:1003F000BE402643CCF808681E4E34684F689C43C4
:10040000FF0300D51C4334601A4C241D26684F6836
:100410009E43BF0300D51E432660164E083634683F
:100420004F689C43FF0200D51C433460114E0C36CC
:1004300034684F689C43BF0200D51C433460521C93
:10044000102AFFF445AFBDE8F88F000044380240A1
:100450000030014000000240000402400008024059
:10046000000C02400010024000140240001802403C
:10047000001C0240003C01400069084000D00120FF
:1004800070470AB1816170470904FBE70148806841
:10049000704700000400002002488168027811447F
:1004A00081607047040000200B4810B5016841F4DA
:1004B00000710160016841F480610160016841F4EC
:1004C00080710160032000F061F8002000F006F860
:1004D00000F024F8002010BD003C024070B50D4D26
:1004E00004464FF47A712878B1FBF0F00A490968A4
:1004F000B1FBF0F000F0F4FA48B9102C07D200225A
:100500002146501E00F022F800206C6070BD0120D2
:1005100070BD000004000020100000200A4808B54B
:10052000016841F480410160006800F4804000905F
:100530000548001F016841F080510160006800F02B
:100540008050009008BD000044380240F0B40E4BCB
:100550001B680C46C3F30223C3F10705042D00D921
:100560000425191D072901D2002300E0DB1E012606
:1005700006FA05F1491E214099409E40761E16401C
:100580003143F0BC00F0E3BD0CED00E0064900F0A3
:10059000070208684FF6FF03184040EA0220034AAA
:1005A00010430860704700000CED00E00000FA0501
:1005B0002DE9F0470E46050065D0DFF81481D8F824
:1005C0000000F7B200F00F00B04207D288F80070C8
:1005D000D8F8000000F00F00B04254D128683D4C1C
:1005E000810712D5400703D5206840F4E050206011
:1005F0002878000703D5206840F460402060206818
:10060000A96820F0F000084320602878C0072DD0AA
:10061000304968680839012812D0022813D003280D
:1006200011D00968890700292DDA216821F003011A
:1006300001432160FFF72AFF814641F2883A0EE02C
:1006400009688903EFE709688901ECE7FFF71EFFF6
:10065000A0EB0901514502D90320BDE8F0872068CD
:10066000696800F00C00B0EB810FEFD1D8F80010F2
:10067000404601F00F01B14207D90770006800F051
:100680000F00B04201D00120E7E72878400705D5E8
:100690002068E96820F4E0500843206028780007CB
:1006A00006D52068296920F4604040EAC100206036
:1006B00000F038F82168084AC1F30311515CC840C2
:1006C0000649086006480068FFF708FF0020C4E7F5
:1006D000003C024008380240AC1100081000002025
:1006E000080000200448054900680968044AC1F36D
:1006F0008221515CC8407047100000200838024039
:10070000BC1100080448054900680968044AC1F39F
:100710004231515CC8407047100000200838024048
:10072000BC110008154810B5006810F00C02144800
:1007300013D04110042A0FD0082A0ED10F4C241FC9
:100740002268236802F03F025B0207D52068C0F3ED
:100750008810A0FB010106E0084610BD2168C1F326
:100760008811A1FB00010023FFF72AFD2168C1F3D6
:100770000141491C4900B0FBF1F010BD08380240AE
:100780000024F4002DE9F84F04006ED02078DFF843
:100790003C93C007A9F104054AD009F1040001689F
:1007A000C1F38101012908D00068C0F3810002284B
:1007B0000AD1D9F80000400206D52868800337D551
:1007C00060680028E1D033E06068B0F5803F10D069
:1007D000B0F5A02F286810D020F480302860286859
:1007E00020F4802028606068A8B1FFF74FFE06461D
:1007F0000DE0286840F48030F4E740F48020286061
:10080000F7E700BFFFF742FE801B642873D8286813
:100810008003F7D50CE0FFF739FE064605E000BF80
:10082000FFF734FE801B6428F0D828688003F7D4D3
:100830002078DFF89C8280074FF0000A3ED5A3485D
:10084000001D016811F00C0F08D00068C0F3810092
:1008500002280BD1D9F80000400207D4286880078D
:1008600016D5E068012800D112E02BE1E068B8B1AC
:100870000120C8F80000FFF709FE064605E000BFAA
:10088000FFF704FE801B0228C0D828688007F7D530
:100890002868216920F0F80040EAC10028600DE0D6
:1008A000C8F800A0FFF7F2FD064604E0FFF7EEFDF2
:1008B000801B02281FD828688007F7D420780007FB
:1008C00022D5824E83486169703671B10121016081
:1008D000FFF7DCFD074604E0FFF7D8FDC01B022848
:1008E00009D830688007F7D50EE0C0F800A0FFF700
:1008F000CDFD074605E082E0FFF7C8FDC01B0228DA
:100900007DD830688007F7D42078400768D5DFF8B5
:10091000BCB100270BF13C0BDBF80000C0000BD48E
:10092000DBF8001041F08051CBF80010DBF800003C
:10093000012700F080500090674E3068C00510D449
:10094000306840F480703060FFF7A0FD009005E053
:10095000FFF79CFD0099401A022850D83068C00566
:10096000F6D55A4EA0686C3601280FD0052830689D
:1009700010D020F001003060306820F004003060BA
:10098000A068B8B1FFF782FD00900FE0306840F03A
:100990000100F4E740F004003060F7E7FFF776FD70
:1009A0000099411A41F28830814266D83068800748
:1009B000F4D50EE0FFF76AFD009007E0FFF766FD53
:1009C0000099411A41F28830814256D83068800738
:1009D000F4D42FB1DBF8001021F08051CBF80010D7
:1009E000A069C8B33949091D0968C1F38101022909
:1009F0004AD00228504607D0C8F8600000E03CE02A
:100A0000FFF744FD04463BE04746C8F86000FFF7A7
:100A10003DFD064605E000BFFFF738FD801B0228BC
:100A20002BD828688001F7D4D4E907010843A16ACC
:100A30002A4A490802EB0141626A41EA82110843ED
:100A400094F82C1040EA0161C9F8001001203866C2
:100A5000FFF71CFD044606E036E000BFFFF716FD79
:100A6000001B022809D828688001F7D52CE000BFB8
:100A7000FFF70CFD001B022802D90320BDE8F88F08
:100A800028688001F4D41FE00128F7D0D9F80000CD
:100A9000E26900F48001914214D1226A00F03F0122
:100AA00091420FD147F6C071626A0140914209D16B
:100AB000A26A00F44031914204D1E16A00F0706012
:100AC000884201D00120D9E70020D7E7043802404E
:100AD00000004742800E4742007000400000FFFFC8
:100AE00010B5401EB0F1807F01D3012010BD4FF042
:100AF000E02460610F21601700F029FB0020A06155
:100B000007202061002010BD70B5040004D094F8C7
:100B10003900002510B106E0012070BD84F838507E
:100B2000204600F023F8242084F839002068C168AA
:100B300021F40051C160204600F074FA2068016978
:100B400021F4904101612068416921F02A0141614D
:100B50002068C16841F40051C160E563202084F839
:100B6000390084F83A00002070BD000010B586B04E
:100B7000044614216846FFF75BFB1449206888424D
:100B800021D113480021026842F01002026000687F
:100B900000F0100005900E481438026842F001027F
:100BA0000260006800F0010005904FF4C060009002
:100BB0000220CDE90101032003900720049069463B
:100BC0000448FFF77DFB06B010BD00000010014097
:100BD0004438024000000240FEE7000010B5124C0D
:100BE000206820F00C002060206840F004002060A5
:100BF000002204212046FFF744FC00220221204667
:100C0000FFF73FFC0220FFF751FB012204212046A1
:100C1000FFF737FC0220FFF749FB20460022BDE822
:100C200010400421FFF72DBC0008024010B5124C03
:100C3000206820F00C002060206840F00400206054
:100C4000002204212046FFF71CFC0122022120463D
:100C5000FFF717FC0220FFF729FB012204212046A1
:100C6000FFF70FFC0220FFF721FB20460022BDE822
:100C700010400421FFF705BC000802402DE9F041B7
:100C8000174C07460025206820F00C0020602068E3
:100C900020602E46002204212046FFF7F2FB0220AE
:100CA000FFF704FB012204212046FFF7EAFB680658
:100CB000050E02212046FFF7DFFB08B16D1CEDB2E7
:100CC0000120FFF7F3FA761CF6B2082EE2D327B123
:100CD000FFF784FF2846BDE8F081FFF7A7FFF9E79B
:100CE0000008024010B5124C206820F00C00206073
:100CF000206840F004002060012202212046FFF716
:100D0000C0FB012204212046FFF7BBFB0420FFF7B4
:100D1000CDFA002202212046FFF7B3FB0420FFF7A3
:100D2000C5FA20460022BDE810400421FFF7A9BB08
:100D30000008024010B5144C206820F00C00206020
:100D4000206840F004002060002204212046FFF7C4
:100D500098FB002202212046FFF793FB0420FFF7B7
:100D6000A5FA012204212046FFF78BFB0420FFF7A0
:100D70009DFA012202212046FFF783FBBDE81040C7
:100D80000420FFF793BA00000008024070B5174C2A
:100D90000025206820F00C002060206820600122DF
:100DA00002212046FFF76DFB0120FFF77FFA0122A9
:100DB00004212046FFF765FB0120FFF777FA07E0E3
:100DC0006D1CEDB2FA2D03D9FFF7B4FF012070BD01
:100DD00002212046FFF750FB0028F1D10022042118
:100DE0002046FFF74EFB002070BD000000080240C7
:100DF00070B51B4E05463046316821F00C0131605C
:100E0000316841F00401316000220421FFF739FB11
:100E10000024280601D5012200E0002202213046EC
:100E2000FFF72FFB6806050E0220FFF73FFA0122AD
:100E300004213046FFF725FB0220FFF737FA002296
:100E400004213046FFF71DFB0220FFF72FFA641C38
:100E5000E4B2082CDDD3BDE87040FFF797BF000077
:100E60000008024070B586B014216846FFF7E0F92B
:100E700021480024016841F004010160016801F08B
:100E800004010591016841F080010160016801F0F1
:100E900080010591016841F0010101600068174E71
:100EA00000F001004FF4005505900022294630461D
:100EB000FFF7E7FA012206213046FFF7E2FA009534
:100EC0000125CDE90154694630460394FFF7F8F94E
:100ED0000620CDE900050220CDE9024069463046F2
:100EE000FFF7EEF9E803CDE90004694604480294EF
:100EF000FFF7E6F906B070BD303802400008024046
:100F0000000002400C4810B50A4901604FF4E1317D
:100F10004160002181600C22C160C0E9041281613E
:100F2000C161FFF7F1FD002803D0BDE81040FFF7D5
:100F3000C6B910BD0010014014000020FEE7704744
:100F4000704710B50446FFF7CDFE6006000EFFF7B0
:100F50004FFFA020FFF74CFFFFF7ECFEFFF7C2FEAC
:100F6000012000EB4400C0B2FFF742FF0020FFF772
:100F700085FE0446FFF7DEFE204610BD7047FFF7F2
:100F80008BBA000030B593B030216846FFF750F9B6
:100F900014210CA8FFF74CF919480025016841F00D
:100FA00080510160006800F0805011901548016880
:100FB00041F4804101600068022400F480401190F7
:100FC00001200090000401908001CDE9064008AAAC
:100FD0000420A82182E813000B906846FFF7D2FB9B
:100FE0000CA90F2081E831004FF4A0500F90E002CF
:100FF000109005210CA8FFF7DBFA13B030BD0000FC
:1010000040380240007000400548016841F470011A
:10101000016003494FF000608039086070470000AC
:1010200088ED00E02DE9F041044600680169E268BE
:1010300021F44051114301612169A068E26908432C
:101040006169114308432168CA6849F20C639A43F5
:101050000243CA6020684169A26921F440711143CA
:101060004161E069192764253226B0F5004F354A01
:10107000354920684FF0000806D0884201D09042E0
:1010800036D1FFF73FFB35E0884201D0904202D1D4
:10109000FFF738FB01E0FFF725FB61684A18A0FB6A
:1010A000070148EB0803FFF78BF80146B0FBF5F0AA
:1010B0000201B1FBF5F06FF01803584301EB80001B
:1010C00006EBC000B0FBF5F000F0F80002EB4002C8
:1010D000B1FBF5F0584301EB800006EBC000B0FB1C
:1010E000F5F000F00700216810448860BDE8F08149
:1010F000FFF7F8FA61688B0F8A00A0FB0701FFF782
:101100005FF80146B0FBF5F06FF01802504301EBB9
:10111000800006EB0010B0FBF5F000F0F002B1FB30
:10112000F5F002EB0012B1FBF5F06FF01803584335
:1011300001EB800006EB0010B0FBF5F000F00F00B3
:10114000D1E700000014014000100140FEE709074C
:10115000090E002804DB00F1E02080F8001470473D
:1011600000F00F0000F1E02080F8141D704702E04D
:1011700008C8121F08C1002AFAD170477047002022
:1011800001E001C1121F002AFBD17047FFF78CF963
:10119000FFF7F8FEFFF766FEFFF7B4FE024C57209C
:1011A000FFF7CFFE2060FAE70000002000000000FB
:1011B0000000000001020304060708090000000007
:1011C00001020304E41100080000002014000000E4
:1011D0006E110008F81100081400002044040000FB
:1011E0007E11000800000000010000001000000057
:0811F000000000000024F400DF
:040000050800018965
:00000001FF
